{
  "contractName": "BonusRewards",
  "abi": [
    {
      "inputs": [],
      "stateMutability": "nonpayable",
      "type": "constructor"
    },
    {
      "anonymous": false,
      "inputs": [
        {
          "indexed": true,
          "internalType": "address",
          "name": "user",
          "type": "address"
        },
        {
          "indexed": true,
          "internalType": "address",
          "name": "lpToken",
          "type": "address"
        },
        {
          "indexed": false,
          "internalType": "uint256",
          "name": "amount",
          "type": "uint256"
        }
      ],
      "name": "Deposit",
      "type": "event"
    },
    {
      "anonymous": false,
      "inputs": [
        {
          "indexed": true,
          "internalType": "address",
          "name": "previousOwner",
          "type": "address"
        },
        {
          "indexed": true,
          "internalType": "address",
          "name": "newOwner",
          "type": "address"
        }
      ],
      "name": "OwnershipTransferred",
      "type": "event"
    },
    {
      "anonymous": false,
      "inputs": [
        {
          "indexed": false,
          "internalType": "address",
          "name": "user",
          "type": "address"
        },
        {
          "indexed": false,
          "internalType": "bool",
          "name": "old",
          "type": "bool"
        },
        {
          "indexed": false,
          "internalType": "bool",
          "name": "_new",
          "type": "bool"
        }
      ],
      "name": "PausedStatusUpdated",
      "type": "event"
    },
    {
      "anonymous": false,
      "inputs": [
        {
          "indexed": true,
          "internalType": "address",
          "name": "user",
          "type": "address"
        },
        {
          "indexed": true,
          "internalType": "address",
          "name": "lpToken",
          "type": "address"
        },
        {
          "indexed": false,
          "internalType": "uint256",
          "name": "amount",
          "type": "uint256"
        }
      ],
      "name": "Withdraw",
      "type": "event"
    },
    {
      "inputs": [],
      "name": "owner",
      "outputs": [
        {
          "internalType": "address",
          "name": "",
          "type": "address"
        }
      ],
      "stateMutability": "view",
      "type": "function",
      "constant": true
    },
    {
      "inputs": [],
      "name": "paused",
      "outputs": [
        {
          "internalType": "bool",
          "name": "",
          "type": "bool"
        }
      ],
      "stateMutability": "view",
      "type": "function",
      "constant": true
    },
    {
      "inputs": [],
      "name": "renounceOwnership",
      "outputs": [],
      "stateMutability": "nonpayable",
      "type": "function"
    },
    {
      "inputs": [
        {
          "internalType": "address",
          "name": "newOwner",
          "type": "address"
        }
      ],
      "name": "transferOwnership",
      "outputs": [],
      "stateMutability": "nonpayable",
      "type": "function"
    },
    {
      "inputs": [
        {
          "internalType": "address[]",
          "name": "_lpTokens",
          "type": "address[]"
        }
      ],
      "name": "claimRewardsForPools",
      "outputs": [],
      "stateMutability": "nonpayable",
      "type": "function"
    },
    {
      "inputs": [
        {
          "internalType": "address",
          "name": "_lpToken",
          "type": "address"
        },
        {
          "internalType": "uint256",
          "name": "_amount",
          "type": "uint256"
        }
      ],
      "name": "deposit",
      "outputs": [],
      "stateMutability": "nonpayable",
      "type": "function"
    },
    {
      "inputs": [
        {
          "internalType": "address",
          "name": "_lpToken",
          "type": "address"
        },
        {
          "internalType": "uint256",
          "name": "_amount",
          "type": "uint256"
        }
      ],
      "name": "withdraw",
      "outputs": [],
      "stateMutability": "nonpayable",
      "type": "function"
    },
    {
      "inputs": [
        {
          "internalType": "address[]",
          "name": "_lpTokens",
          "type": "address[]"
        }
      ],
      "name": "emergencyWithdraw",
      "outputs": [],
      "stateMutability": "nonpayable",
      "type": "function"
    },
    {
      "inputs": [
        {
          "internalType": "address",
          "name": "_lpToken",
          "type": "address"
        },
        {
          "internalType": "address",
          "name": "_bonusTokenAddr",
          "type": "address"
        },
        {
          "internalType": "uint48",
          "name": "_startTime",
          "type": "uint48"
        },
        {
          "internalType": "uint256",
          "name": "_weeklyRewards",
          "type": "uint256"
        },
        {
          "internalType": "uint256",
          "name": "_transferAmount",
          "type": "uint256"
        }
      ],
      "name": "addBonus",
      "outputs": [],
      "stateMutability": "nonpayable",
      "type": "function"
    },
    {
      "inputs": [
        {
          "internalType": "address",
          "name": "_lpToken",
          "type": "address"
        },
        {
          "internalType": "address",
          "name": "_bonusTokenAddr",
          "type": "address"
        },
        {
          "internalType": "uint256",
          "name": "_weeklyRewards",
          "type": "uint256"
        },
        {
          "internalType": "uint48",
          "name": "_startTime",
          "type": "uint48"
        }
      ],
      "name": "updateBonus",
      "outputs": [],
      "stateMutability": "nonpayable",
      "type": "function"
    },
    {
      "inputs": [
        {
          "internalType": "address",
          "name": "_lpToken",
          "type": "address"
        },
        {
          "internalType": "uint256",
          "name": "_poolBonusId",
          "type": "uint256"
        },
        {
          "internalType": "address",
          "name": "_bonusTokenAddr",
          "type": "address"
        },
        {
          "internalType": "uint256",
          "name": "_transferAmount",
          "type": "uint256"
        }
      ],
      "name": "extendBonus",
      "outputs": [],
      "stateMutability": "nonpayable",
      "type": "function"
    },
    {
      "inputs": [
        {
          "internalType": "address[]",
          "name": "_lpTokens",
          "type": "address[]"
        },
        {
          "internalType": "address[]",
          "name": "_bonusTokenAddrs",
          "type": "address[]"
        },
        {
          "internalType": "address[]",
          "name": "_authorizers",
          "type": "address[]"
        }
      ],
      "name": "addPoolsAndAllowBonus",
      "outputs": [],
      "stateMutability": "nonpayable",
      "type": "function"
    },
    {
      "inputs": [
        {
          "internalType": "address",
          "name": "_token",
          "type": "address"
        },
        {
          "internalType": "address",
          "name": "_lpToken",
          "type": "address"
        },
        {
          "internalType": "uint256",
          "name": "_poolBonusId",
          "type": "uint256"
        }
      ],
      "name": "collectDust",
      "outputs": [],
      "stateMutability": "nonpayable",
      "type": "function"
    },
    {
      "inputs": [
        {
          "internalType": "address[]",
          "name": "_responders",
          "type": "address[]"
        }
      ],
      "name": "setResponders",
      "outputs": [],
      "stateMutability": "nonpayable",
      "type": "function"
    },
    {
      "inputs": [
        {
          "internalType": "bool",
          "name": "_paused",
          "type": "bool"
        }
      ],
      "name": "setPaused",
      "outputs": [],
      "stateMutability": "nonpayable",
      "type": "function"
    },
    {
      "inputs": [
        {
          "internalType": "address",
          "name": "_lpToken",
          "type": "address"
        }
      ],
      "name": "getPool",
      "outputs": [
        {
          "components": [
            {
              "components": [
                {
                  "internalType": "address",
                  "name": "bonusTokenAddr",
                  "type": "address"
                },
                {
                  "internalType": "uint48",
                  "name": "startTime",
                  "type": "uint48"
                },
                {
                  "internalType": "uint48",
                  "name": "endTime",
                  "type": "uint48"
                },
                {
                  "internalType": "uint256",
                  "name": "weeklyRewards",
                  "type": "uint256"
                },
                {
                  "internalType": "uint256",
                  "name": "accRewardsPerToken",
                  "type": "uint256"
                },
                {
                  "internalType": "uint256",
                  "name": "remBonus",
                  "type": "uint256"
                }
              ],
              "internalType": "struct IBonusRewards.Bonus[]",
              "name": "bonuses",
              "type": "tuple[]"
            },
            {
              "internalType": "uint256",
              "name": "lastUpdatedAt",
              "type": "uint256"
            }
          ],
          "internalType": "struct IBonusRewards.Pool",
          "name": "",
          "type": "tuple"
        }
      ],
      "stateMutability": "view",
      "type": "function",
      "constant": true
    },
    {
      "inputs": [
        {
          "internalType": "address",
          "name": "_lpToken",
          "type": "address"
        },
        {
          "internalType": "address",
          "name": "_account",
          "type": "address"
        }
      ],
      "name": "getUser",
      "outputs": [
        {
          "components": [
            {
              "internalType": "uint256",
              "name": "amount",
              "type": "uint256"
            },
            {
              "internalType": "uint256[]",
              "name": "rewardsWriteoffs",
              "type": "uint256[]"
            }
          ],
          "internalType": "struct IBonusRewards.User",
          "name": "",
          "type": "tuple"
        },
        {
          "internalType": "uint256[]",
          "name": "",
          "type": "uint256[]"
        }
      ],
      "stateMutability": "view",
      "type": "function",
      "constant": true
    },
    {
      "inputs": [
        {
          "internalType": "address",
          "name": "_lpToken",
          "type": "address"
        },
        {
          "internalType": "address",
          "name": "_bonusTokenAddr",
          "type": "address"
        }
      ],
      "name": "getAuthorizers",
      "outputs": [
        {
          "internalType": "address[]",
          "name": "",
          "type": "address[]"
        }
      ],
      "stateMutability": "view",
      "type": "function",
      "constant": true
    },
    {
      "inputs": [],
      "name": "getResponders",
      "outputs": [
        {
          "internalType": "address[]",
          "name": "",
          "type": "address[]"
        }
      ],
      "stateMutability": "view",
      "type": "function",
      "constant": true
    },
    {
      "inputs": [
        {
          "internalType": "address",
          "name": "_lpToken",
          "type": "address"
        },
        {
          "internalType": "address",
          "name": "_user",
          "type": "address"
        }
      ],
      "name": "viewRewards",
      "outputs": [
        {
          "internalType": "uint256[]",
          "name": "",
          "type": "uint256[]"
        }
      ],
      "stateMutability": "view",
      "type": "function",
      "constant": true
    },
    {
      "inputs": [],
      "name": "getPoolList",
      "outputs": [
        {
          "internalType": "address[]",
          "name": "",
          "type": "address[]"
        }
      ],
      "stateMutability": "view",
      "type": "function",
      "constant": true
    }
  ],
  "bytecode": "0x60806040523480156200001157600080fd5b506200001c62000022565b62000127565b600054610100900460ff16806200003c575060005460ff16155b620000a45760405162461bcd60e51b815260206004820152602e60248201527f496e697469616c697a61626c653a20636f6e747261637420697320616c72656160448201526d191e481a5b9a5d1a585b1a5e995960921b606482015260840160405180910390fd5b600054610100900460ff16158015620000c7576000805461ffff19166101011790555b6000805462010000600160b01b03191633620100008102919091178255604051909182917f8be0079c531659141344cd1fd0a4f28419497f9722a3daafe3b4186f6b6457e0908290a350801562000124576000805461ff00191690555b50565b613f2780620001376000396000f3fe608060405234801561001057600080fd5b50600436106101375760003560e01c80638c880e02116100b8578063bb10aa991161007c578063bb10aa991461029d578063bbe4f6db146102b0578063bed4df20146102d0578063d41dcbea146102e3578063f2fde38b146102eb578063f3fef3a3146102fe57610137565b80638c880e02146102135780638da5cb5b1461022657806390bde51714610256578063a55c386814610277578063abca8a2e1461028a57610137565b806347e7ef24116100ff57806347e7ef24146101a857806352985ac6146101bb5780635c975abb146101db578063664c0bf9146101f8578063715018a61461020b57610137565b806301c1dfba1461013c57806312faae931461015157806316c38b3c1461016f5780631eaa7a7b146101825780632c43e2ef14610195575b600080fd5b61014f61014a366004613962565b610311565b005b610159610493565b6040516101669190613aff565b60405180910390f35b61014f61017d366004613a38565b6104f5565b61014f61019036600461381b565b61060a565b61014f6101a3366004613962565b61093c565b61014f6101b63660046138f6565b610a96565b6101ce6101c93660046137e9565b610e2c565b6040516101669190613b4c565b6002546101e89060ff1681565b6040519015158152602001610166565b61014f610206366004613962565b6111e9565b61014f611226565b61014f6102213660046139a2565b6112a8565b61023e6000546201000090046001600160a01b031690565b6040516001600160a01b039091168152602001610166565b6102696102643660046137e9565b611593565b604051610166929190613dd5565b61014f61028536600461391f565b611656565b61014f610298366004613856565b611af6565b6101596102ab3660046137e9565b611f28565b6102c36102be3660046137cf565b611fab565b6040516101669190613d35565b61014f6102de3660046138a2565b612096565b6101596126cd565b61014f6102f93660046137cf565b61272d565b61014f61030c3660046138f6565b61282c565b6002600154141561033d5760405162461bcd60e51b815260040161033490613cfe565b60405180910390fd5b600260015560005b8181101561048a5760006006600085858581811061037357634e487b7160e01b600052603260045260246000fd5b905060200201602081019061038891906137cf565b6001600160a01b03168152602080820192909252604090810160009081203382529092528120805491815591506103f38585858181106103d857634e487b7160e01b600052603260045260246000fd5b90506020020160208101906103ed91906137cf565b826129ff565b5084848481811061041457634e487b7160e01b600052603260045260246000fd5b905060200201602081019061042991906137cf565b6001600160a01b0316336001600160a01b03167f9b1bfa7fa9ee420a16e124f794c35ac9f90472acc99140eb2f6447c714cad8eb8360405161046d91815260200190565b60405180910390a35050808061048290613eb2565b915050610345565b50506001805550565b606060038054806020026020016040519081016040528092919081815260200182805480156104eb57602002820191906000526020600020905b81546001600160a01b031681526001909101906020018083116104cd575b5050505050905090565b610558600380548060200260200160405190810160405280929190818152602001828054801561054e57602002820191906000526020600020905b81546001600160a01b03168152600190910190602001808311610530575b5050505050612ac9565b6105af5760405162461bcd60e51b815260206004820152602260248201527f426f6e7573526577617264733a2063616c6c6572206e6f7420726573706f6e6460448201526132b960f11b6064820152608401610334565b6002546040805133815260ff9092161515602083015282151582820152517f866fe552a080815db16f28ae46767888675f2daf5a2507efbcac5ce58ad256f39181900360600190a16002805460ff1916911515919091179055565b6000546001600160a01b036201000090910416331461063b5760405162461bcd60e51b815260040161033490613c86565b6001600160a01b038316600090815260056020526040902060010154156106745760405162461bcd60e51b815260040161033490613c16565b6001600160a01b0383166106a8576106a361069d6000546201000090046001600160a01b031690565b47612b76565b610937565b6040516370a0823160e01b81523060048201526000906001600160a01b038516906370a082319060240160206040518083038186803b1580156106ea57600080fd5b505afa1580156106fe573d6000803e3d6000fd5b505050506040513d601f19601f820116820180604052508101906107229190613a70565b6001600160a01b03851660009081526008602052604090205490915060ff1660011415610909576001600160a01b038316600090815260056020526040812080548490811061078157634e487b7160e01b600052603260045260246000fd5b60009182526020918290206040805160c081018252600490930290910180546001600160a01b0380821680865265ffffffffffff600160a01b8404811697870197909752600160d01b9092049095169284019290925260018101546060840152600281015460808401526003015460a0830152909250908616146108475760405162461bcd60e51b815260206004820152601860248201527f426f6e7573526577617264733a2077726f6e6720706f6f6c00000000000000006044820152606401610334565b4262093a80826040015165ffffffffffff166108639190613e18565b106108b05760405162461bcd60e51b815260206004820152601760248201527f426f6e7573526577617264733a206e6f742072656164790000000000000000006044820152606401610334565b60a08101516001600160a01b038516600090815260056020526040812080549294509091859081106108f257634e487b7160e01b600052603260045260246000fd5b906000526020600020906004020160030181905550505b6109356109246000546201000090046001600160a01b031690565b6001600160a01b0386169083612c8f565b505b505050565b6002600154141561095f5760405162461bcd60e51b815260040161033490613cfe565b600260018190555460ff16156109875760405162461bcd60e51b815260040161033490613c58565b60005b8181101561048a5760008383838181106109b457634e487b7160e01b600052603260045260246000fd5b90506020020160208101906109c991906137cf565b6001600160a01b03811660009081526006602090815260408083203384528252808320815180830183528154815260018201805484518187028101870190955280855296975094959094919385810193929190830182828015610a4b57602002820191906000526020600020905b815481526020019060010190808311610a37575b505050919092525050815191925050610a65575050610a84565b610a6e82612cf2565b610a788282612ed4565b610a81826131a2565b50505b80610a8e81613eb2565b91505061098a565b60026001541415610ab95760405162461bcd60e51b815260040161033490613cfe565b600260018190555460ff1615610ae15760405162461bcd60e51b815260040161033490613c58565b6001600160a01b038216600090815260056020526040902060010154610b495760405162461bcd60e51b815260206004820181905260248201527f426c61636b736d6974683a20706f6f6c20646f6573206e6f74206578697374736044820152606401610334565b6040516370a0823160e01b815233600482015281906001600160a01b038416906370a082319060240160206040518083038186803b158015610b8a57600080fd5b505afa158015610b9e573d6000803e3d6000fd5b505050506040513d601f19601f82011682018060405250810190610bc29190613a70565b1015610c105760405162461bcd60e51b815260206004820181905260248201527f426c61636b736d6974683a20696e73756666696369656e742062616c616e63656044820152606401610334565b610c1982612cf2565b6001600160a01b038216600090815260066020908152604080832033845282529182902082518084018452815481526001820180548551818602810186019096528086529294610cac94889487938583019392909190830182828015610c9e57602002820191906000526020600020905b815481526020019060010190808311610c8a575b505050505081525050612ed4565b6040516370a0823160e01b815230600482015283906000906001600160a01b038316906370a082319060240160206040518083038186803b158015610cf057600080fd5b505afa158015610d04573d6000803e3d6000fd5b505050506040513d601f19601f82011682018060405250810190610d289190613a70565b9050610d3f6001600160a01b0383163330876133a2565b6040516370a0823160e01b815230600482015260009082906001600160a01b038516906370a082319060240160206040518083038186803b158015610d8357600080fd5b505afa158015610d97573d6000803e3d6000fd5b505050506040513d601f19601f82011682018060405250810190610dbb9190613a70565b610dc59190613e6f565b8454909150610dd5908290613e18565b8455610de0866131a2565b6040518181526001600160a01b0387169033907f5548c837ab068cf56a2c2479df0882a4922fd203edb7517321831d95078c5f629060200160405180910390a350506001805550505050565b6001600160a01b038216600090815260056020908152604080832081518154938402810160609081018452928101848152929493909283918390868489015b82821015610eee5760008481526020908190206040805160c0810182526004860290920180546001600160a01b038116845265ffffffffffff600160a01b8204811685870152600160d01b909104169183019190915260018082015460608401526002820154608084015260039091015460a08301529083529092019101610e6b565b505050908252506001918201546020918201526001600160a01b0380881660009081526006835260408082209289168252918352818120825180840184528154815294810180548451818702810187019095528085529697509195909385810193929190830182828015610f8157602002820191906000526020600020905b815481526020019060010190808311610f6d575b5050505050815250509050600082600001515167ffffffffffffffff811115610fba57634e487b7160e01b600052604160045260246000fd5b604051908082528060200260200182016040528015610fe3578160200160208202803683370190505b508251909150610ff75792506111e3915050565b60208201515160005b82518110156111db5760008560000151828151811061102f57634e487b7160e01b600052603260045260246000fd5b6020026020010151905042816020015165ffffffffffff16108015611058575060008160a00151115b156111c8576040516370a0823160e01b81523060048201526000906001600160a01b038b16906370a082319060240160206040518083038186803b15801561109f57600080fd5b505afa1580156110b3573d6000803e3d6000fd5b505050506040513d601f19601f820116820180604052508101906110d79190613a70565b905060006110e98389602001516133da565b905060006110f78383613e30565b84608001516111069190613e18565b9050600085871115611143578860200151868151811061113657634e487b7160e01b600052603260045260246000fd5b6020026020010151611146565b60005b90506000816c0c9f2c9cd04674edea40000000848c600001516111699190613e50565b6111739190613e30565b61117d9190613e6f565b90508560a001518110611194578560a00151611196565b805b8988815181106111b657634e487b7160e01b600052603260045260246000fd5b60200260200101818152505050505050505b50806111d381613eb2565b915050611000565b509093505050505b92915050565b6000546001600160a01b036201000090910416331461121a5760405162461bcd60e51b815260040161033490613c86565b610937600383836136e7565b6000546001600160a01b03620100009091041633146112575760405162461bcd60e51b815260040161033490613c86565b60008054604051620100009091046001600160a01b0316907f8be0079c531659141344cd1fd0a4f28419497f9722a3daafe3b4186f6b6457e0908390a36000805462010000600160b01b0319169055565b6000546001600160a01b03620100009091041633146112d95760405162461bcd60e51b815260040161033490613c86565b60025460ff16156112fc5760405162461bcd60e51b815260040161033490613c58565b4260005b8681101561158957600088888381811061132a57634e487b7160e01b600052603260045260246000fd5b905060200201602081019061133f91906137cf565b90506012816001600160a01b031663313ce5676040518163ffffffff1660e01b815260040160206040518083038186803b15801561137c57600080fd5b505afa158015611390573d6000803e3d6000fd5b505050506040513d601f19601f820116820180604052508101906113b49190613a88565b60ff1611156114115760405162461bcd60e51b815260206004820152602360248201527f426f6e7573526577617264733a206c70746f6b656e20646563696d616c73203e60448201526204062760eb1b6064820152608401610334565b6001600160a01b038116600090815260056020526040902060010154611491576001600160a01b038116600081815260056020526040812060019081018690556004805491820181559091527f8a35acfbc15ff81a39ae7d344fd709f28e8600b4aa8c65c6b64bfe7fe36bd19b0180546001600160a01b03191690911790555b60005b868110156115745760008888838181106114be57634e487b7160e01b600052603260045260246000fd5b90506020020160208101906114d391906137cf565b6001600160a01b0381166000908152600560205260409020600101549091501561150f5760405162461bcd60e51b815260040161033490613c16565b6001600160a01b03808416600090815260076020908152604080832093851683529290522061153f9088886136e7565b506001600160a01b03166000908152600860205260409020805460ff191660011790558061156c81613eb2565b915050611494565b5050808061158190613eb2565b915050611300565b5050505050505050565b6040805180820190915260008152606060208201526001600160a01b0380841660009081526006602090815260408083209386168352929052206060906115da8585610e2c565b81604051806040016040529081600082015481526020016001820180548060200260200160405190810160405280929190818152602001828054801561163f57602002820191906000526020600020905b81548152602001906001019080831161162b575b5050505050815250509150915091505b9250929050565b600260015414156116795760405162461bcd60e51b815260040161033490613cfe565b600260018190555460ff16156116a15760405162461bcd60e51b815260040161033490613c58565b6001600160a01b0380851660009081526007602090815260408083209386168352928152908290208054835181840281018401909452808452611720939283018282801561054e576020028201919060005260206000209081546001600160a01b03168152600190910190602001808311610530575050505050612ac9565b61173c5760405162461bcd60e51b815260040161033490613cbb565b6001600160a01b038416600090815260056020526040812080548590811061177457634e487b7160e01b600052603260045260246000fd5b60009182526020918290206040805160c081018252600490930290910180546001600160a01b0380821680865265ffffffffffff600160a01b8404811697870197909752600160d01b9092049095169284019290925260018101546060840152600281015460808401526003015460a0830152909250908416146118485760405162461bcd60e51b815260206004820152602560248201527f426f6e7573526577617264733a20626f6e757320616e6420696420646f6e74206044820152640dac2e8c6d60db1b6064820152608401610334565b42816040015165ffffffffffff16116118c95760405162461bcd60e51b815260206004820152603960248201527f426f6e7573526577617264733a20626f6e75732070726f6772616d20656e646560448201527f642c20706c656173652073746172742061206e6577206f6e65000000000000006064820152608401610334565b6040516370a0823160e01b815230600482015283906000906001600160a01b038316906370a082319060240160206040518083038186803b15801561190d57600080fd5b505afa158015611921573d6000803e3d6000fd5b505050506040513d601f19601f820116820180604052508101906119459190613a70565b905061195c6001600160a01b0383163330876133a2565b6040516370a0823160e01b815230600482015260009082906001600160a01b038516906370a082319060240160206040518083038186803b1580156119a057600080fd5b505afa1580156119b4573d6000803e3d6000fd5b505050506040513d601f19601f820116820180604052508101906119d89190613a70565b6119e29190613e6f565b90506000846040015165ffffffffffff16856060015162093a8084611a079190613e50565b611a119190613e30565b611a1b9190613e18565b6001600160a01b038a166000908152600560205260409020805491925082918a908110611a5857634e487b7160e01b600052603260045260246000fd5b9060005260206000209060040201600001601a6101000a81548165ffffffffffff021916908365ffffffffffff160217905550818560a00151611a9b9190613e18565b6001600160a01b038a16600090815260056020526040902080548a908110611ad357634e487b7160e01b600052603260045260246000fd5b600091825260209091206003600490920201015550506001805550505050505050565b60026001541415611b195760405162461bcd60e51b815260040161033490613cfe565b600260018190555460ff1615611b415760405162461bcd60e51b815260040161033490613c58565b6001600160a01b0380851660009081526007602090815260408083209387168352928152908290208054835181840281018401909452808452611bc0939283018282801561054e576020028201919060005260206000209081546001600160a01b03168152600190910190602001808311610530575050505050612ac9565b611bdc5760405162461bcd60e51b815260040161033490613cbb565b65ffffffffffff81161580611bf85750428165ffffffffffff16115b611c145760405162461bcd60e51b815260040161033490613b92565b6001600160a01b0384166000908152600560209081526040808320815181546060948102820185018452928101838152909391928492849190879085015b82821015611cd55760008481526020908190206040805160c0810182526004860290920180546001600160a01b038116845265ffffffffffff600160a01b8204811685870152600160d01b909104169183019190915260018082015460608401526002820154608084015260039091015460a08301529083529092019101611c52565b50505050815260200160018201548152505090506000816020015111611d0d5760405162461bcd60e51b815260040161033490613bd5565b805160005b8151811015611f1b57856001600160a01b0316828281518110611d4557634e487b7160e01b600052603260045260246000fd5b6020026020010151600001516001600160a01b0316148015611d99575042828281518110611d8357634e487b7160e01b600052603260045260246000fd5b60200260200101516040015165ffffffffffff16115b15611f09576001600160a01b0387166000908152600560205260408120805483908110611dd657634e487b7160e01b600052603260045260246000fd5b90600052602060002090600402019050611def88612cf2565b805442600160a01b90910465ffffffffffff1610611e9957428565ffffffffffff1610611e3757805465ffffffffffff60a01b1916600160a01b65ffffffffffff8716021781555b80546003820154600160a01b90910465ffffffffffff16908790611e5f9062093a8090613e50565b611e699190613e30565b611e739190613e18565b815465ffffffffffff91909116600160d01b026001600160d01b03909116178155611f02565b6001810154815460009190611ebe904290600160d01b900465ffffffffffff16613e6f565b611ec89190613e50565b905042611ed58883613e30565b611edf9190613e18565b825465ffffffffffff91909116600160d01b026001600160d01b03909116178255505b6001018590555b80611f1381613eb2565b915050611d12565b5050600180555050505050565b6001600160a01b038083166000908152600760209081526040808320938516835292815290829020805483518184028101840190945280845260609392830182828015611f9e57602002820191906000526020600020905b81546001600160a01b03168152600190910190602001808311611f80575b5050505050905092915050565b6040805180820182526060808252600060208084018290526001600160a01b038616825260058152848220855181549283028101850187529586018281529495949093859391928592909185015b8282101561207c5760008481526020908190206040805160c0810182526004860290920180546001600160a01b038116845265ffffffffffff600160a01b8204811685870152600160d01b909104169183019190915260018082015460608401526002820154608084015260039091015460a08301529083529092019101611ff9565b50505050815260200160018201548152505090505b919050565b600260015414156120b95760405162461bcd60e51b815260040161033490613cfe565b600260018190555460ff16156120e15760405162461bcd60e51b815260040161033490613c58565b6001600160a01b0380861660009081526007602090815260408083209388168352928152908290208054835181840281018401909452808452612160939283018282801561054e576020028201919060005260206000209081546001600160a01b03168152600190910190602001808311610530575050505050612ac9565b61217c5760405162461bcd60e51b815260040161033490613cbb565b428365ffffffffffff1610156121a45760405162461bcd60e51b815260040161033490613b92565b6001600160a01b0385166000908152600560209081526040808320815181546060948102820185018452928101838152909391928492849190879085015b828210156122655760008481526020908190206040805160c0810182526004860290920180546001600160a01b038116845265ffffffffffff600160a01b8204811685870152600160d01b909104169183019190915260018082015460608401526002820154608084015260039091015460a083015290835290920191016121e2565b5050505081526020016001820154815250509050600081602001511161229d5760405162461bcd60e51b815260040161033490613bd5565b805160005b815181101561243357866001600160a01b03168282815181106122d557634e487b7160e01b600052603260045260246000fd5b6020026020010151600001516001600160a01b03161415612421574262093a8083838151811061231557634e487b7160e01b600052603260045260246000fd5b60200260200101516040015165ffffffffffff166123339190613e18565b106123955760405162461bcd60e51b815260206004820152602c60248201527f426f6e7573526577617264733a206c61737420626f6e757320706572696f642060448201526b1a185cdb89dd08195b99195960a21b6064820152608401610334565b8181815181106123b557634e487b7160e01b600052603260045260246000fd5b602002602001015160a001516000146124215760405162461bcd60e51b815260206004820152602860248201527f426f6e7573526577617264733a206c61737420626f6e7573206e6f7420616c6c6044820152670818db185a5b595960c21b6064820152608401610334565b8061242b81613eb2565b9150506122a2565b506040516370a0823160e01b815230600482015286906000906001600160a01b038316906370a082319060240160206040518083038186803b15801561247857600080fd5b505afa15801561248c573d6000803e3d6000fd5b505050506040513d601f19601f820116820180604052508101906124b09190613a70565b90506124c76001600160a01b0383163330886133a2565b6040516370a0823160e01b815230600482015260009082906001600160a01b038516906370a082319060240160206040518083038186803b15801561250b57600080fd5b505afa15801561251f573d6000803e3d6000fd5b505050506040513d601f19601f820116820180604052508101906125439190613a70565b61254d9190613e6f565b9050600065ffffffffffff89168861256862093a8085613e50565b6125729190613e30565b61257c9190613e18565b9050600560008c6001600160a01b03166001600160a01b031681526020019081526020016000206000016040518060c001604052808c6001600160a01b031681526020018b65ffffffffffff1681526020018365ffffffffffff1681526020018a81526020016000815260200184815250908060018154018082558091505060019003906000526020600020906004020160009091909190915060008201518160000160006101000a8154816001600160a01b0302191690836001600160a01b0316021790555060208201518160000160146101000a81548165ffffffffffff021916908365ffffffffffff160217905550604082015181600001601a6101000a81548165ffffffffffff021916908365ffffffffffff160217905550606082015181600101556080820151816002015560a082015181600301555050505050505050600180819055505050505050565b606060048054806020026020016040519081016040528092919081815260200182805480156104eb576020028201919060005260206000209081546001600160a01b031681526001909101906020018083116104cd575050505050905090565b6000546001600160a01b036201000090910416331461275e5760405162461bcd60e51b815260040161033490613c86565b6001600160a01b0381166127c35760405162461bcd60e51b815260206004820152602660248201527f4f776e61626c653a206e6577206f776e657220697320746865207a65726f206160448201526564647265737360d01b6064820152608401610334565b600080546040516001600160a01b03808516936201000090930416917f8be0079c531659141344cd1fd0a4f28419497f9722a3daafe3b4186f6b6457e091a3600080546001600160a01b03909216620100000262010000600160b01b0319909216919091179055565b6002600154141561284f5760405162461bcd60e51b815260040161033490613cfe565b600260018190555460ff16156128775760405162461bcd60e51b815260040161033490613c58565b6001600160a01b0382166000908152600560205260409020600101546128df5760405162461bcd60e51b815260206004820181905260248201527f426c61636b736d6974683a20706f6f6c20646f6573206e6f74206578697374736044820152606401610334565b6128e882612cf2565b6001600160a01b03821660009081526006602090815260408083203384528252918290208251808401845281548152600182018054855181860281018601909652808652929461297994889487938583019392909190830182828015610c9e5760200282019190600052602060002090815481526020019060010190808311610c8a57505050505081525050612ed4565b60008282600001541161298d57815461298f565b825b825490915061299f908290613e6f565b82556129aa846131a2565b6129b484826129ff565b506040518181526001600160a01b0385169033907f9b1bfa7fa9ee420a16e124f794c35ac9f90472acc99140eb2f6447c714cad8eb9060200160405180910390a35050600180555050565b6040516370a0823160e01b8152306004820152600090839082906001600160a01b038316906370a082319060240160206040518083038186803b158015612a4557600080fd5b505afa158015612a59573d6000803e3d6000fd5b505050506040513d601f19601f82011682018060405250810190612a7d9190613a70565b905083811115612aa357612a9b6001600160a01b0383163386612c8f565b839250612ac1565b8015612ac157612abd6001600160a01b0383163383612c8f565b8092505b505092915050565b6000612ae36000546201000090046001600160a01b031690565b6001600160a01b0316336001600160a01b03161415612b0457506001612091565b60005b8251811015612b6d57828181518110612b3057634e487b7160e01b600052603260045260246000fd5b60200260200101516001600160a01b0316336001600160a01b03161415612b5b576001915050612091565b80612b6581613eb2565b915050612b07565b50600092915050565b80471015612bc65760405162461bcd60e51b815260206004820152601d60248201527f416464726573733a20696e73756666696369656e742062616c616e63650000006044820152606401610334565b6000826001600160a01b03168260405160006040518083038185875af1925050503d8060008114612c13576040519150601f19603f3d011682016040523d82523d6000602084013e612c18565b606091505b50509050806109375760405162461bcd60e51b815260206004820152603a60248201527f416464726573733a20756e61626c6520746f2073656e642076616c75652c207260448201527f6563697069656e74206d617920686176652072657665727465640000000000006064820152608401610334565b6040516001600160a01b03831660248201526044810182905261093790849063a9059cbb60e01b906064015b60408051601f198184030181529190526020810180516001600160e01b03166001600160e01b03199093169290921790915261349b565b6001600160a01b03811660009081526005602052604090206001810154801580612d1c5750804211155b15612d28575050612ed1565b4260018301556040516370a0823160e01b81523060048201526000906001600160a01b038516906370a082319060240160206040518083038186803b158015612d7057600080fd5b505afa158015612d84573d6000803e3d6000fd5b505050506040513d601f19601f82011682018060405250810190612da89190613a70565b905080612db757505050612ed1565b60005b8354811015612ecc576000846000018281548110612de857634e487b7160e01b600052603260045260246000fd5b600091825260209091206004909102018054909150600160d01b900465ffffffffffff1684108015612e2a5750805442600160a01b90910465ffffffffffff16105b15612eb9576040805160c08101825282546001600160a01b038116825265ffffffffffff600160a01b820481166020840152600160d01b90910416918101919091526001820154606082015260028201546080820152600382015460a0820152600090612e9790866133da565b9050612ea38482613e30565b8260020154612eb29190613e18565b6002830155505b5080612ec481613eb2565b915050612dba565b505050505b50565b8051612edf5761319e565b602080820151516001600160a01b03841660009081526005835260408082208054825181870281018701909352808352939492939192909190849084015b82821015612fa05760008481526020908190206040805160c0810182526004860290920180546001600160a01b038116845265ffffffffffff600160a01b8204811685870152600160d01b909104169183019190915260018082015460608401526002820154608084015260039091015460a08301529083529092019101612f1d565b50505050905060005b8151811015612ecc57600081841115612fed5784602001518281518110612fe057634e487b7160e01b600052603260045260246000fd5b6020026020010151612ff0565b60005b90506000816c0c9f2c9cd04674edea4000000085858151811061302357634e487b7160e01b600052603260045260246000fd5b602002602001015160800151886000015161303e9190613e50565b6130489190613e30565b6130529190613e6f565b905060008185858151811061307757634e487b7160e01b600052603260045260246000fd5b602002602001015160a001511061308e57816130bb565b8484815181106130ae57634e487b7160e01b600052603260045260246000fd5b602002602001015160a001515b9050806130ca5750505061318c565b60006131018686815181106130ef57634e487b7160e01b600052603260045260246000fd5b602002602001015160000151836129ff565b90508086868151811061312457634e487b7160e01b600052603260045260246000fd5b602002602001015160a0015161313a9190613e6f565b6001600160a01b038a16600090815260056020526040902080548790811061317257634e487b7160e01b600052603260045260246000fd5b906000526020600020906004020160030181905550505050505b8061319681613eb2565b915050612fa9565b5050565b6001600160a01b038116600090815260056020908152604080832080548251818502810185019093528083529192909190849084015b8282101561325b5760008481526020908190206040805160c0810182526004860290920180546001600160a01b038116845265ffffffffffff600160a01b8204811685870152600160d01b909104169183019190915260018082015460608401526002820154608084015260039091015460a083015290835290920191016131d8565b505050506001600160a01b038316600090815260066020908152604080832033845290915281209192505b825181101561093557600182015481141561330d57816001016c0c9f2c9cd04674edea400000008483815181106132cd57634e487b7160e01b600052603260045260246000fd5b60200260200101516080015184600001546132e89190613e50565b6132f29190613e30565b81546001810183556000928352602090922090910155613390565b6c0c9f2c9cd04674edea4000000083828151811061333b57634e487b7160e01b600052603260045260246000fd5b60200260200101516080015183600001546133569190613e50565b6133609190613e30565b82600101828154811061338357634e487b7160e01b600052603260045260246000fd5b6000918252602090912001555b8061339a81613eb2565b915050613286565b6040516001600160a01b03808516602483015283166044820152606481018290526109359085906323b872dd60e01b90608401612cbb565b600081836040015165ffffffffffff16116133f7575060006111e3565b6000836040015165ffffffffffff1642116134125742613420565b836040015165ffffffffffff165b90506000846020015165ffffffffffff16841161344957846020015165ffffffffffff1661344b565b835b905060006134598284613e6f565b905062093a80816c0c9f2c9cd04674edea40000000886060015161347d9190613e50565b6134879190613e50565b6134919190613e30565b9695505050505050565b60006134f0826040518060400160405280602081526020017f5361666545524332303a206c6f772d6c6576656c2063616c6c206661696c6564815250856001600160a01b031661356d9092919063ffffffff16565b805190915015610937578080602001905181019061350e9190613a54565b6109375760405162461bcd60e51b815260206004820152602a60248201527f5361666545524332303a204552433230206f7065726174696f6e20646964206e6044820152691bdd081cdd58d8d9595960b21b6064820152608401610334565b606061357c8484600085613586565b90505b9392505050565b6060824710156135e75760405162461bcd60e51b815260206004820152602660248201527f416464726573733a20696e73756666696369656e742062616c616e636520666f6044820152651c8818d85b1b60d21b6064820152608401610334565b843b6136355760405162461bcd60e51b815260206004820152601d60248201527f416464726573733a2063616c6c20746f206e6f6e2d636f6e74726163740000006044820152606401610334565b600080866001600160a01b031685876040516136519190613ae3565b60006040518083038185875af1925050503d806000811461368e576040519150601f19603f3d011682016040523d82523d6000602084013e613693565b606091505b50915091506136a38282866136ae565b979650505050505050565b606083156136bd57508161357f565b8251156136cd5782518084602001fd5b8160405162461bcd60e51b81526004016103349190613b5f565b82805482825590600052602060002090810192821561373a579160200282015b8281111561373a5781546001600160a01b0319166001600160a01b03843516178255602090920191600190910190613707565b5061374692915061374a565b5090565b5b80821115613746576000815560010161374b565b80356001600160a01b038116811461209157600080fd5b60008083601f840112613787578182fd5b50813567ffffffffffffffff81111561379e578182fd5b6020830191508360208260051b850101111561164f57600080fd5b803565ffffffffffff8116811461209157600080fd5b6000602082840312156137e0578081fd5b61357f8261375f565b600080604083850312156137fb578081fd5b6138048361375f565b91506138126020840161375f565b90509250929050565b60008060006060848603121561382f578081fd5b6138388461375f565b92506138466020850161375f565b9150604084013590509250925092565b6000806000806080858703121561386b578081fd5b6138748561375f565b93506138826020860161375f565b925060408501359150613897606086016137b9565b905092959194509250565b600080600080600060a086880312156138b9578081fd5b6138c28661375f565b94506138d06020870161375f565b93506138de604087016137b9565b94979396509394606081013594506080013592915050565b60008060408385031215613908578182fd5b6139118361375f565b946020939093013593505050565b60008060008060808587031215613934578384fd5b61393d8561375f565b9350602085013592506139526040860161375f565b9396929550929360600135925050565b60008060208385031215613974578182fd5b823567ffffffffffffffff81111561398a578283fd5b61399685828601613776565b90969095509350505050565b600080600080600080606087890312156139ba578081fd5b863567ffffffffffffffff808211156139d1578283fd5b6139dd8a838b01613776565b909850965060208901359150808211156139f5578283fd5b613a018a838b01613776565b90965094506040890135915080821115613a19578283fd5b50613a2689828a01613776565b979a9699509497509295939492505050565b600060208284031215613a49578081fd5b813561357f81613ee3565b600060208284031215613a65578081fd5b815161357f81613ee3565b600060208284031215613a81578081fd5b5051919050565b600060208284031215613a99578081fd5b815160ff8116811461357f578182fd5b6000815180845260208085019450808401835b83811015613ad857815187529582019590820190600101613abc565b509495945050505050565b60008251613af5818460208701613e86565b9190910192915050565b6020808252825182820181905260009190848201906040850190845b81811015613b405783516001600160a01b031683529284019291840191600101613b1b565b50909695505050505050565b60006020825261357f6020830184613aa9565b6000602082528251806020840152613b7e816040850160208701613e86565b601f01601f19169190910160400192915050565b60208082526023908201527f426f6e7573526577617264733a20737461727454696d6520696e207468652070604082015262185cdd60ea1b606082015260800190565b60208082526021908201527f426f6e7573526577617264733a20706f6f6c20646f6573206e6f7420657869736040820152601d60fa1b606082015260800190565b60208082526022908201527f426f6e7573526577617264733a206c70546f6b656e2c206e6f7420616c6c6f77604082015261195960f21b606082015260800190565b602080825260149082015273109bdb9d5cd4995dd85c991cce881c185d5cd95960621b604082015260600190565b6020808252818101527f4f776e61626c653a2063616c6c6572206973206e6f7420746865206f776e6572604082015260600190565b60208082526023908201527f426f6e7573526577617264733a206e6f7420617574686f72697a65642063616c6040820152623632b960e91b606082015260800190565b6020808252601f908201527f5265656e7472616e637947756172643a207265656e7472616e742063616c6c00604082015260600190565b6000602080835260608084018551604080858801528282518085526080945084890191508684019350875b81811015613dbe57845180516001600160a01b031684528881015165ffffffffffff9081168a8601528582015116858501528781015188850152868101518785015260a090810151908401529387019360c090920191600101613d60565b505094909701519590960194909452509392505050565b60006040825283516040830152602084015160406060840152613dfb6080840182613aa9565b90508281036020840152613e0f8185613aa9565b95945050505050565b60008219821115613e2b57613e2b613ecd565b500190565b600082613e4b57634e487b7160e01b81526012600452602481fd5b500490565b6000816000190483118215151615613e6a57613e6a613ecd565b500290565b600082821015613e8157613e81613ecd565b500390565b60005b83811015613ea1578181015183820152602001613e89565b838111156109355750506000910152565b6000600019821415613ec657613ec6613ecd565b5060010190565b634e487b7160e01b600052601160045260246000fd5b8015158114612ed157600080fdfea264697066735822122067c8237b5953e86168f2bf2d3e8995f8b75a89ab67177c6d8929b44830e0877964736f6c63430008030033",
  "immutableReferences": {},
  "source": "// SPDX-License-Identifier: NONE\n\npragma solidity ^0.8.0;\n\nimport \"@openzeppelin/contracts/utils/Address.sol\";\nimport \"./ERC20/SafeERC20.sol\";\nimport \"./utils/Ownable.sol\";\nimport \"./utils/ReentrancyGuard.sol\";\nimport \"./interfaces/IBonusRewards.sol\";\n\n/**\n * @title Bonus Token Rewards contract\n * @author crypto-pumpkin\n * @notice BNB is not allowed to be an bonus token, use wBNB instead\n * @notice We support multiple bonus tokens for each pool. However, each pool will have 1 bonus token normally, may have 2 in rare cases\n */\ncontract BonusRewards is IBonusRewards, Ownable, ReentrancyGuard {\n  using SafeERC20 for IERC20;\n\n  bool public paused;\n  uint256 private constant WEEK = 7 days;\n  // help calculate rewards/bonus PerToken only. 1e12 will allow meaningful $1 deposit in a $1bn pool  \n  uint256 private constant CAL_MULTIPLIER = 1e30;\n  // use array to allow convinient replacement. Size of responders should be very small to 0 till a reputible responder multi-sig within DeFi or Yearn ecosystem is established\n  address[] private responders;\n  address[] private poolList;\n  // lpToken => Pool\n  mapping(address => Pool) private pools;\n  // lpToken => User address => User data\n  mapping(address => mapping(address => User)) private users;\n  // use array to allow convinient replacement. Size of Authorizers should be very small (one or two partner addresses for the pool and bonus)\n  // lpToken => bonus token => [] allowed authorizers to add bonus tokens\n  mapping(address => mapping(address => address[])) private allowedTokenAuthorizers;\n  // bonusTokenAddr => 1, used to avoid collecting bonus token when not ready\n  mapping(address => uint8) private bonusTokenAddrMap;\n\n  modifier notPaused() {\n    require(!paused, \"BonusRewards: paused\");\n    _;\n  }\n\n  constructor () {\n    initializeOwner();\n  }\n\n  function claimRewardsForPools(address[] calldata _lpTokens) external override nonReentrant notPaused {\n    for (uint256 i = 0; i < _lpTokens.length; i++) {\n      address lpToken = _lpTokens[i];\n      User memory user = users[lpToken][msg.sender];\n      if (user.amount == 0) continue;\n      _updatePool(lpToken);\n      _claimRewards(lpToken, user);\n      _updateUserWriteoffs(lpToken);\n    }\n  }\n\n  function deposit(address _lpToken, uint256 _amount) external override nonReentrant notPaused {\n    require(pools[_lpToken].lastUpdatedAt > 0, \"Blacksmith: pool does not exists\");\n    require(IERC20(_lpToken).balanceOf(msg.sender) >= _amount, \"Blacksmith: insufficient balance\");\n\n    _updatePool(_lpToken);\n    User storage user = users[_lpToken][msg.sender];\n    _claimRewards(_lpToken, user);\n\n    IERC20 token = IERC20(_lpToken);\n    uint256 balanceBefore = token.balanceOf(address(this));\n    token.safeTransferFrom(msg.sender, address(this), _amount);\n    uint256 received = token.balanceOf(address(this)) - balanceBefore;\n\n    user.amount = user.amount + received;\n    _updateUserWriteoffs(_lpToken);\n    emit Deposit(msg.sender, _lpToken, received);\n  }\n\n  /// @notice withdraw up to all user deposited\n  function withdraw(address _lpToken, uint256 _amount) external override nonReentrant notPaused {\n    require(pools[_lpToken].lastUpdatedAt > 0, \"Blacksmith: pool does not exists\");\n    _updatePool(_lpToken);\n\n    User storage user = users[_lpToken][msg.sender];\n    _claimRewards(_lpToken, user);\n    uint256 amount = user.amount > _amount ? _amount : user.amount;\n    user.amount = user.amount - amount;\n    _updateUserWriteoffs(_lpToken);\n\n    _safeTransfer(_lpToken, amount);\n    emit Withdraw(msg.sender, _lpToken, amount);\n  }\n\n  /// @notice withdraw all without rewards\n  function emergencyWithdraw(address[] calldata _lpTokens) external override nonReentrant {\n    for (uint256 i = 0; i < _lpTokens.length; i++) {\n      User storage user = users[_lpTokens[i]][msg.sender];\n      uint256 amount = user.amount;\n      user.amount = 0;\n      _safeTransfer(_lpTokens[i], amount);\n      emit Withdraw(msg.sender, _lpTokens[i], amount);\n    }\n  }\n\n  /// @notice called by authorizers only\n  function addBonus(\n    address _lpToken,\n    address _bonusTokenAddr,\n    uint48 _startTime,\n    uint256 _weeklyRewards,\n    uint256 _transferAmount\n  ) external override nonReentrant notPaused {\n    require(_isAuthorized(allowedTokenAuthorizers[_lpToken][_bonusTokenAddr]), \"BonusRewards: not authorized caller\");\n    require(_startTime >= block.timestamp, \"BonusRewards: startTime in the past\");\n\n    // make sure the pool is in the right state (exist with no active bonus at the moment) to add new bonus tokens\n    Pool memory pool = pools[_lpToken];\n    require(pool.lastUpdatedAt > 0, \"BonusRewards: pool does not exist\");\n    Bonus[] memory bonuses = pool.bonuses;\n    for (uint256 i = 0; i < bonuses.length; i++) {\n      if (bonuses[i].bonusTokenAddr == _bonusTokenAddr) {\n        // when there is alreay a bonus program with the same bonus token, make sure the program has ended properly\n        require(bonuses[i].endTime + WEEK < block.timestamp, \"BonusRewards: last bonus period hasn't ended\");\n        require(bonuses[i].remBonus == 0, \"BonusRewards: last bonus not all claimed\");\n      }\n    }\n\n    IERC20 bonusTokenAddr = IERC20(_bonusTokenAddr);\n    uint256 balanceBefore = bonusTokenAddr.balanceOf(address(this));\n    bonusTokenAddr.safeTransferFrom(msg.sender, address(this), _transferAmount);\n    uint256 received = bonusTokenAddr.balanceOf(address(this)) - balanceBefore;\n    // endTime is based on how much tokens transfered v.s. planned weekly rewards\n    uint48 endTime = uint48(received * WEEK / _weeklyRewards + _startTime);\n\n    pools[_lpToken].bonuses.push(Bonus({\n      bonusTokenAddr: _bonusTokenAddr,\n      startTime: _startTime,\n      endTime: endTime,\n      weeklyRewards: _weeklyRewards,\n      accRewardsPerToken: 0,\n      remBonus: received\n    }));\n  }\n\n  /// @notice called by authorizers only, update weeklyRewards (if not ended), or update startTime (only if rewards not started, 0 is ignored)\n  function updateBonus(\n    address _lpToken,\n    address _bonusTokenAddr,\n    uint256 _weeklyRewards,\n    uint48 _startTime\n  ) external override nonReentrant notPaused {\n    require(_isAuthorized(allowedTokenAuthorizers[_lpToken][_bonusTokenAddr]), \"BonusRewards: not authorized caller\");\n    require(_startTime == 0 || _startTime > block.timestamp, \"BonusRewards: startTime in the past\");\n\n    // make sure the pool is in the right state (exist with no active bonus at the moment) to add new bonus tokens\n    Pool memory pool = pools[_lpToken];\n    require(pool.lastUpdatedAt > 0, \"BonusRewards: pool does not exist\");\n    Bonus[] memory bonuses = pool.bonuses;\n    for (uint256 i = 0; i < bonuses.length; i++) {\n      if (bonuses[i].bonusTokenAddr == _bonusTokenAddr && bonuses[i].endTime > block.timestamp) {\n        Bonus storage bonus = pools[_lpToken].bonuses[i];\n        _updatePool(_lpToken); // update pool with old weeklyReward to this block\n        if (bonus.startTime >= block.timestamp) {\n          // only honor new start time, if program has not started\n          if (_startTime >= block.timestamp) {\n            bonus.startTime = _startTime;\n          }\n          bonus.endTime = uint48(bonus.remBonus * WEEK / _weeklyRewards + bonus.startTime);\n        } else {\n          // remaining bonus to distribute * week\n          uint256 remBonusToDistribute = (bonus.endTime - block.timestamp) * bonus.weeklyRewards;\n          bonus.endTime = uint48(remBonusToDistribute / _weeklyRewards + block.timestamp);\n        }\n        bonus.weeklyRewards = _weeklyRewards;\n      }\n    }\n  }\n\n  /// @notice extend the current bonus program, the program has to be active (endTime is in the future)\n  function extendBonus(\n    address _lpToken,\n    uint256 _poolBonusId,\n    address _bonusTokenAddr,\n    uint256 _transferAmount\n  ) external override nonReentrant notPaused {\n    require(_isAuthorized(allowedTokenAuthorizers[_lpToken][_bonusTokenAddr]), \"BonusRewards: not authorized caller\");\n\n    Bonus memory bonus = pools[_lpToken].bonuses[_poolBonusId];\n    require(bonus.bonusTokenAddr == _bonusTokenAddr, \"BonusRewards: bonus and id dont match\");\n    require(bonus.endTime > block.timestamp, \"BonusRewards: bonus program ended, please start a new one\");\n\n    IERC20 bonusTokenAddr = IERC20(_bonusTokenAddr);\n    uint256 balanceBefore = bonusTokenAddr.balanceOf(address(this));\n    bonusTokenAddr.safeTransferFrom(msg.sender, address(this), _transferAmount);\n    uint256 received = bonusTokenAddr.balanceOf(address(this)) - balanceBefore;\n    // endTime is based on how much tokens transfered v.s. planned weekly rewards\n    uint48 endTime = uint48(received * WEEK / bonus.weeklyRewards + bonus.endTime);\n\n    pools[_lpToken].bonuses[_poolBonusId].endTime = endTime;\n    pools[_lpToken].bonuses[_poolBonusId].remBonus = bonus.remBonus + received;\n  }\n\n  /// @notice add pools and authorizers to add bonus tokens for pools, combine two calls into one. Only reason we add pools is when bonus tokens will be added\n  function addPoolsAndAllowBonus(\n    address[] calldata _lpTokens,\n    address[] calldata _bonusTokenAddrs,\n    address[] calldata _authorizers\n  ) external override onlyOwner notPaused {\n    // add pools\n    uint256 currentTime = block.timestamp;\n    for (uint256 i = 0; i < _lpTokens.length; i++) {\n      address _lpToken = _lpTokens[i];\n      require(IERC20(_lpToken).decimals() <= 18, \"BonusRewards: lptoken decimals > 18\");\n      if (pools[_lpToken].lastUpdatedAt == 0) {\n        pools[_lpToken].lastUpdatedAt = currentTime;\n        poolList.push(_lpToken);\n      }\n\n      // add bonus tokens and their authorizers (who are allowed to add the token to pool)\n      for (uint256 j = 0; j < _bonusTokenAddrs.length; j++) {\n        address _bonusTokenAddr = _bonusTokenAddrs[j];\n        require(pools[_bonusTokenAddr].lastUpdatedAt == 0, \"BonusRewards: lpToken, not allowed\");\n        allowedTokenAuthorizers[_lpToken][_bonusTokenAddr] = _authorizers;\n        bonusTokenAddrMap[_bonusTokenAddr] = 1;\n      }\n    }\n  }\n\n  /// @notice collect bonus token dust to treasury\n  function collectDust(address _token, address _lpToken, uint256 _poolBonusId) external override onlyOwner {\n    require(pools[_token].lastUpdatedAt == 0, \"BonusRewards: lpToken, not allowed\");\n\n    if (_token == address(0)) { // token address(0) = ETH\n      Address.sendValue(payable(owner()), address(this).balance);\n    } else {\n      uint256 balance = IERC20(_token).balanceOf(address(this));\n      if (bonusTokenAddrMap[_token] == 1) {\n        // bonus token\n        Bonus memory bonus = pools[_lpToken].bonuses[_poolBonusId];\n        require(bonus.bonusTokenAddr == _token, \"BonusRewards: wrong pool\");\n        require(bonus.endTime + WEEK < block.timestamp, \"BonusRewards: not ready\");\n        balance = bonus.remBonus;\n        pools[_lpToken].bonuses[_poolBonusId].remBonus = 0;\n      }\n\n      IERC20(_token).safeTransfer(owner(), balance);\n    }\n  }\n\n  function setResponders(address[] calldata _responders) external override onlyOwner {\n    responders = _responders;\n  }\n\n  function setPaused(bool _paused) external override {\n    require(_isAuthorized(responders), \"BonusRewards: caller not responder\");\n    emit PausedStatusUpdated(msg.sender, paused, _paused);\n    paused = _paused;\n  }\n\n  function getPool(address _lpToken) external view override returns (Pool memory) {\n    return pools[_lpToken];\n  }\n\n  function getUser(address _lpToken, address _account) external view override returns (User memory, uint256[] memory) {\n    return (users[_lpToken][_account], viewRewards(_lpToken, _account));\n  }\n\n  function getAuthorizers(address _lpToken, address _bonusTokenAddr) external view override returns (address[] memory) {\n    return allowedTokenAuthorizers[_lpToken][_bonusTokenAddr];\n  }\n\n  function getResponders() external view override returns (address[] memory) {\n    return responders;\n  }\n\n  function viewRewards(address _lpToken, address _user) public view override returns (uint256[] memory) {\n    Pool memory pool = pools[_lpToken];\n    User memory user = users[_lpToken][_user];\n    uint256[] memory rewards = new uint256[](pool.bonuses.length);\n    if (user.amount <= 0) return rewards;\n\n    uint256 rewardsWriteoffsLen = user.rewardsWriteoffs.length;\n    for (uint256 i = 0; i < rewards.length; i ++) {\n      Bonus memory bonus = pool.bonuses[i];\n      if (bonus.startTime < block.timestamp && bonus.remBonus > 0) {\n        uint256 lpTotal = IERC20(_lpToken).balanceOf(address(this));\n        uint256 bonusForTime = _calRewardsForTime(bonus, pool.lastUpdatedAt);\n        uint256 bonusPerToken = bonus.accRewardsPerToken + bonusForTime / lpTotal;\n        uint256 rewardsWriteoff = rewardsWriteoffsLen <= i ? 0 : user.rewardsWriteoffs[i];\n        uint256 reward = user.amount * bonusPerToken / CAL_MULTIPLIER - rewardsWriteoff;\n        rewards[i] = reward < bonus.remBonus ? reward : bonus.remBonus;\n      }\n    }\n    return rewards;\n  }\n\n\n  function getPoolList() external view override returns (address[] memory) {\n    return poolList;\n  }\n\n  /// @notice update pool's bonus per staked token till current block timestamp, do nothing if pool does not exist\n  function _updatePool(address _lpToken) private {\n    Pool storage pool = pools[_lpToken];\n    uint256 poolLastUpdatedAt = pool.lastUpdatedAt;\n    if (poolLastUpdatedAt == 0 || block.timestamp <= poolLastUpdatedAt) return;\n    pool.lastUpdatedAt = block.timestamp;\n    uint256 lpTotal = IERC20(_lpToken).balanceOf(address(this));\n    if (lpTotal == 0) return;\n\n    for (uint256 i = 0; i < pool.bonuses.length; i ++) {\n      Bonus storage bonus = pool.bonuses[i];\n      if (poolLastUpdatedAt < bonus.endTime && bonus.startTime < block.timestamp) {\n        uint256 bonusForTime = _calRewardsForTime(bonus, poolLastUpdatedAt);\n        bonus.accRewardsPerToken = bonus.accRewardsPerToken + bonusForTime / lpTotal;\n      }\n    }\n  }\n\n  function _updateUserWriteoffs(address _lpToken) private {\n    Bonus[] memory bonuses = pools[_lpToken].bonuses;\n    User storage user = users[_lpToken][msg.sender];\n    for (uint256 i = 0; i < bonuses.length; i++) {\n      // update writeoff to match current acc rewards per token\n      if (user.rewardsWriteoffs.length == i) {\n        user.rewardsWriteoffs.push(user.amount * bonuses[i].accRewardsPerToken / CAL_MULTIPLIER);\n      } else {\n        user.rewardsWriteoffs[i] = user.amount * bonuses[i].accRewardsPerToken / CAL_MULTIPLIER;\n      }\n    }\n  }\n\n  /// @notice tranfer upto what the contract has\n  function _safeTransfer(address _token, uint256 _amount) private returns (uint256 _transferred) {\n    IERC20 token = IERC20(_token);\n    uint256 balance = token.balanceOf(address(this));\n    if (balance > _amount) {\n      token.safeTransfer(msg.sender, _amount);\n      _transferred = _amount;\n    } else if (balance > 0) {\n      token.safeTransfer(msg.sender, balance);\n      _transferred = balance;\n    }\n  }\n\n  function _calRewardsForTime(Bonus memory _bonus, uint256 _lastUpdatedAt) internal view returns (uint256) {\n    if (_bonus.endTime <= _lastUpdatedAt) return 0;\n\n    uint256 calEndTime = block.timestamp > _bonus.endTime ? _bonus.endTime : block.timestamp;\n    uint256 calStartTime = _lastUpdatedAt > _bonus.startTime ? _lastUpdatedAt : _bonus.startTime;\n    uint256 timePassed = calEndTime - calStartTime;\n    return _bonus.weeklyRewards * CAL_MULTIPLIER * timePassed / WEEK;\n  }\n\n  function _claimRewards(address _lpToken, User memory _user) private {\n    // only claim if user has deposited before\n    if (_user.amount == 0) return;\n    uint256 rewardsWriteoffsLen = _user.rewardsWriteoffs.length;\n    Bonus[] memory bonuses = pools[_lpToken].bonuses;\n    for (uint256 i = 0; i < bonuses.length; i++) {\n      uint256 rewardsWriteoff = rewardsWriteoffsLen <= i ? 0 : _user.rewardsWriteoffs[i];\n      uint256 bonusSinceLastUpdate = _user.amount * bonuses[i].accRewardsPerToken / CAL_MULTIPLIER - rewardsWriteoff;\n      uint256 toTransfer = bonuses[i].remBonus < bonusSinceLastUpdate ? bonuses[i].remBonus : bonusSinceLastUpdate;\n      if (toTransfer == 0) continue;\n      uint256 transferred = _safeTransfer(bonuses[i].bonusTokenAddr, toTransfer);\n      pools[_lpToken].bonuses[i].remBonus = bonuses[i].remBonus - transferred;\n    }\n  }\n\n  // only owner or authorized users from list\n  function _isAuthorized(address[] memory checkList) private view returns (bool) {\n    if (msg.sender == owner()) return true;\n\n    for (uint256 i = 0; i < checkList.length; i++) {\n      if (msg.sender == checkList[i]) {\n        return true;\n      }\n    }\n    return false;\n  }\n}\n",
  "sourcePath": "/Users/wangsong/Desktop/dapp/bumper-farm/contracts/BonusRewards.sol",
  "compiler": {
    "name": "solc",
    "version": "0.8.3+commit.8d00100c.Emscripten.clang"
  },
  "schemaVersion": "3.3.4",
  "updatedAt": "2021-04-18T05:47:37.264Z",
  "networkType": "ethereum",
  "devdoc": {
    "author": "crypto-pumpkin",
    "kind": "dev",
    "methods": {
      "owner()": {
        "details": "Returns the address of the current owner."
      },
      "renounceOwnership()": {
        "details": "Leaves the contract without owner. It will not be possible to call `onlyOwner` functions anymore. Can only be called by the current owner. NOTE: Renouncing ownership will leave the contract without an owner, thereby removing any functionality that is only available to the owner."
      },
      "transferOwnership(address)": {
        "details": "Transfers ownership of the contract to a new account (`newOwner`). Can only be called by the current owner."
      }
    },
    "title": "Bonus Token Rewards contract",
    "version": 1
  },
  "userdoc": {
    "kind": "user",
    "methods": {
      "addBonus(address,address,uint48,uint256,uint256)": {
        "notice": "called by authorizers only"
      },
      "addPoolsAndAllowBonus(address[],address[],address[])": {
        "notice": "add pools and authorizers to add bonus tokens for pools, combine two calls into one. Only reason we add pools is when bonus tokens will be added"
      },
      "collectDust(address,address,uint256)": {
        "notice": "collect bonus token dust to treasury"
      },
      "emergencyWithdraw(address[])": {
        "notice": "withdraw all without rewards"
      },
      "extendBonus(address,uint256,address,uint256)": {
        "notice": "extend the current bonus program, the program has to be active (endTime is in the future)"
      },
      "updateBonus(address,address,uint256,uint48)": {
        "notice": "called by authorizers only, update weeklyRewards (if not ended), or update startTime (only if rewards not started, 0 is ignored)"
      },
      "withdraw(address,uint256)": {
        "notice": "withdraw up to all user deposited"
      }
    },
    "notice": "BNB is not allowed to be an bonus token, use wBNB insteadWe support multiple bonus tokens for each pool. However, each pool will have 1 bonus token normally, may have 2 in rare cases",
    "version": 1
  },
  "db": {
    "callBytecode": {
      "id": "0x92a628304b0d3486236e83ec48ff1d818f3486ee4595a4ae973e36f88cc6fa47"
    },
    "createBytecode": {
      "id": "0x239526828eb0d5cea6da7e991f6ffa4e22abbce5460a8e4a5cc56e20ce9d51a3"
    },
    "contract": {
      "id": "0x2e2db0f0f16509bac02132351651c974273b3e43bf618951894b669e08d5c798"
    }
  }
}