{
  "contractName": "BumperZap",
  "abi": [
    {
      "inputs": [
        {
          "internalType": "contract IBumperCore",
          "name": "_core",
          "type": "address"
        },
        {
          "internalType": "contract IRouter",
          "name": "_router",
          "type": "address"
        }
      ],
      "stateMutability": "nonpayable",
      "type": "constructor"
    },
    {
      "anonymous": false,
      "inputs": [
        {
          "indexed": true,
          "internalType": "address",
          "name": "previousOwner",
          "type": "address"
        },
        {
          "indexed": true,
          "internalType": "address",
          "name": "newOwner",
          "type": "address"
        }
      ],
      "name": "OwnershipTransferred",
      "type": "event"
    },
    {
      "anonymous": false,
      "inputs": [
        {
          "indexed": true,
          "internalType": "address",
          "name": "previousOwner",
          "type": "address"
        },
        {
          "indexed": true,
          "internalType": "address",
          "name": "newOwner",
          "type": "address"
        }
      ],
      "name": "OwnershipWaitingTranfer",
      "type": "event"
    },
    {
      "inputs": [],
      "name": "acceptOwnership",
      "outputs": [
        {
          "internalType": "address",
          "name": "newOwner",
          "type": "address"
        },
        {
          "internalType": "address",
          "name": "oldOwner",
          "type": "address"
        }
      ],
      "stateMutability": "nonpayable",
      "type": "function"
    },
    {
      "inputs": [],
      "name": "core",
      "outputs": [
        {
          "internalType": "contract IBumperCore",
          "name": "",
          "type": "address"
        }
      ],
      "stateMutability": "view",
      "type": "function"
    },
    {
      "inputs": [],
      "name": "owner",
      "outputs": [
        {
          "internalType": "address",
          "name": "",
          "type": "address"
        }
      ],
      "stateMutability": "view",
      "type": "function"
    },
    {
      "inputs": [],
      "name": "renounceOwnership",
      "outputs": [],
      "stateMutability": "nonpayable",
      "type": "function"
    },
    {
      "inputs": [],
      "name": "router",
      "outputs": [
        {
          "internalType": "contract IRouter",
          "name": "",
          "type": "address"
        }
      ],
      "stateMutability": "view",
      "type": "function"
    },
    {
      "inputs": [
        {
          "internalType": "address",
          "name": "newOwner",
          "type": "address"
        }
      ],
      "name": "transferOwnership",
      "outputs": [],
      "stateMutability": "nonpayable",
      "type": "function"
    },
    {
      "inputs": [
        {
          "internalType": "address",
          "name": "_col",
          "type": "address"
        },
        {
          "internalType": "address",
          "name": "_paired",
          "type": "address"
        },
        {
          "internalType": "uint48",
          "name": "_expiry",
          "type": "uint48"
        },
        {
          "internalType": "uint256",
          "name": "_mintRatio",
          "type": "uint256"
        },
        {
          "internalType": "uint256",
          "name": "_colAmt",
          "type": "uint256"
        },
        {
          "internalType": "uint256",
          "name": "_minPairedOut",
          "type": "uint256"
        },
        {
          "internalType": "address[]",
          "name": "_path",
          "type": "address[]"
        },
        {
          "internalType": "uint256",
          "name": "_deadline",
          "type": "uint256"
        }
      ],
      "name": "depositAndSwapToPaired",
      "outputs": [],
      "stateMutability": "nonpayable",
      "type": "function"
    },
    {
      "inputs": [
        {
          "internalType": "address",
          "name": "_col",
          "type": "address"
        },
        {
          "internalType": "address",
          "name": "_paired",
          "type": "address"
        },
        {
          "internalType": "uint48",
          "name": "_expiry",
          "type": "uint48"
        },
        {
          "internalType": "uint256",
          "name": "_mintRatio",
          "type": "uint256"
        },
        {
          "internalType": "uint256",
          "name": "_colAmt",
          "type": "uint256"
        },
        {
          "internalType": "uint256",
          "name": "_minPairedOut",
          "type": "uint256"
        },
        {
          "internalType": "address[]",
          "name": "_path",
          "type": "address[]"
        },
        {
          "internalType": "uint256",
          "name": "_deadline",
          "type": "uint256"
        },
        {
          "components": [
            {
              "internalType": "address",
              "name": "owner",
              "type": "address"
            },
            {
              "internalType": "address",
              "name": "spender",
              "type": "address"
            },
            {
              "internalType": "uint256",
              "name": "amount",
              "type": "uint256"
            },
            {
              "internalType": "uint256",
              "name": "deadline",
              "type": "uint256"
            },
            {
              "internalType": "uint8",
              "name": "v",
              "type": "uint8"
            },
            {
              "internalType": "bytes32",
              "name": "r",
              "type": "bytes32"
            },
            {
              "internalType": "bytes32",
              "name": "s",
              "type": "bytes32"
            }
          ],
          "internalType": "struct IBumperZap.Permit",
          "name": "_colPermit",
          "type": "tuple"
        }
      ],
      "name": "depositWithPermitAndSwapToPaired",
      "outputs": [],
      "stateMutability": "nonpayable",
      "type": "function"
    },
    {
      "inputs": [
        {
          "internalType": "address",
          "name": "_col",
          "type": "address"
        },
        {
          "internalType": "address",
          "name": "_paired",
          "type": "address"
        },
        {
          "internalType": "uint48",
          "name": "_expiry",
          "type": "uint48"
        },
        {
          "internalType": "uint256",
          "name": "_mintRatio",
          "type": "uint256"
        },
        {
          "internalType": "uint256",
          "name": "_colAmt",
          "type": "uint256"
        },
        {
          "internalType": "uint256",
          "name": "_bcTokenDepositAmt",
          "type": "uint256"
        },
        {
          "internalType": "uint256",
          "name": "_pairedDepositAmt",
          "type": "uint256"
        },
        {
          "internalType": "uint256",
          "name": "_bcTokenDepositMin",
          "type": "uint256"
        },
        {
          "internalType": "uint256",
          "name": "_pairedDepositMin",
          "type": "uint256"
        },
        {
          "internalType": "uint256",
          "name": "_deadline",
          "type": "uint256"
        }
      ],
      "name": "depositAndAddLiquidity",
      "outputs": [],
      "stateMutability": "nonpayable",
      "type": "function"
    },
    {
      "inputs": [
        {
          "internalType": "address",
          "name": "_col",
          "type": "address"
        },
        {
          "internalType": "address",
          "name": "_paired",
          "type": "address"
        },
        {
          "internalType": "uint48",
          "name": "_expiry",
          "type": "uint48"
        },
        {
          "internalType": "uint256",
          "name": "_mintRatio",
          "type": "uint256"
        },
        {
          "internalType": "uint256",
          "name": "_colAmt",
          "type": "uint256"
        },
        {
          "internalType": "uint256",
          "name": "_bcTokenDepositAmt",
          "type": "uint256"
        },
        {
          "internalType": "uint256",
          "name": "_pairedDepositAmt",
          "type": "uint256"
        },
        {
          "internalType": "uint256",
          "name": "_bcTokenDepositMin",
          "type": "uint256"
        },
        {
          "internalType": "uint256",
          "name": "_pairedDepositMin",
          "type": "uint256"
        },
        {
          "internalType": "uint256",
          "name": "_deadline",
          "type": "uint256"
        },
        {
          "components": [
            {
              "internalType": "address",
              "name": "owner",
              "type": "address"
            },
            {
              "internalType": "address",
              "name": "spender",
              "type": "address"
            },
            {
              "internalType": "uint256",
              "name": "amount",
              "type": "uint256"
            },
            {
              "internalType": "uint256",
              "name": "deadline",
              "type": "uint256"
            },
            {
              "internalType": "uint8",
              "name": "v",
              "type": "uint8"
            },
            {
              "internalType": "bytes32",
              "name": "r",
              "type": "bytes32"
            },
            {
              "internalType": "bytes32",
              "name": "s",
              "type": "bytes32"
            }
          ],
          "internalType": "struct IBumperZap.Permit",
          "name": "_colPermit",
          "type": "tuple"
        }
      ],
      "name": "depositWithColPermitAndAddLiquidity",
      "outputs": [],
      "stateMutability": "nonpayable",
      "type": "function"
    },
    {
      "inputs": [
        {
          "internalType": "address",
          "name": "_col",
          "type": "address"
        },
        {
          "internalType": "address",
          "name": "_paired",
          "type": "address"
        },
        {
          "internalType": "uint48",
          "name": "_expiry",
          "type": "uint48"
        },
        {
          "internalType": "uint256",
          "name": "_mintRatio",
          "type": "uint256"
        },
        {
          "internalType": "uint256",
          "name": "_colAmt",
          "type": "uint256"
        },
        {
          "internalType": "uint256",
          "name": "_bcTokenDepositAmt",
          "type": "uint256"
        },
        {
          "internalType": "uint256",
          "name": "_pairedDepositAmt",
          "type": "uint256"
        },
        {
          "internalType": "uint256",
          "name": "_bcTokenDepositMin",
          "type": "uint256"
        },
        {
          "internalType": "uint256",
          "name": "_pairedDepositMin",
          "type": "uint256"
        },
        {
          "internalType": "uint256",
          "name": "_deadline",
          "type": "uint256"
        },
        {
          "components": [
            {
              "internalType": "address",
              "name": "owner",
              "type": "address"
            },
            {
              "internalType": "address",
              "name": "spender",
              "type": "address"
            },
            {
              "internalType": "uint256",
              "name": "amount",
              "type": "uint256"
            },
            {
              "internalType": "uint256",
              "name": "deadline",
              "type": "uint256"
            },
            {
              "internalType": "uint8",
              "name": "v",
              "type": "uint8"
            },
            {
              "internalType": "bytes32",
              "name": "r",
              "type": "bytes32"
            },
            {
              "internalType": "bytes32",
              "name": "s",
              "type": "bytes32"
            }
          ],
          "internalType": "struct IBumperZap.Permit",
          "name": "_pairedPermit",
          "type": "tuple"
        }
      ],
      "name": "depositWithPairedPermitAndAddLiquidity",
      "outputs": [],
      "stateMutability": "nonpayable",
      "type": "function"
    },
    {
      "inputs": [
        {
          "internalType": "address",
          "name": "_col",
          "type": "address"
        },
        {
          "internalType": "address",
          "name": "_paired",
          "type": "address"
        },
        {
          "internalType": "uint48",
          "name": "_expiry",
          "type": "uint48"
        },
        {
          "internalType": "uint256",
          "name": "_mintRatio",
          "type": "uint256"
        },
        {
          "internalType": "uint256",
          "name": "_colAmt",
          "type": "uint256"
        },
        {
          "internalType": "uint256",
          "name": "_bcTokenDepositAmt",
          "type": "uint256"
        },
        {
          "internalType": "uint256",
          "name": "_pairedDepositAmt",
          "type": "uint256"
        },
        {
          "internalType": "uint256",
          "name": "_bcTokenDepositMin",
          "type": "uint256"
        },
        {
          "internalType": "uint256",
          "name": "_pairedDepositMin",
          "type": "uint256"
        },
        {
          "internalType": "uint256",
          "name": "_deadline",
          "type": "uint256"
        },
        {
          "components": [
            {
              "internalType": "address",
              "name": "owner",
              "type": "address"
            },
            {
              "internalType": "address",
              "name": "spender",
              "type": "address"
            },
            {
              "internalType": "uint256",
              "name": "amount",
              "type": "uint256"
            },
            {
              "internalType": "uint256",
              "name": "deadline",
              "type": "uint256"
            },
            {
              "internalType": "uint8",
              "name": "v",
              "type": "uint8"
            },
            {
              "internalType": "bytes32",
              "name": "r",
              "type": "bytes32"
            },
            {
              "internalType": "bytes32",
              "name": "s",
              "type": "bytes32"
            }
          ],
          "internalType": "struct IBumperZap.Permit",
          "name": "_colPermit",
          "type": "tuple"
        },
        {
          "components": [
            {
              "internalType": "address",
              "name": "owner",
              "type": "address"
            },
            {
              "internalType": "address",
              "name": "spender",
              "type": "address"
            },
            {
              "internalType": "uint256",
              "name": "amount",
              "type": "uint256"
            },
            {
              "internalType": "uint256",
              "name": "deadline",
              "type": "uint256"
            },
            {
              "internalType": "uint8",
              "name": "v",
              "type": "uint8"
            },
            {
              "internalType": "bytes32",
              "name": "r",
              "type": "bytes32"
            },
            {
              "internalType": "bytes32",
              "name": "s",
              "type": "bytes32"
            }
          ],
          "internalType": "struct IBumperZap.Permit",
          "name": "_pairedPermit",
          "type": "tuple"
        }
      ],
      "name": "depositWithBothPermitsAndAddLiquidity",
      "outputs": [],
      "stateMutability": "nonpayable",
      "type": "function"
    },
    {
      "inputs": [
        {
          "internalType": "address",
          "name": "_col",
          "type": "address"
        },
        {
          "internalType": "address",
          "name": "_paired",
          "type": "address"
        },
        {
          "internalType": "uint48",
          "name": "_expiry",
          "type": "uint48"
        },
        {
          "internalType": "uint256",
          "name": "_mintRatio",
          "type": "uint256"
        },
        {
          "internalType": "uint256",
          "name": "_bcTokenDepositAmt",
          "type": "uint256"
        },
        {
          "internalType": "uint256",
          "name": "_pairedDepositAmt",
          "type": "uint256"
        },
        {
          "internalType": "uint256",
          "name": "_bcTokenDepositMin",
          "type": "uint256"
        },
        {
          "internalType": "uint256",
          "name": "_pairedDepositMin",
          "type": "uint256"
        },
        {
          "internalType": "uint256",
          "name": "_deadline",
          "type": "uint256"
        }
      ],
      "name": "mmDepositAndAddLiquidity",
      "outputs": [],
      "stateMutability": "nonpayable",
      "type": "function"
    },
    {
      "inputs": [
        {
          "internalType": "address",
          "name": "_col",
          "type": "address"
        },
        {
          "internalType": "address",
          "name": "_paired",
          "type": "address"
        },
        {
          "internalType": "uint48",
          "name": "_expiry",
          "type": "uint48"
        },
        {
          "internalType": "uint256",
          "name": "_mintRatio",
          "type": "uint256"
        },
        {
          "internalType": "uint256",
          "name": "_bcTokenDepositAmt",
          "type": "uint256"
        },
        {
          "internalType": "uint256",
          "name": "_pairedDepositAmt",
          "type": "uint256"
        },
        {
          "internalType": "uint256",
          "name": "_bcTokenDepositMin",
          "type": "uint256"
        },
        {
          "internalType": "uint256",
          "name": "_pairedDepositMin",
          "type": "uint256"
        },
        {
          "internalType": "uint256",
          "name": "_deadline",
          "type": "uint256"
        },
        {
          "components": [
            {
              "internalType": "address",
              "name": "owner",
              "type": "address"
            },
            {
              "internalType": "address",
              "name": "spender",
              "type": "address"
            },
            {
              "internalType": "uint256",
              "name": "amount",
              "type": "uint256"
            },
            {
              "internalType": "uint256",
              "name": "deadline",
              "type": "uint256"
            },
            {
              "internalType": "uint8",
              "name": "v",
              "type": "uint8"
            },
            {
              "internalType": "bytes32",
              "name": "r",
              "type": "bytes32"
            },
            {
              "internalType": "bytes32",
              "name": "s",
              "type": "bytes32"
            }
          ],
          "internalType": "struct IBumperZap.Permit",
          "name": "_pairedPermit",
          "type": "tuple"
        }
      ],
      "name": "mmDepositWithPermitAndAddLiquidity",
      "outputs": [],
      "stateMutability": "nonpayable",
      "type": "function"
    },
    {
      "inputs": [
        {
          "internalType": "contract IERC20",
          "name": "_token",
          "type": "address"
        }
      ],
      "name": "collect",
      "outputs": [],
      "stateMutability": "nonpayable",
      "type": "function"
    },
    {
      "inputs": [
        {
          "internalType": "contract IBumperCore",
          "name": "_core",
          "type": "address"
        }
      ],
      "name": "updateCore",
      "outputs": [],
      "stateMutability": "nonpayable",
      "type": "function"
    },
    {
      "inputs": [
        {
          "internalType": "contract IRouter",
          "name": "_router",
          "type": "address"
        }
      ],
      "name": "updateRouter",
      "outputs": [],
      "stateMutability": "nonpayable",
      "type": "function"
    },
    {
      "inputs": [
        {
          "internalType": "uint256",
          "name": "_tokenInAmt",
          "type": "uint256"
        },
        {
          "internalType": "address[]",
          "name": "_path",
          "type": "address[]"
        }
      ],
      "name": "getAmountOut",
      "outputs": [
        {
          "internalType": "uint256",
          "name": "",
          "type": "uint256"
        }
      ],
      "stateMutability": "view",
      "type": "function"
    }
  ],
  "bytecode": "0x60806040523480156200001157600080fd5b50604051620030043803806200300483398101604081905262000034916200023c565b6001600160a01b038216620000905760405162461bcd60e51b815260206004820152601560248201527f42756d7065725a61703a205f636f72652069732030000000000000000000000060448201526064015b60405180910390fd5b6001600160a01b038116620000e85760405162461bcd60e51b815260206004820152601760248201527f42756d7065725a61703a205f726f757465722069732030000000000000000000604482015260640162000087565b600280546001600160a01b038085166001600160a01b0319928316179092556003805492841692909116919091179055620001226200012a565b505062000290565b600054610100900460ff168062000144575060005460ff16155b620001a95760405162461bcd60e51b815260206004820152602e60248201527f496e697469616c697a61626c653a20636f6e747261637420697320616c72656160448201526d191e481a5b9a5d1a585b1a5e995960921b606482015260840162000087565b600054610100900460ff16158015620001cc576000805461ffff19166101011790555b6000805462010000600160b01b03191633620100008102919091178255600180546001600160a01b0319169055604051909182917f8be0079c531659141344cd1fd0a4f28419497f9722a3daafe3b4186f6b6457e0908290a350801562000239576000805461ff00191690555b50565b600080604083850312156200024f578182fd5b82516200025c816200027a565b60208401519092506200026f816200027a565b809150509250929050565b6001600160a01b03811681146200023957600080fd5b612d6480620002a06000396000f3fe608060405234801561001057600080fd5b50600436106101165760003560e01c806379ba5097116100a2578063c851cc3211610071578063c851cc321461024e578063d06af0b014610261578063f2f4eb2614610274578063f2fde38b14610287578063f887ea401461029a57610116565b806379ba5097146101bd578063896d7caa146101ea5780638da5cb5b146101fd578063b8239ebb1461022d57610116565b80630fd7046c116100e95780630fd7046c146101695780632c14dea51461017c5780633e347e1a1461018f578063666572d9146101a2578063715018a6146101b557610116565b8063010bafd31461011b57806306ec16f8146101305780630aaba916146101435780630cbfb6af14610156575b600080fd5b61012e61012936600461240c565b6102ad565b005b61012e61013e3660046123f0565b6102c9565b61012e61015136600461255d565b6103e7565b61012e6101643660046124ab565b6103f8565b61012e6101773660046126eb565b61041f565b61012e61018a36600461278c565b610448565b61012e61019d3660046123f0565b61047c565b61012e6101b03660046125dd565b61051d565b61012e610538565b6101c56105ba565b604080516001600160a01b039384168152929091166020830152015b60405180910390f35b61012e6101f8366004612662565b610739565b6102156000546201000090046001600160a01b031690565b6040516001600160a01b0390911681526020016101e1565b61024061023b3660046129bc565b61074b565b6040519081526020016101e1565b61012e61025c3660046123f0565b61080f565b61012e61026f3660046126eb565b6108b8565b600254610215906001600160a01b031681565b61012e6102953660046123f0565b6108c2565b600354610215906001600160a01b031681565b6102be8989898989898989896109b0565b505050505050505050565b6000546001600160a01b03620100009091041633146103035760405162461bcd60e51b81526004016102fa90612be5565b60405180910390fd5b6040516370a0823160e01b81523060048201526000906001600160a01b038316906370a082319060240160206040518083038186803b15801561034557600080fd5b505afa158015610359573d6000803e3d6000fd5b505050506040513d601f19601f8201168201806040525081019061037d91906129a4565b9050600081116103cf5760405162461bcd60e51b815260206004820152601760248201527f42756d7065725a61703a2062616c616e6365206973203000000000000000000060448201526064016102fa565b6103e36001600160a01b0383163383610c5d565b5050565b6102be898989898989898989610cc5565b6104028a82611352565b6104138a8a8a8a8a8a8a8a8a6109b0565b50505050505050505050565b6104298b82611352565b61043b8b8b8b8b8b8b8b8b8b8b611427565b5050505050505050505050565b6104528c83611352565b61045c8b82611352565b61046e8c8c8c8c8c8c8c8c8c8c611427565b505050505050505050505050565b6000546001600160a01b03620100009091041633146104ad5760405162461bcd60e51b81526004016102fa90612be5565b6001600160a01b0381166104fb5760405162461bcd60e51b8152602060048201526015602482015274042756d7065725a61703a205f636f7265206973203605c1b60448201526064016102fa565b600280546001600160a01b0319166001600160a01b0392909216919091179055565b6105278982611352565b6104138a8a8a8a8a8a8a8a8a610cc5565b6000546001600160a01b03620100009091041633146105695760405162461bcd60e51b81526004016102fa90612be5565b60008054604051620100009091046001600160a01b0316907f8be0079c531659141344cd1fd0a4f28419497f9722a3daafe3b4186f6b6457e0908390a36000805462010000600160b01b0319169055565b60008054819033906201000090046001600160a01b03168114156106305760405162461bcd60e51b815260206004820152602760248201527f4f776e61626c653a2063616c6c65722073686f756c64206e6f74206265206f6c604482015266321037bbb732b960c91b60648201526084016102fa565b6001546001600160a01b038281169116146106a35760405162461bcd60e51b815260206004820152602d60248201527f4f776e61626c653a2063616c6c65722073686f756c64206265206e6577206f7760448201526c6e65722063616e64696461746560981b60648201526084016102fa565b6106bb6000546201000090046001600160a01b031690565b60008054600180546001600160a01b038082166201000090810262010000600160b01b03198616178087556001600160a01b0319909316948190048216949094179092556040519290048116965092945085928516917f8be0079c531659141344cd1fd0a4f28419497f9722a3daafe3b4186f6b6457e091a3509091565b6104138a8a8a8a8a8a8a8a8a8a611427565b60035460405163d06ca61f60e01b81526000916001600160a01b03169063d06ca61f9061078090879087908790600401612c1a565b60006040518083038186803b15801561079857600080fd5b505afa1580156107ac573d6000803e3d6000fd5b505050506040513d6000823e601f3d908101601f191682016040526107d4919081019061283e565b6107df600184612c93565b815181106107fd57634e487b7160e01b600052603260045260246000fd5b602002602001015190505b9392505050565b6000546001600160a01b03620100009091041633146108405760405162461bcd60e51b81526004016102fa90612be5565b6001600160a01b0381166108965760405162461bcd60e51b815260206004820152601760248201527f42756d7065725a61703a205f726f75746572206973203000000000000000000060448201526064016102fa565b600380546001600160a01b0319166001600160a01b0392909216919091179055565b6104298a82611352565b6000546001600160a01b03620100009091041633146108f35760405162461bcd60e51b81526004016102fa90612be5565b6001600160a01b0381166109585760405162461bcd60e51b815260206004820152602660248201527f4f776e61626c653a206e6577206f776e657220697320746865207a65726f206160448201526564647265737360d01b60648201526084016102fa565b600180546001600160a01b0319166001600160a01b038381169182179092556000805460405192936201000090910416917f0abbb2700a8df1fb8a66e9839d11499461a78e5568b9c5cd283283c134ebb2b99190a350565b600085116109fa5760405162461bcd60e51b8152602060048201526017602482015276042756d7065725a61703a205f636f6c416d74206973203604c1b60448201526064016102fa565b6002821015610a4b5760405162461bcd60e51b815260206004820152601b60248201527f42756d7065725a61703a205f70617468206c656e677468203c2032000000000060448201526064016102fa565b6001600160a01b0388168383610a62600182612c93565b818110610a7f57634e487b7160e01b600052603260045260246000fd5b9050602002016020810190610a9491906123f0565b6001600160a01b031614610aea5760405162461bcd60e51b815260206004820152601c60248201527f42756d7065725a61703a206f757470757420213d205f7061697265640000000060448201526064016102fa565b42811015610b0a5760405162461bcd60e51b81526004016102fa90612b6d565b600080610b1a8b8b8b8b8b6119a8565b5091509150816001600160a01b031685856000818110610b4a57634e487b7160e01b600052603260045260246000fd5b9050602002016020810190610b5f91906123f0565b6001600160a01b031614610bb55760405162461bcd60e51b815260206004820152601b60248201527f42756d7065725a61703a20696e70757420213d206263546f6b656e000000000060448201526064016102fa565b600354610bcd9083906001600160a01b031683611e62565b6003546040516338ed173960e01b81526001600160a01b03909116906338ed173990610c079084908a908a908a9033908b90600401612c3d565b600060405180830381600087803b158015610c2157600080fd5b505af1158015610c35573d6000803e3d6000fd5b505050506040513d6000823e601f3d908101601f1916820160405261046e919081019061283e565b6040516001600160a01b038316602482015260448101829052610cc090849063a9059cbb60e01b906064015b60408051601f198184030181529190526020810180516001600160e01b03166001600160e01b031990931692909217909152611f26565b505050565b42811015610ce55760405162461bcd60e51b81526004016102fa90612b6d565b60008511610d355760405162461bcd60e51b815260206004820152601e60248201527f42756d7065725a61703a2030206263546f6b656e4465706f736974416d74000060448201526064016102fa565b82851015610d855760405162461bcd60e51b815260206004820152601c60248201527f42756d7065725a61703a206263546f6b656e20416d74203c206d696e0000000060448201526064016102fa565b60008411610dd55760405162461bcd60e51b815260206004820152601d60248201527f42756d7065725a61703a2030207061697265644465706f736974416d7400000060448201526064016102fa565b81841015610e255760405162461bcd60e51b815260206004820152601b60248201527f42756d7065725a61703a2070616972656420416d74203c206d696e000000000060448201526064016102fa565b6040516370a0823160e01b815230600482015288906000906001600160a01b038316906370a082319060240160206040518083038186803b158015610e6957600080fd5b505afa158015610e7d573d6000803e3d6000fd5b505050506040513d601f19601f82011682018060405250810190610ea191906129a4565b9050610ec43330610eb2898b612c7b565b6001600160a01b038616929190611ff8565b610ece8688612c7b565b6040516370a0823160e01b815230600482015282906001600160a01b038516906370a082319060240160206040518083038186803b158015610f0f57600080fd5b505afa158015610f23573d6000803e3d6000fd5b505050506040513d601f19601f82011682018060405250810190610f4791906129a4565b610f519190612c93565b14610f6e5760405162461bcd60e51b81526004016102fa90612ba4565b600254604051632055303d60e11b81526001600160a01b038d811660048301528c8116602483015265ffffffffffff8c166044830152606482018b905260009216906340aa607a906084016101006040518083038186803b158015610fd257600080fd5b505afa158015610fe6573d6000803e3d6000fd5b505050506040513d601f19601f8201168201806040525081019061100a9190612918565b50505050935050505060006001600160a01b0316816001600160a01b031614156110725760405162461bcd60e51b8152602060048201526019602482015278109d5b5c195c96985c0e881c185a5c881b9bdd08195e1a5cdd603a1b60448201526064016102fa565b6040516370a0823160e01b81523060048201526000906001600160a01b038316906370a082319060240160206040518083038186803b1580156110b457600080fd5b505afa1580156110c8573d6000803e3d6000fd5b505050506040513d601f19601f820116820180604052508101906110ec91906129a4565b6002549091506111079085906001600160a01b03168b611e62565b600260009054906101000a90046001600160a01b03166001600160a01b0316637c6204128e8e8e8e8e6040518663ffffffff1660e01b8152600401611150959493929190612b01565b600060405180830381600087803b15801561116a57600080fd5b505af115801561117e573d6000803e3d6000fd5b50506040516370a0823160e01b8152306004820152600092508391506001600160a01b038516906370a082319060240160206040518083038186803b1580156111c657600080fd5b505afa1580156111da573d6000803e3d6000fd5b505050506040513d601f19601f820116820180604052508101906111fe91906129a4565b6112089190612c93565b9050808a111561125a5760405162461bcd60e51b815260206004820152601f60248201527f42756d7065725a61703a206263546f6b656e20416d74203e206d696e7465640060448201526064016102fa565b6003546112729084906001600160a01b03168c611e62565b60035461128a9086906001600160a01b03168b611e62565b600360009054906101000a90046001600160a01b03166001600160a01b031663e8e33700848f8d8d8d8d338e6040518963ffffffff1660e01b81526004016112d9989796959493929190612ab8565b606060405180830381600087803b1580156112f357600080fd5b505af1158015611307573d6000803e3d6000fd5b505050506040513d601f19601f8201168201806040525081019061132b9190612a06565b5050506113388383612030565b6113428585612030565b5050505050505050505050505050565b6001600160a01b03821663d505accf61136e60208401846123f0565b61137e60408501602086016123f0565b6040850135606086013561139860a0880160808901612a33565b6040516001600160e01b031960e088901b1681526001600160a01b0395861660048201529490931660248501526044840191909152606483015260ff16608482015260a084013560a482015260c084013560c482015260e401600060405180830381600087803b15801561140b57600080fd5b505af115801561141f573d6000803e3d6000fd5b505050505050565b600086116114715760405162461bcd60e51b8152602060048201526017602482015276042756d7065725a61703a205f636f6c416d74206973203604c1b60448201526064016102fa565b428110156114915760405162461bcd60e51b81526004016102fa90612b6d565b600085116114e15760405162461bcd60e51b815260206004820152601e60248201527f42756d7065725a61703a2030206263546f6b656e4465706f736974416d74000060448201526064016102fa565b828510156115315760405162461bcd60e51b815260206004820152601c60248201527f42756d7065725a61703a206263546f6b656e20416d74203c206d696e0000000060448201526064016102fa565b600084116115815760405162461bcd60e51b815260206004820152601d60248201527f42756d7065725a61703a2030207061697265644465706f736974416d7400000060448201526064016102fa565b818410156115d15760405162461bcd60e51b815260206004820152601b60248201527f42756d7065725a61703a2070616972656420416d74203c206d696e000000000060448201526064016102fa565b60008060008060006115e68f8f8f8f8f6119a8565b925092509250818a111561163c5760405162461bcd60e51b815260206004820152601f60248201527f42756d7065725a61703a206263546f6b656e20416d74203e206d696e7465640060448201526064016102fa565b6040516370a0823160e01b815230600482015292945092508c91600091506001600160a01b038316906370a082319060240160206040518083038186803b15801561168657600080fd5b505afa15801561169a573d6000803e3d6000fd5b505050506040513d601f19601f820116820180604052508101906116be91906129a4565b90506116d56001600160a01b03831633308b611ff8565b6040516370a0823160e01b815230600482015260009082906001600160a01b038516906370a082319060240160206040518083038186803b15801561171957600080fd5b505afa15801561172d573d6000803e3d6000fd5b505050506040513d601f19601f8201168201806040525081019061175191906129a4565b61175b9190612c93565b90506000811161177d5760405162461bcd60e51b81526004016102fa90612ba4565b6003546117959086906001600160a01b03168c611e62565b6003546117ad9084906001600160a01b03168b611e62565b600360009054906101000a90046001600160a01b03166001600160a01b031663e8e3370086858d858d8d338e6040518963ffffffff1660e01b81526004016117fc989796959493929190612ab8565b606060405180830381600087803b15801561181657600080fd5b505af115801561182a573d6000803e3d6000fd5b505050506040513d601f19601f8201168201806040525081019061184e9190612a06565b50506040516370a0823160e01b81523060048201526000915085906001600160a01b038816906370a082319060240160206040518083038186803b15801561189557600080fd5b505afa1580156118a9573d6000803e3d6000fd5b505050506040513d601f19601f820116820180604052508101906118cd91906129a4565b6118d79190612c93565b905080156118f3576118f36001600160a01b0387163383610c5d565b6040516370a0823160e01b815230600482015260009084906001600160a01b038716906370a082319060240160206040518083038186803b15801561193757600080fd5b505afa15801561194b573d6000803e3d6000fd5b505050506040513d601f19601f8201168201806040525081019061196f91906129a4565b6119799190612c93565b90508015611995576119956001600160a01b0386163383610c5d565b5050505050505050505050505050505050565b600254604051632055303d60e11b81526001600160a01b038781166004830152868116602483015265ffffffffffff861660448301526064820185905260009283928392839283929116906340aa607a906084016101006040518083038186803b158015611a1557600080fd5b505afa158015611a29573d6000803e3d6000fd5b505050506040513d601f19601f82011682018060405250810190611a4d9190612918565b5050509450945050505060006001600160a01b0316826001600160a01b031614158015611a8257506001600160a01b03811615155b611aca5760405162461bcd60e51b8152602060048201526019602482015278109d5b5c195c96985c0e881c185a5c881b9bdd08195e1a5cdd603a1b60448201526064016102fa565b6040516370a0823160e01b81523060048201528a906000906001600160a01b038316906370a082319060240160206040518083038186803b158015611b0e57600080fd5b505afa158015611b22573d6000803e3d6000fd5b505050506040513d601f19601f82011682018060405250810190611b4691906129a4565b9050611b5d6001600160a01b03831633308b611ff8565b6040516370a0823160e01b815230600482015260009082906001600160a01b038516906370a082319060240160206040518083038186803b158015611ba157600080fd5b505afa158015611bb5573d6000803e3d6000fd5b505050506040513d601f19601f82011682018060405250810190611bd991906129a4565b611be39190612c93565b905060008111611c355760405162461bcd60e51b815260206004820152601e60248201527f42756d7065725a61703a20636f6c207472616e73666572206661696c6564000060448201526064016102fa565b6040516370a0823160e01b81523060048201526001600160a01b038616906370a082319060240160206040518083038186803b158015611c7457600080fd5b505afa158015611c88573d6000803e3d6000fd5b505050506040513d601f19601f82011682018060405250810190611cac91906129a4565b6040516370a0823160e01b81523060048201529096506000906001600160a01b038616906370a082319060240160206040518083038186803b158015611cf157600080fd5b505afa158015611d05573d6000803e3d6000fd5b505050506040513d601f19601f82011682018060405250810190611d2991906129a4565b600254909150611d449085906001600160a01b031684611e62565b600260009054906101000a90046001600160a01b03166001600160a01b031663ff9940608f8f8f8f876040518663ffffffff1660e01b8152600401611d8d959493929190612b01565b600060405180830381600087803b158015611da757600080fd5b505af1158015611dbb573d6000803e3d6000fd5b50505050611dc98582612030565b6040516370a0823160e01b815230600482015287906001600160a01b038816906370a082319060240160206040518083038186803b158015611e0a57600080fd5b505afa158015611e1e573d6000803e3d6000fd5b505050506040513d601f19601f82011682018060405250810190611e4291906129a4565b611e4c9190612c93565b9750859850505050505050955095509592505050565b604051636eb1769f60e11b81523060048201526001600160a01b0383811660248301526000919085169063dd62ed3e9060440160206040518083038186803b158015611ead57600080fd5b505afa158015611ec1573d6000803e3d6000fd5b505050506040513d601f19601f82011682018060405250810190611ee591906129a4565b905081811015611f20578015611f0a57611f0a6001600160a01b0385168460006120d2565b611f206001600160a01b038516846000196120d2565b50505050565b6000611f7b826040518060400160405280602081526020017f5361666545524332303a206c6f772d6c6576656c2063616c6c206661696c6564815250856001600160a01b03166121f69092919063ffffffff16565b805190915015610cc05780806020019051810190611f9991906128fe565b610cc05760405162461bcd60e51b815260206004820152602a60248201527f5361666545524332303a204552433230206f7065726174696f6e20646964206e6044820152691bdd081cdd58d8d9595960b21b60648201526084016102fa565b6040516001600160a01b0380851660248301528316604482015260648101829052611f209085906323b872dd60e01b90608401610c89565b6040516370a0823160e01b815230600482015260009082906001600160a01b038516906370a082319060240160206040518083038186803b15801561207457600080fd5b505afa158015612088573d6000803e3d6000fd5b505050506040513d601f19601f820116820180604052508101906120ac91906129a4565b6120b69190612c93565b90508015610cc057610cc06001600160a01b0384163383610c5d565b80158061215b5750604051636eb1769f60e11b81523060048201526001600160a01b03838116602483015284169063dd62ed3e9060440160206040518083038186803b15801561212157600080fd5b505afa158015612135573d6000803e3d6000fd5b505050506040513d601f19601f8201168201806040525081019061215991906129a4565b155b6121c65760405162461bcd60e51b815260206004820152603660248201527f5361666545524332303a20617070726f76652066726f6d206e6f6e2d7a65726f60448201527520746f206e6f6e2d7a65726f20616c6c6f77616e636560501b60648201526084016102fa565b6040516001600160a01b038316602482015260448101829052610cc090849063095ea7b360e01b90606401610c89565b6060612205848460008561220d565b949350505050565b60608247101561226e5760405162461bcd60e51b815260206004820152602660248201527f416464726573733a20696e73756666696369656e742062616c616e636520666f6044820152651c8818d85b1b60d21b60648201526084016102fa565b6122778561233c565b6122c35760405162461bcd60e51b815260206004820152601d60248201527f416464726573733a2063616c6c20746f206e6f6e2d636f6e747261637400000060448201526064016102fa565b600080866001600160a01b031685876040516122df9190612a9c565b60006040518083038185875af1925050503d806000811461231c576040519150601f19603f3d011682016040523d82523d6000602084013e612321565b606091505b5091509150612331828286612346565b979650505050505050565b803b15155b919050565b60608315612355575081610808565b8251156123655782518084602001fd5b8160405162461bcd60e51b81526004016102fa9190612b3a565b60008083601f840112612390578081fd5b50813567ffffffffffffffff8111156123a7578182fd5b6020830191508360208260051b85010111156123c257600080fd5b9250929050565b8051801515811461234157600080fd5b600060e082840312156123ea578081fd5b50919050565b600060208284031215612401578081fd5b813561080881612d02565b60008060008060008060008060006101008a8c03121561242a578485fd5b893561243581612d02565b985060208a013561244581612d02565b975060408a013561245581612d1a565b965060608a0135955060808a0135945060a08a0135935060c08a013567ffffffffffffffff811115612485578384fd5b6124918c828d0161237f565b9a9d999c50979a9699959894979660e00135949350505050565b6000806000806000806000806000806101e08b8d0312156124ca578081fd5b8a356124d581612d02565b995060208b01356124e581612d02565b985060408b01356124f581612d1a565b975060608b0135965060808b0135955060a08b0135945060c08b013567ffffffffffffffff811115612525578182fd5b6125318d828e0161237f565b90955093505060e08b0135915061254c8c6101008d016123d9565b90509295989b9194979a5092959850565b60008060008060008060008060006101208a8c03121561257b578485fd5b893561258681612d02565b985060208a013561259681612d02565b975060408a01356125a681612d1a565b989b979a5097986060810135985060808101359760a0820135975060c0820135965060e08201359550610100909101359350915050565b6000806000806000806000806000806102008b8d0312156125fc578384fd5b8a3561260781612d02565b995060208b013561261781612d02565b985060408b013561262781612d1a565b975060608b0135965060808b0135955060a08b0135945060c08b0135935060e08b013592506101008b0135915061254c8c6101208d016123d9565b6000806000806000806000806000806101408b8d031215612681578384fd5b8a3561268c81612d02565b995060208b013561269c81612d02565b985060408b01356126ac81612d1a565b999c989b5098996060810135995060808101359860a0820135985060c0820135975060e082013596506101008201359550610120909101359350915050565b60008060008060008060008060008060006102208c8e03121561270c578485fd5b8b3561271781612d02565b9a5060208c013561272781612d02565b995060408c013561273781612d1a565b985060608c0135975060808c0135965060a08c0135955060c08c0135945060e08c013593506101008c013592506101208c0135915061277a8d6101408e016123d9565b90509295989b509295989b9093969950565b6000806000806000806000806000806000806103008d8f0312156127ae578586fd5b8c356127b981612d02565b9b5060208d01356127c981612d02565b9a5060408d01356127d981612d1a565b995060608d0135985060808d0135975060a08d0135965060c08d0135955060e08d013594506101008d013593506101208d0135925061281c8e6101408f016123d9565b915061282c8e6102208f016123d9565b90509295989b509295989b509295989b565b60006020808385031215612850578182fd5b825167ffffffffffffffff80821115612867578384fd5b818501915085601f83011261287a578384fd5b81518181111561288c5761288c612cec565b8060051b604051601f19603f830116810181811085821117156128b1576128b1612cec565b604052828152858101935084860182860187018a10156128cf578788fd5b8795505b838610156128f15780518552600195909501949386019386016128d3565b5098975050505050505050565b60006020828403121561290f578081fd5b610808826123c9565b600080600080600080600080610100898b031215612934578182fd5b61293d896123c9565b9750602089015161294d81612d1a565b60408a015190975061295e81612d02565b60608a015190965061296f81612d02565b60808a015190955061298081612d02565b60a08a015160c08b015160e0909b0151999c989b5096999598909790945092505050565b6000602082840312156129b5578081fd5b5051919050565b6000806000604084860312156129d0578081fd5b83359250602084013567ffffffffffffffff8111156129ed578182fd5b6129f98682870161237f565b9497909650939450505050565b600080600060608486031215612a1a578081fd5b8351925060208401519150604084015190509250925092565b600060208284031215612a44578081fd5b813560ff81168114610808578182fd5b60008284526020808501945082825b85811015612a91578135612a7681612d02565b6001600160a01b031687529582019590820190600101612a63565b509495945050505050565b60008251612aae818460208701612caa565b9190910192915050565b6001600160a01b039889168152968816602088015260408701959095526060860193909352608085019190915260a084015290921660c082015260e08101919091526101000190565b6001600160a01b03958616815293909416602084015265ffffffffffff9190911660408301526060820152608081019190915260a00190565b6000602082528251806020840152612b59816040850160208701612caa565b601f01601f19169190910160400192915050565b6020808252601c908201527f42756d7065725a61703a205f646561646c696e6520696e207061737400000000604082015260600190565b60208082526021908201527f42756d7065725a61703a20706169726564207472616e73666572206661696c656040820152601960fa1b606082015260800190565b6020808252818101527f4f776e61626c653a2063616c6c6572206973206e6f7420746865206f776e6572604082015260600190565b600084825260406020830152612c34604083018486612a54565b95945050505050565b600087825286602083015260a06040830152612c5d60a083018688612a54565b6001600160a01b039490941660608301525060800152949350505050565b60008219821115612c8e57612c8e612cd6565b500190565b600082821015612ca557612ca5612cd6565b500390565b60005b83811015612cc5578181015183820152602001612cad565b83811115611f205750506000910152565b634e487b7160e01b600052601160045260246000fd5b634e487b7160e01b600052604160045260246000fd5b6001600160a01b0381168114612d1757600080fd5b50565b65ffffffffffff81168114612d1757600080fdfea264697066735822122069376daed10881d010108d0a301ecd27cda94bda889d032088250098103e727764736f6c63430008030033",
  "immutableReferences": {},
  "source": "// SPDX-License-Identifier: MIT\n\npragma solidity ^0.8.0;\npragma experimental ABIEncoderV2;\n\nimport \"./ERC20/IERC20.sol\";\nimport \"./ERC20/IERC20Permit.sol\";\nimport \"./ERC20/SafeERC20.sol\";\nimport \"./ERC20/IBERC20.sol\";\nimport \"./interfaces/IRouter.sol\";\nimport \"./interfaces/IBumperCore.sol\";\nimport \"./interfaces/IBumperZap.sol\";\nimport \"./utils/Ownable.sol\";\n\n/**\n * @title Bumper Protocol Zap\n * @author alan\n * Main logic is in _depositAndAddLiquidity & _depositAndSwapToPaired\n */\ncontract BumperZap is Ownable, IBumperZap {\n    using SafeERC20 for IERC20;\n    IBumperCore public override core;\n    IRouter public override router;\n\n    constructor (IBumperCore _core, IRouter _router) {\n        require(address(_core) != address(0), \"BumperZap: _core is 0\");\n        require(address(_router) != address(0), \"BumperZap: _router is 0\");\n        core = _core;\n        router = _router;\n        initializeOwner();\n    }\n\n    /**\n    * @notice Deposit collateral `_col` to receive paired token `_paired` and brTokens\n    *  - deposits collateral to receive bcTokens and brTokens\n    *  - bcTokens are swapped into paired token through router\n    *  - paired token and brTokens are sent to sender\n    */\n    function depositAndSwapToPaired(\n        address _col, \n        address _paired,\n        uint48 _expiry,\n        uint256 _mintRatio,\n        uint256 _colAmt,\n        uint256 _minPairedOut,\n        address[] calldata _path,\n        uint256 _deadline\n    ) external override {\n        _depositAndSwapToPaired(\n            _col, \n            _paired, \n            _expiry, \n            _mintRatio, \n            _colAmt, \n            _minPairedOut, \n            _path, \n            _deadline\n        );\n    }\n\n    function depositWithPermitAndSwapToPaired(\n        address _col, \n        address _paired,\n        uint48 _expiry,\n        uint256 _mintRatio,\n        uint256 _colAmt,\n        uint256 _minPairedOut,\n        address[] calldata _path,\n        uint256 _deadline,\n        Permit calldata _colPermit\n    ) external override {\n        _permit(IERC20Permit(_col), _colPermit);\n        _depositAndSwapToPaired(\n            _col, \n            _paired, \n            _expiry, \n            _mintRatio, \n            _colAmt, \n            _minPairedOut, \n            _path, \n            _deadline\n        );\n    }\n\n    /**\n    * @notice Deposit collateral `_col` to receive LP tokens and brTokens\n    *  - deposits collateral to receive bcTokens and brTokens\n    *  - transfers paired token from sender\n    *  - bcTokens and `_paired` tokens are added as liquidity to receive LP tokens\n    *  - LP tokens and brTokens are sent to sender\n    */\n    function depositAndAddLiquidity(\n        address _col, \n        address _paired,\n        uint48 _expiry,\n        uint256 _mintRatio,\n        uint256 _colAmt,\n        uint256 _bcTokenDepositAmt,\n        uint256 _pairedDepositAmt,\n        uint256 _bcTokenDepositMin,\n        uint256 _pairedDepositMin,\n        uint256 _deadline\n    ) external override {\n        _depositAndAddLiquidity(\n            _col, \n            _paired, \n            _expiry, \n            _mintRatio, \n            _colAmt, \n            _bcTokenDepositAmt, \n            _pairedDepositAmt, \n            _bcTokenDepositMin, \n            _pairedDepositMin,\n            _deadline\n        );\n    }\n\n    function depositWithColPermitAndAddLiquidity(\n        address _col, \n        address _paired,\n        uint48 _expiry,\n        uint256 _mintRatio,\n        uint256 _colAmt,\n        uint256 _bcTokenDepositAmt,\n        uint256 _pairedDepositAmt,\n        uint256 _bcTokenDepositMin,\n        uint256 _pairedDepositMin,\n        uint256 _deadline,\n        Permit calldata _colPermit\n    ) external override {\n        _permit(IERC20Permit(_col), _colPermit);\n        _depositAndAddLiquidity(\n            _col, \n            _paired, \n            _expiry, \n            _mintRatio, \n            _colAmt, \n            _bcTokenDepositAmt, \n            _pairedDepositAmt, \n            _bcTokenDepositMin, \n            _pairedDepositMin,\n            _deadline\n        );\n    }\n\n    function depositWithPairedPermitAndAddLiquidity(\n        address _col, \n        address _paired,\n        uint48 _expiry,\n        uint256 _mintRatio,\n        uint256 _colAmt,\n        uint256 _bcTokenDepositAmt,\n        uint256 _pairedDepositAmt,\n        uint256 _bcTokenDepositMin,\n        uint256 _pairedDepositMin,\n        uint256 _deadline,\n        Permit calldata _pairedPermit\n    ) external override {\n        _permit(IERC20Permit(_paired), _pairedPermit);\n        _depositAndAddLiquidity(\n            _col, \n            _paired, \n            _expiry, \n            _mintRatio, \n            _colAmt, \n            _bcTokenDepositAmt, \n            _pairedDepositAmt, \n            _bcTokenDepositMin, \n            _pairedDepositMin,\n            _deadline\n        );\n    }\n\n    function depositWithBothPermitsAndAddLiquidity(\n        address _col, \n        address _paired,\n        uint48 _expiry,\n        uint256 _mintRatio,\n        uint256 _colAmt,\n        uint256 _bcTokenDepositAmt,\n        uint256 _pairedDepositAmt,\n        uint256 _bcTokenDepositMin,\n        uint256 _pairedDepositMin,\n        uint256 _deadline,\n        Permit calldata _colPermit,\n        Permit calldata _pairedPermit\n    ) external override {\n        _permit(IERC20Permit(_col), _colPermit);\n        _permit(IERC20Permit(_paired), _pairedPermit);\n        _depositAndAddLiquidity(\n            _col, \n            _paired, \n            _expiry, \n            _mintRatio, \n            _colAmt, \n            _bcTokenDepositAmt, \n            _pairedDepositAmt, \n            _bcTokenDepositMin, \n            _pairedDepositMin,\n            _deadline\n        );\n    }\n\n    function mmDepositAndAddLiquidity(\n        address _col, \n        address _paired,\n        uint48 _expiry,\n        uint256 _mintRatio,\n        uint256 _bcTokenDepositAmt,\n        uint256 _pairedDepositAmt,\n        uint256 _bcTokenDepositMin,\n        uint256 _pairedDepositMin,\n        uint256 _deadline\n    ) external override {\n        _mmDepositAndAddLiquidity(\n            _col, \n            _paired, \n            _expiry, \n            _mintRatio, \n            _bcTokenDepositAmt, \n            _pairedDepositAmt, \n            _bcTokenDepositMin, \n            _pairedDepositMin,\n            _deadline\n        );\n    }\n\n    function mmDepositWithPermitAndAddLiquidity(\n        address _col, \n        address _paired,\n        uint48 _expiry,\n        uint256 _mintRatio,\n        uint256 _bcTokenDepositAmt,\n        uint256 _pairedDepositAmt,\n        uint256 _bcTokenDepositMin,\n        uint256 _pairedDepositMin,\n        uint256 _deadline,\n        Permit calldata _pairedPermit\n    ) external override {\n        _permit(IERC20Permit(_paired), _pairedPermit);\n        _mmDepositAndAddLiquidity(\n            _col, \n            _paired, \n            _expiry, \n            _mintRatio, \n            _bcTokenDepositAmt, \n            _pairedDepositAmt, \n            _bcTokenDepositMin, \n            _pairedDepositMin,\n            _deadline\n        );\n    }\n\n    /// @notice This contract should never hold any funds.\n    /// Any tokens sent here by accident can be retreived.\n    function collect(IERC20 _token) external override onlyOwner {\n        uint256 balance = _token.balanceOf(address(this));\n        require(balance > 0, \"BumperZap: balance is 0\");\n        _token.safeTransfer(msg.sender, balance);\n    }\n\n    function updateCore(IBumperCore _core) external override onlyOwner {\n        require(address(_core) != address(0), \"BumperZap: _core is 0\");\n        core = _core;\n    }\n\n    function updateRouter(IRouter _router) external override onlyOwner {\n        require(address(_router) != address(0), \"BumperZap: _router is 0\");\n        router = _router;\n    }\n\n    /// @notice check received amount from swap, tokenOut is always the last in array\n    function getAmountOut(\n        uint256 _tokenInAmt, \n        address[] calldata _path\n    ) external view override returns (uint256) {\n        return router.getAmountsOut(_tokenInAmt, _path)[_path.length - 1];\n    }\n\n    function _depositAndSwapToPaired(\n        address _col, \n        address _paired,\n        uint48 _expiry,\n        uint256 _mintRatio,\n        uint256 _colAmt,\n        uint256 _minPairedOut,\n        address[] calldata _path,\n        uint256 _deadline\n    ) private {\n        require(_colAmt > 0, \"BumperZap: _colAmt is 0\");\n        require(_path.length >= 2, \"BumperZap: _path length < 2\");\n        require(_path[_path.length - 1] == _paired, \"BumperZap: output != _paired\");\n        require(_deadline >= block.timestamp, \"BumperZap: _deadline in past\");\n        (address _bcToken, uint256 _bcTokensReceived, ) = _deposit(_col, _paired, _expiry, _mintRatio, _colAmt);\n\n        require(_path[0] == _bcToken, \"BumperZap: input != bcToken\");\n        _approve(IERC20(_bcToken), address(router), _bcTokensReceived);\n        router.swapExactTokensForTokens(_bcTokensReceived, _minPairedOut, _path, msg.sender, _deadline);\n    }\n\n    function _depositAndAddLiquidity(\n        address _col, \n        address _paired,\n        uint48 _expiry,\n        uint256 _mintRatio,\n        uint256 _colAmt,\n        uint256 _bcTokenDepositAmt,\n        uint256 _pairedDepositAmt,\n        uint256 _bcTokenDepositMin,\n        uint256 _pairedDepositMin,\n        uint256 _deadline\n    ) private {\n        require(_colAmt > 0, \"BumperZap: _colAmt is 0\");\n        require(_deadline >= block.timestamp, \"BumperZap: _deadline in past\");\n        require(_bcTokenDepositAmt > 0, \"BumperZap: 0 bcTokenDepositAmt\");\n        require(_bcTokenDepositAmt >= _bcTokenDepositMin, \"BumperZap: bcToken Amt < min\");\n        require(_pairedDepositAmt > 0, \"BumperZap: 0 pairedDepositAmt\");\n        require(_pairedDepositAmt >= _pairedDepositMin, \"BumperZap: paired Amt < min\");\n\n        // deposit collateral to Bumper\n        IERC20 bcToken;\n        uint256 bcTokensBalBefore;\n        { // scope to avoid stack too deep errors\n            (address _bcToken, uint256 _bcTokensReceived, uint256 _bcTokensBalBefore) = _deposit(_col, _paired, _expiry, _mintRatio, _colAmt);\n            require(_bcTokenDepositAmt <= _bcTokensReceived, \"BumperZap: bcToken Amt > minted\");\n            bcToken = IERC20(_bcToken);\n            bcTokensBalBefore = _bcTokensBalBefore;\n        }\n\n        // received paired tokens from sender\n        IERC20 paired = IERC20(_paired);\n        uint256 pairedBalBefore = paired.balanceOf(address(this));\n        paired.safeTransferFrom(msg.sender, address(this), _pairedDepositAmt);\n        uint256 receivedPaired = paired.balanceOf(address(this)) - pairedBalBefore;\n        require(receivedPaired > 0, \"BumperZap: paired transfer failed\");\n\n        // add liquidity for sender\n        _approve(bcToken, address(router), _bcTokenDepositAmt);\n        _approve(paired, address(router), _pairedDepositAmt);\n        router.addLiquidity(\n            address(bcToken), \n            address(paired), \n            _bcTokenDepositAmt, \n            receivedPaired, \n            _bcTokenDepositMin,\n            _pairedDepositMin,\n            msg.sender,\n            _deadline\n        );\n\n        // sending leftover tokens back to sender\n        uint256 bcTokensLeftover = bcToken.balanceOf(address(this)) - bcTokensBalBefore;\n        if (bcTokensLeftover > 0) {\n            bcToken.safeTransfer(msg.sender, bcTokensLeftover);\n        }\n        uint256 pairedTokensLeftover = paired.balanceOf(address(this)) - pairedBalBefore;\n        if (pairedTokensLeftover > 0) {\n            paired.safeTransfer(msg.sender, pairedTokensLeftover);\n        }\n    }\n\n    function _mmDepositAndAddLiquidity(\n        address _col, \n        address _paired,\n        uint48 _expiry,\n        uint256 _mintRatio,\n        uint256 _bcTokenDepositAmt,\n        uint256 _pairedDepositAmt,\n        uint256 _bcTokenDepositMin,\n        uint256 _pairedDepositMin,\n        uint256 _deadline\n    ) private {\n        require(_deadline >= block.timestamp, \"BumperZap: _deadline in past\");\n        require(_bcTokenDepositAmt > 0, \"BumperZap: 0 bcTokenDepositAmt\");\n        require(_bcTokenDepositAmt >= _bcTokenDepositMin, \"BumperZap: bcToken Amt < min\");\n        require(_pairedDepositAmt > 0, \"BumperZap: 0 pairedDepositAmt\");\n        require(_pairedDepositAmt >= _pairedDepositMin, \"BumperZap: paired Amt < min\");\n\n        // transfer all paired tokens from sender to this contract\n        IERC20 paired = IERC20(_paired);\n        uint256 pairedBalBefore = paired.balanceOf(address(this));\n        paired.safeTransferFrom(msg.sender, address(this), _bcTokenDepositAmt + _pairedDepositAmt);\n        require(paired.balanceOf(address(this)) - pairedBalBefore == _bcTokenDepositAmt + _pairedDepositAmt, \"BumperZap: paired transfer failed\");\n\n        // mmDeposit paired to Bumper to receive bcTokens\n        ( , , , IBERC20 bcToken, , , , ) = core.pairs(_col, _paired, _expiry, _mintRatio);\n        require(address(bcToken) != address(0), \"BumperZap: pair not exist\");\n        uint256 bcTokenBalBefore = bcToken.balanceOf(address(this));\n        _approve(paired, address(core), _bcTokenDepositAmt);\n        core.mmDeposit(_col, _paired, _expiry, _mintRatio, _bcTokenDepositAmt);\n        uint256 bcTokenReceived = bcToken.balanceOf(address(this)) - bcTokenBalBefore;\n        require(_bcTokenDepositAmt <= bcTokenReceived, \"BumperZap: bcToken Amt > minted\");\n\n        // add liquidity for sender\n        _approve(bcToken, address(router), _bcTokenDepositAmt);\n        _approve(paired, address(router), _pairedDepositAmt);\n        router.addLiquidity(\n            address(bcToken),\n            _paired,\n            _bcTokenDepositAmt, \n            _pairedDepositAmt, \n            _bcTokenDepositMin,\n            _pairedDepositMin,\n            msg.sender,\n            _deadline\n        );\n\n        // sending leftover tokens (since the beginning of user call) back to sender\n        _transferRem(bcToken, bcTokenBalBefore);\n        _transferRem(paired, pairedBalBefore);\n    }\n\n    function _deposit(\n        address _col, \n        address _paired,\n        uint48 _expiry,\n        uint256 _mintRatio,\n        uint256 _colAmt\n    ) private returns (address bcTokenAddr, uint256 bcTokenReceived, uint256 bcTokenBalBefore) {\n        ( , , , IBERC20 bcToken, IBERC20 brToken, , , ) = core.pairs(_col, _paired, _expiry, _mintRatio);\n        require(address(bcToken) != address(0) && address(brToken) != address(0), \"BumperZap: pair not exist\");\n        // receive collateral from sender\n        IERC20 collateral = IERC20(_col);\n        uint256 colBalBefore = collateral.balanceOf(address(this));\n        collateral.safeTransferFrom(msg.sender, address(this), _colAmt);\n        uint256 received = collateral.balanceOf(address(this)) - colBalBefore;\n        require(received > 0, \"BumperZap: col transfer failed\");\n\n        // deposit collateral to Bumper\n        bcTokenBalBefore = bcToken.balanceOf(address(this));\n        uint256 brTokenBalBefore = brToken.balanceOf(address(this));\n        _approve(collateral, address(core), received);\n        core.deposit(_col, _paired, _expiry, _mintRatio, received);\n\n        // send brToken back to sender, and record received bcTokens\n        _transferRem(brToken, brTokenBalBefore);\n        bcTokenReceived = bcToken.balanceOf(address(this)) - bcTokenBalBefore;\n        bcTokenAddr = address(bcToken);\n    }\n\n    function _approve(IERC20 _token, address _spender, uint256 _amount) private {\n        uint256 allowance = _token.allowance(address(this), _spender);\n        if (allowance < _amount) {\n            if (allowance != 0) {\n                _token.safeApprove(_spender, 0);\n            }\n            _token.safeApprove(_spender, type(uint256).max);\n        }\n    }\n\n    function _permit(IERC20Permit _token, Permit calldata permit) private {\n        _token.permit(\n            permit.owner,\n            permit.spender,\n            permit.amount,\n            permit.deadline,\n            permit.v,\n            permit.r,\n            permit.s\n        );\n    }\n\n    // transfer remaining amount (since the beginnning of action) back to sender\n    function _transferRem(IERC20 _token, uint256 _balBefore) private {\n        uint256 tokensLeftover = _token.balanceOf(address(this)) - _balBefore;\n        if (tokensLeftover > 0) {\n            _token.safeTransfer(msg.sender, tokensLeftover);\n        }\n    }\n}",
  "sourcePath": "/Users/cs/Project/bumper/bumper/contracts/BumperZap.sol",
  "compiler": {
    "name": "solc",
    "version": "0.8.3+commit.8d00100c.Emscripten.clang"
  },
  "schemaVersion": "3.3.4",
  "updatedAt": "2021-04-17T03:39:31.402Z",
  "devdoc": {
    "author": "alan Main logic is in _depositAndAddLiquidity & _depositAndSwapToPaired",
    "kind": "dev",
    "methods": {
      "acceptOwnership()": {
        "details": "Transfers ownership of the contract to a new account (`newOwner`). Can only be called by the owner candidate."
      },
      "owner()": {
        "details": "Returns the address of the current owner."
      },
      "renounceOwnership()": {
        "details": "Leaves the contract without owner. It will not be possible to call `onlyOwner` functions anymore. Can only be called by the current owner. NOTE: Renouncing ownership will leave the contract without an owner, thereby removing any functionality that is only available to the owner."
      },
      "transferOwnership(address)": {
        "details": "Transfers ownership of the contract to a new account (`newOwner`). Can only be called by the current owner."
      }
    },
    "title": "Bumper Protocol Zap",
    "version": 1
  },
  "userdoc": {
    "kind": "user",
    "methods": {
      "collect(address)": {
        "notice": "This contract should never hold any funds. Any tokens sent here by accident can be retreived."
      },
      "depositAndAddLiquidity(address,address,uint48,uint256,uint256,uint256,uint256,uint256,uint256,uint256)": {
        "notice": "Deposit collateral `_col` to receive LP tokens and brTokens  - deposits collateral to receive bcTokens and brTokens  - transfers paired token from sender  - bcTokens and `_paired` tokens are added as liquidity to receive LP tokens  - LP tokens and brTokens are sent to sender"
      },
      "depositAndSwapToPaired(address,address,uint48,uint256,uint256,uint256,address[],uint256)": {
        "notice": "Deposit collateral `_col` to receive paired token `_paired` and brTokens  - deposits collateral to receive bcTokens and brTokens  - bcTokens are swapped into paired token through router  - paired token and brTokens are sent to sender"
      },
      "getAmountOut(uint256,address[])": {
        "notice": "check received amount from swap, tokenOut is always the last in array"
      }
    },
    "version": 1
  },
  "db": {
    "callBytecode": {
      "id": "0x3eacc80249a4fecd6168e1f4806e20dfbaecd7c2b14d8c881e4aa2628b1350f2"
    },
    "createBytecode": {
      "id": "0x3b330be3a4a621eaa2efed2c4de887d64075773f865af00efabaf7d68517227d"
    },
    "contract": {
      "id": "0x574db573823b9c64d09a24e1df77d109e68ae0f5f9c30555ec784727ee2a6012"
    }
  }
}