{
  "contractName": "BumperCore",
  "abi": [
    {
      "anonymous": false,
      "inputs": [
        {
          "indexed": false,
          "internalType": "string",
          "name": "_type",
          "type": "string"
        },
        {
          "indexed": false,
          "internalType": "address",
          "name": "old",
          "type": "address"
        },
        {
          "indexed": false,
          "internalType": "address",
          "name": "_new",
          "type": "address"
        }
      ],
      "name": "AddressUpdated",
      "type": "event"
    },
    {
      "anonymous": false,
      "inputs": [
        {
          "indexed": false,
          "internalType": "address",
          "name": "bERC20Impl",
          "type": "address"
        },
        {
          "indexed": false,
          "internalType": "address",
          "name": "newImpl",
          "type": "address"
        }
      ],
      "name": "BERC20ImplUpdated",
      "type": "event"
    },
    {
      "anonymous": false,
      "inputs": [
        {
          "indexed": false,
          "internalType": "address",
          "name": "",
          "type": "address"
        }
      ],
      "name": "BTokenCreated",
      "type": "event"
    },
    {
      "anonymous": false,
      "inputs": [
        {
          "indexed": false,
          "internalType": "address",
          "name": "col",
          "type": "address"
        },
        {
          "indexed": false,
          "internalType": "uint256",
          "name": "old",
          "type": "uint256"
        },
        {
          "indexed": false,
          "internalType": "uint256",
          "name": "_new",
          "type": "uint256"
        }
      ],
      "name": "CollateralUpdated",
      "type": "event"
    },
    {
      "anonymous": false,
      "inputs": [
        {
          "indexed": true,
          "internalType": "address",
          "name": "user",
          "type": "address"
        },
        {
          "indexed": true,
          "internalType": "address",
          "name": "collateral",
          "type": "address"
        },
        {
          "indexed": true,
          "internalType": "address",
          "name": "paired",
          "type": "address"
        },
        {
          "indexed": false,
          "internalType": "uint48",
          "name": "expiry",
          "type": "uint48"
        },
        {
          "indexed": false,
          "internalType": "uint256",
          "name": "mintRatio",
          "type": "uint256"
        },
        {
          "indexed": false,
          "internalType": "uint256",
          "name": "amount",
          "type": "uint256"
        }
      ],
      "name": "Collect",
      "type": "event"
    },
    {
      "anonymous": false,
      "inputs": [
        {
          "indexed": true,
          "internalType": "address",
          "name": "user",
          "type": "address"
        },
        {
          "indexed": true,
          "internalType": "address",
          "name": "collateral",
          "type": "address"
        },
        {
          "indexed": true,
          "internalType": "address",
          "name": "paired",
          "type": "address"
        },
        {
          "indexed": false,
          "internalType": "uint48",
          "name": "expiry",
          "type": "uint48"
        },
        {
          "indexed": false,
          "internalType": "uint256",
          "name": "mintRatio",
          "type": "uint256"
        },
        {
          "indexed": false,
          "internalType": "uint256",
          "name": "amount",
          "type": "uint256"
        }
      ],
      "name": "Deposit",
      "type": "event"
    },
    {
      "anonymous": false,
      "inputs": [
        {
          "indexed": false,
          "internalType": "uint256",
          "name": "old",
          "type": "uint256"
        },
        {
          "indexed": false,
          "internalType": "uint256",
          "name": "_new",
          "type": "uint256"
        }
      ],
      "name": "FlashLoanRateUpdated",
      "type": "event"
    },
    {
      "anonymous": false,
      "inputs": [
        {
          "indexed": true,
          "internalType": "address",
          "name": "user",
          "type": "address"
        },
        {
          "indexed": true,
          "internalType": "address",
          "name": "collateral",
          "type": "address"
        },
        {
          "indexed": true,
          "internalType": "address",
          "name": "paired",
          "type": "address"
        },
        {
          "indexed": false,
          "internalType": "uint48",
          "name": "expiry",
          "type": "uint48"
        },
        {
          "indexed": false,
          "internalType": "uint256",
          "name": "mintRatio",
          "type": "uint256"
        },
        {
          "indexed": false,
          "internalType": "uint256",
          "name": "amount",
          "type": "uint256"
        }
      ],
      "name": "MarketMakeDeposit",
      "type": "event"
    },
    {
      "anonymous": false,
      "inputs": [
        {
          "indexed": true,
          "internalType": "address",
          "name": "previousOwner",
          "type": "address"
        },
        {
          "indexed": true,
          "internalType": "address",
          "name": "newOwner",
          "type": "address"
        }
      ],
      "name": "OwnershipTransferred",
      "type": "event"
    },
    {
      "anonymous": false,
      "inputs": [
        {
          "indexed": true,
          "internalType": "address",
          "name": "previousOwner",
          "type": "address"
        },
        {
          "indexed": true,
          "internalType": "address",
          "name": "newOwner",
          "type": "address"
        }
      ],
      "name": "OwnershipWaitingTranfer",
      "type": "event"
    },
    {
      "anonymous": false,
      "inputs": [
        {
          "indexed": true,
          "internalType": "address",
          "name": "collateral",
          "type": "address"
        },
        {
          "indexed": true,
          "internalType": "address",
          "name": "paired",
          "type": "address"
        },
        {
          "indexed": false,
          "internalType": "uint48",
          "name": "expiry",
          "type": "uint48"
        },
        {
          "indexed": false,
          "internalType": "uint256",
          "name": "mintRatio",
          "type": "uint256"
        }
      ],
      "name": "PairAdded",
      "type": "event"
    },
    {
      "anonymous": false,
      "inputs": [
        {
          "indexed": false,
          "internalType": "bool",
          "name": "old",
          "type": "bool"
        },
        {
          "indexed": false,
          "internalType": "bool",
          "name": "_new",
          "type": "bool"
        }
      ],
      "name": "PausedStatusUpdated",
      "type": "event"
    },
    {
      "anonymous": false,
      "inputs": [
        {
          "indexed": true,
          "internalType": "address",
          "name": "user",
          "type": "address"
        },
        {
          "indexed": true,
          "internalType": "address",
          "name": "collateral",
          "type": "address"
        },
        {
          "indexed": true,
          "internalType": "address",
          "name": "paired",
          "type": "address"
        },
        {
          "indexed": false,
          "internalType": "uint48",
          "name": "expiry",
          "type": "uint48"
        },
        {
          "indexed": false,
          "internalType": "uint256",
          "name": "mintRatio",
          "type": "uint256"
        },
        {
          "indexed": false,
          "internalType": "uint256",
          "name": "amount",
          "type": "uint256"
        }
      ],
      "name": "Redeem",
      "type": "event"
    },
    {
      "anonymous": false,
      "inputs": [
        {
          "indexed": true,
          "internalType": "address",
          "name": "user",
          "type": "address"
        },
        {
          "indexed": true,
          "internalType": "address",
          "name": "collateral",
          "type": "address"
        },
        {
          "indexed": true,
          "internalType": "address",
          "name": "paired",
          "type": "address"
        },
        {
          "indexed": false,
          "internalType": "uint48",
          "name": "expiry",
          "type": "uint48"
        },
        {
          "indexed": false,
          "internalType": "uint256",
          "name": "mintRatio",
          "type": "uint256"
        },
        {
          "indexed": false,
          "internalType": "uint256",
          "name": "amount",
          "type": "uint256"
        }
      ],
      "name": "Repay",
      "type": "event"
    },
    {
      "inputs": [],
      "name": "FLASHLOAN_CALLBACK_SUCCESS",
      "outputs": [
        {
          "internalType": "bytes32",
          "name": "",
          "type": "bytes32"
        }
      ],
      "stateMutability": "view",
      "type": "function"
    },
    {
      "inputs": [],
      "name": "acceptOwnership",
      "outputs": [
        {
          "internalType": "address",
          "name": "newOwner",
          "type": "address"
        },
        {
          "internalType": "address",
          "name": "oldOwner",
          "type": "address"
        }
      ],
      "stateMutability": "nonpayable",
      "type": "function"
    },
    {
      "inputs": [],
      "name": "bERC20Impl",
      "outputs": [
        {
          "internalType": "address",
          "name": "",
          "type": "address"
        }
      ],
      "stateMutability": "view",
      "type": "function"
    },
    {
      "inputs": [
        {
          "internalType": "uint256",
          "name": "",
          "type": "uint256"
        }
      ],
      "name": "collaterals",
      "outputs": [
        {
          "internalType": "address",
          "name": "",
          "type": "address"
        }
      ],
      "stateMutability": "view",
      "type": "function"
    },
    {
      "inputs": [],
      "name": "feeReceiver",
      "outputs": [
        {
          "internalType": "address",
          "name": "",
          "type": "address"
        }
      ],
      "stateMutability": "view",
      "type": "function"
    },
    {
      "inputs": [
        {
          "internalType": "address",
          "name": "",
          "type": "address"
        }
      ],
      "name": "feesMap",
      "outputs": [
        {
          "internalType": "uint256",
          "name": "",
          "type": "uint256"
        }
      ],
      "stateMutability": "view",
      "type": "function"
    },
    {
      "inputs": [],
      "name": "flashLoanRate",
      "outputs": [
        {
          "internalType": "uint256",
          "name": "",
          "type": "uint256"
        }
      ],
      "stateMutability": "view",
      "type": "function"
    },
    {
      "inputs": [
        {
          "internalType": "address",
          "name": "",
          "type": "address"
        }
      ],
      "name": "minColRatioMap",
      "outputs": [
        {
          "internalType": "uint256",
          "name": "",
          "type": "uint256"
        }
      ],
      "stateMutability": "view",
      "type": "function"
    },
    {
      "inputs": [],
      "name": "oracle",
      "outputs": [
        {
          "internalType": "contract IOracle",
          "name": "",
          "type": "address"
        }
      ],
      "stateMutability": "view",
      "type": "function"
    },
    {
      "inputs": [],
      "name": "owner",
      "outputs": [
        {
          "internalType": "address",
          "name": "",
          "type": "address"
        }
      ],
      "stateMutability": "view",
      "type": "function"
    },
    {
      "inputs": [
        {
          "internalType": "address",
          "name": "",
          "type": "address"
        },
        {
          "internalType": "address",
          "name": "",
          "type": "address"
        },
        {
          "internalType": "uint48",
          "name": "",
          "type": "uint48"
        },
        {
          "internalType": "uint256",
          "name": "",
          "type": "uint256"
        }
      ],
      "name": "pairs",
      "outputs": [
        {
          "internalType": "bool",
          "name": "active",
          "type": "bool"
        },
        {
          "internalType": "uint48",
          "name": "expiry",
          "type": "uint48"
        },
        {
          "internalType": "address",
          "name": "pairedToken",
          "type": "address"
        },
        {
          "internalType": "contract IBERC20",
          "name": "bcToken",
          "type": "address"
        },
        {
          "internalType": "contract IBERC20",
          "name": "brToken",
          "type": "address"
        },
        {
          "internalType": "uint256",
          "name": "mintRatio",
          "type": "uint256"
        },
        {
          "internalType": "uint256",
          "name": "feeRate",
          "type": "uint256"
        },
        {
          "internalType": "uint256",
          "name": "colTotal",
          "type": "uint256"
        }
      ],
      "stateMutability": "view",
      "type": "function"
    },
    {
      "inputs": [],
      "name": "paused",
      "outputs": [
        {
          "internalType": "bool",
          "name": "",
          "type": "bool"
        }
      ],
      "stateMutability": "view",
      "type": "function"
    },
    {
      "inputs": [],
      "name": "renounceOwnership",
      "outputs": [],
      "stateMutability": "nonpayable",
      "type": "function"
    },
    {
      "inputs": [],
      "name": "responder",
      "outputs": [
        {
          "internalType": "address",
          "name": "",
          "type": "address"
        }
      ],
      "stateMutability": "view",
      "type": "function"
    },
    {
      "inputs": [
        {
          "internalType": "address",
          "name": "newOwner",
          "type": "address"
        }
      ],
      "name": "transferOwnership",
      "outputs": [],
      "stateMutability": "nonpayable",
      "type": "function"
    },
    {
      "inputs": [
        {
          "internalType": "address",
          "name": "_bERC20Impl",
          "type": "address"
        },
        {
          "internalType": "address",
          "name": "_feeReceiver",
          "type": "address"
        }
      ],
      "name": "initialize",
      "outputs": [],
      "stateMutability": "nonpayable",
      "type": "function"
    },
    {
      "inputs": [
        {
          "internalType": "address",
          "name": "_col",
          "type": "address"
        },
        {
          "internalType": "address",
          "name": "_paired",
          "type": "address"
        },
        {
          "internalType": "uint48",
          "name": "_expiry",
          "type": "uint48"
        },
        {
          "internalType": "uint256",
          "name": "_mintRatio",
          "type": "uint256"
        },
        {
          "internalType": "uint256",
          "name": "_bcTokenAmt",
          "type": "uint256"
        }
      ],
      "name": "mmDeposit",
      "outputs": [],
      "stateMutability": "nonpayable",
      "type": "function"
    },
    {
      "inputs": [
        {
          "internalType": "address",
          "name": "_col",
          "type": "address"
        },
        {
          "internalType": "address",
          "name": "_paired",
          "type": "address"
        },
        {
          "internalType": "uint48",
          "name": "_expiry",
          "type": "uint48"
        },
        {
          "internalType": "uint256",
          "name": "_mintRatio",
          "type": "uint256"
        },
        {
          "internalType": "uint256",
          "name": "_bcTokenAmt",
          "type": "uint256"
        },
        {
          "components": [
            {
              "internalType": "address",
              "name": "owner",
              "type": "address"
            },
            {
              "internalType": "address",
              "name": "spender",
              "type": "address"
            },
            {
              "internalType": "uint256",
              "name": "amount",
              "type": "uint256"
            },
            {
              "internalType": "uint256",
              "name": "deadline",
              "type": "uint256"
            },
            {
              "internalType": "uint8",
              "name": "v",
              "type": "uint8"
            },
            {
              "internalType": "bytes32",
              "name": "r",
              "type": "bytes32"
            },
            {
              "internalType": "bytes32",
              "name": "s",
              "type": "bytes32"
            }
          ],
          "internalType": "struct IBumperCore.Permit",
          "name": "_pairedPermit",
          "type": "tuple"
        }
      ],
      "name": "mmDepositWithPermit",
      "outputs": [],
      "stateMutability": "nonpayable",
      "type": "function"
    },
    {
      "inputs": [
        {
          "internalType": "address",
          "name": "_col",
          "type": "address"
        },
        {
          "internalType": "address",
          "name": "_paired",
          "type": "address"
        },
        {
          "internalType": "uint48",
          "name": "_expiry",
          "type": "uint48"
        },
        {
          "internalType": "uint256",
          "name": "_mintRatio",
          "type": "uint256"
        },
        {
          "internalType": "uint256",
          "name": "_colAmt",
          "type": "uint256"
        }
      ],
      "name": "deposit",
      "outputs": [],
      "stateMutability": "nonpayable",
      "type": "function"
    },
    {
      "inputs": [
        {
          "internalType": "address",
          "name": "_col",
          "type": "address"
        },
        {
          "internalType": "address",
          "name": "_paired",
          "type": "address"
        },
        {
          "internalType": "uint48",
          "name": "_expiry",
          "type": "uint48"
        },
        {
          "internalType": "uint256",
          "name": "_mintRatio",
          "type": "uint256"
        },
        {
          "internalType": "uint256",
          "name": "_colAmt",
          "type": "uint256"
        },
        {
          "components": [
            {
              "internalType": "address",
              "name": "owner",
              "type": "address"
            },
            {
              "internalType": "address",
              "name": "spender",
              "type": "address"
            },
            {
              "internalType": "uint256",
              "name": "amount",
              "type": "uint256"
            },
            {
              "internalType": "uint256",
              "name": "deadline",
              "type": "uint256"
            },
            {
              "internalType": "uint8",
              "name": "v",
              "type": "uint8"
            },
            {
              "internalType": "bytes32",
              "name": "r",
              "type": "bytes32"
            },
            {
              "internalType": "bytes32",
              "name": "s",
              "type": "bytes32"
            }
          ],
          "internalType": "struct IBumperCore.Permit",
          "name": "_colPermit",
          "type": "tuple"
        }
      ],
      "name": "depositWithPermit",
      "outputs": [],
      "stateMutability": "nonpayable",
      "type": "function"
    },
    {
      "inputs": [
        {
          "internalType": "address",
          "name": "_col",
          "type": "address"
        },
        {
          "internalType": "address",
          "name": "_paired",
          "type": "address"
        },
        {
          "internalType": "uint48",
          "name": "_expiry",
          "type": "uint48"
        },
        {
          "internalType": "uint256",
          "name": "_mintRatio",
          "type": "uint256"
        },
        {
          "internalType": "uint256",
          "name": "_bTokenAmt",
          "type": "uint256"
        }
      ],
      "name": "redeem",
      "outputs": [],
      "stateMutability": "nonpayable",
      "type": "function"
    },
    {
      "inputs": [
        {
          "internalType": "address",
          "name": "_col",
          "type": "address"
        },
        {
          "internalType": "address",
          "name": "_paired",
          "type": "address"
        },
        {
          "internalType": "uint48",
          "name": "_expiry",
          "type": "uint48"
        },
        {
          "internalType": "uint256",
          "name": "_mintRatio",
          "type": "uint256"
        },
        {
          "internalType": "uint256",
          "name": "_brTokenAmt",
          "type": "uint256"
        }
      ],
      "name": "repay",
      "outputs": [],
      "stateMutability": "nonpayable",
      "type": "function"
    },
    {
      "inputs": [
        {
          "internalType": "address",
          "name": "_col",
          "type": "address"
        },
        {
          "internalType": "address",
          "name": "_paired",
          "type": "address"
        },
        {
          "internalType": "uint48",
          "name": "_expiry",
          "type": "uint48"
        },
        {
          "internalType": "uint256",
          "name": "_mintRatio",
          "type": "uint256"
        },
        {
          "internalType": "uint256",
          "name": "_brTokenAmt",
          "type": "uint256"
        },
        {
          "components": [
            {
              "internalType": "address",
              "name": "owner",
              "type": "address"
            },
            {
              "internalType": "address",
              "name": "spender",
              "type": "address"
            },
            {
              "internalType": "uint256",
              "name": "amount",
              "type": "uint256"
            },
            {
              "internalType": "uint256",
              "name": "deadline",
              "type": "uint256"
            },
            {
              "internalType": "uint8",
              "name": "v",
              "type": "uint8"
            },
            {
              "internalType": "bytes32",
              "name": "r",
              "type": "bytes32"
            },
            {
              "internalType": "bytes32",
              "name": "s",
              "type": "bytes32"
            }
          ],
          "internalType": "struct IBumperCore.Permit",
          "name": "_pairedPermit",
          "type": "tuple"
        }
      ],
      "name": "repayWithPermit",
      "outputs": [],
      "stateMutability": "nonpayable",
      "type": "function"
    },
    {
      "inputs": [
        {
          "internalType": "address",
          "name": "_col",
          "type": "address"
        },
        {
          "internalType": "address",
          "name": "_paired",
          "type": "address"
        },
        {
          "internalType": "uint48",
          "name": "_expiry",
          "type": "uint48"
        },
        {
          "internalType": "uint256",
          "name": "_mintRatio",
          "type": "uint256"
        },
        {
          "internalType": "uint256",
          "name": "_bcTokenAmt",
          "type": "uint256"
        }
      ],
      "name": "collect",
      "outputs": [],
      "stateMutability": "nonpayable",
      "type": "function"
    },
    {
      "inputs": [
        {
          "internalType": "contract IERC20[]",
          "name": "_tokens",
          "type": "address[]"
        }
      ],
      "name": "collectFees",
      "outputs": [],
      "stateMutability": "nonpayable",
      "type": "function"
    },
    {
      "inputs": [
        {
          "internalType": "address",
          "name": "_col",
          "type": "address"
        },
        {
          "internalType": "address",
          "name": "_paired",
          "type": "address"
        },
        {
          "internalType": "uint48",
          "name": "_expiry",
          "type": "uint48"
        },
        {
          "internalType": "string",
          "name": "_expiryStr",
          "type": "string"
        },
        {
          "internalType": "uint256",
          "name": "_mintRatio",
          "type": "uint256"
        },
        {
          "internalType": "string",
          "name": "_mintRatioStr",
          "type": "string"
        },
        {
          "internalType": "uint256",
          "name": "_feeRate",
          "type": "uint256"
        }
      ],
      "name": "addPair",
      "outputs": [],
      "stateMutability": "nonpayable",
      "type": "function"
    },
    {
      "inputs": [
        {
          "internalType": "contract IERC3156FlashBorrower",
          "name": "_receiver",
          "type": "address"
        },
        {
          "internalType": "address",
          "name": "_token",
          "type": "address"
        },
        {
          "internalType": "uint256",
          "name": "_amount",
          "type": "uint256"
        },
        {
          "internalType": "bytes",
          "name": "_data",
          "type": "bytes"
        }
      ],
      "name": "flashLoan",
      "outputs": [
        {
          "internalType": "bool",
          "name": "",
          "type": "bool"
        }
      ],
      "stateMutability": "nonpayable",
      "type": "function"
    },
    {
      "inputs": [
        {
          "internalType": "uint256",
          "name": "_newRate",
          "type": "uint256"
        }
      ],
      "name": "setFlashLoanRate",
      "outputs": [],
      "stateMutability": "nonpayable",
      "type": "function"
    },
    {
      "inputs": [
        {
          "internalType": "address",
          "name": "_col",
          "type": "address"
        },
        {
          "internalType": "uint256",
          "name": "_minColRatio",
          "type": "uint256"
        }
      ],
      "name": "updateCollateral",
      "outputs": [],
      "stateMutability": "nonpayable",
      "type": "function"
    },
    {
      "inputs": [
        {
          "internalType": "address",
          "name": "_col",
          "type": "address"
        },
        {
          "internalType": "address",
          "name": "_paired",
          "type": "address"
        },
        {
          "internalType": "uint48",
          "name": "_expiry",
          "type": "uint48"
        },
        {
          "internalType": "uint256",
          "name": "_mintRatio",
          "type": "uint256"
        },
        {
          "internalType": "bool",
          "name": "_active",
          "type": "bool"
        }
      ],
      "name": "setPairActive",
      "outputs": [],
      "stateMutability": "nonpayable",
      "type": "function"
    },
    {
      "inputs": [
        {
          "internalType": "address",
          "name": "_address",
          "type": "address"
        }
      ],
      "name": "setFeeReceiver",
      "outputs": [],
      "stateMutability": "nonpayable",
      "type": "function"
    },
    {
      "inputs": [
        {
          "internalType": "address",
          "name": "_newImpl",
          "type": "address"
        }
      ],
      "name": "setBERC20Impl",
      "outputs": [],
      "stateMutability": "nonpayable",
      "type": "function"
    },
    {
      "inputs": [
        {
          "internalType": "bool",
          "name": "_paused",
          "type": "bool"
        }
      ],
      "name": "setPaused",
      "outputs": [],
      "stateMutability": "nonpayable",
      "type": "function"
    },
    {
      "inputs": [
        {
          "internalType": "address",
          "name": "_address",
          "type": "address"
        }
      ],
      "name": "setResponder",
      "outputs": [],
      "stateMutability": "nonpayable",
      "type": "function"
    },
    {
      "inputs": [
        {
          "internalType": "address",
          "name": "_address",
          "type": "address"
        }
      ],
      "name": "setOracle",
      "outputs": [],
      "stateMutability": "nonpayable",
      "type": "function"
    },
    {
      "inputs": [],
      "name": "getCollaterals",
      "outputs": [
        {
          "internalType": "address[]",
          "name": "",
          "type": "address[]"
        }
      ],
      "stateMutability": "view",
      "type": "function"
    },
    {
      "inputs": [
        {
          "internalType": "address",
          "name": "_col",
          "type": "address"
        }
      ],
      "name": "getPairList",
      "outputs": [
        {
          "components": [
            {
              "internalType": "bool",
              "name": "active",
              "type": "bool"
            },
            {
              "internalType": "uint48",
              "name": "expiry",
              "type": "uint48"
            },
            {
              "internalType": "address",
              "name": "pairedToken",
              "type": "address"
            },
            {
              "internalType": "contract IBERC20",
              "name": "bcToken",
              "type": "address"
            },
            {
              "internalType": "contract IBERC20",
              "name": "brToken",
              "type": "address"
            },
            {
              "internalType": "uint256",
              "name": "mintRatio",
              "type": "uint256"
            },
            {
              "internalType": "uint256",
              "name": "feeRate",
              "type": "uint256"
            },
            {
              "internalType": "uint256",
              "name": "colTotal",
              "type": "uint256"
            }
          ],
          "internalType": "struct IBumperCore.Pair[]",
          "name": "",
          "type": "tuple[]"
        }
      ],
      "stateMutability": "view",
      "type": "function"
    },
    {
      "inputs": [
        {
          "internalType": "address",
          "name": "_col",
          "type": "address"
        },
        {
          "internalType": "address",
          "name": "_paired",
          "type": "address"
        },
        {
          "internalType": "uint48",
          "name": "_expiry",
          "type": "uint48"
        },
        {
          "internalType": "uint256",
          "name": "_mintRatio",
          "type": "uint256"
        },
        {
          "internalType": "uint256",
          "name": "_bcTokenAmt",
          "type": "uint256"
        }
      ],
      "name": "viewCollectible",
      "outputs": [
        {
          "internalType": "uint256",
          "name": "colAmtToCollect",
          "type": "uint256"
        },
        {
          "internalType": "uint256",
          "name": "pairedAmtToCollect",
          "type": "uint256"
        }
      ],
      "stateMutability": "view",
      "type": "function"
    },
    {
      "inputs": [
        {
          "internalType": "address",
          "name": "_token",
          "type": "address"
        }
      ],
      "name": "maxFlashLoan",
      "outputs": [
        {
          "internalType": "uint256",
          "name": "",
          "type": "uint256"
        }
      ],
      "stateMutability": "view",
      "type": "function"
    },
    {
      "inputs": [
        {
          "internalType": "address",
          "name": "_token",
          "type": "address"
        },
        {
          "internalType": "uint256",
          "name": "_amount",
          "type": "uint256"
        }
      ],
      "name": "flashFee",
      "outputs": [
        {
          "internalType": "uint256",
          "name": "_fees",
          "type": "uint256"
        }
      ],
      "stateMutability": "view",
      "type": "function"
    },
    {
      "inputs": [],
      "name": "version",
      "outputs": [
        {
          "internalType": "string",
          "name": "",
          "type": "string"
        }
      ],
      "stateMutability": "pure",
      "type": "function"
    }
  ],
  "bytecode": "0x608060405234801561001057600080fd5b50614ef8806100206000396000f3fe608060405234801561001057600080fd5b50600436106102535760003560e01c8063715018a611610146578063b4118713116100c3578063efdcd97411610087578063efdcd9741461065c578063f10f689e1461066f578063f2fde38b14610682578063f5bf837414610695578063f88baf49146106a8578063ff994060146106bb57610253565b8063b4118713146105e8578063c7ddfb00146105fb578063d9d98ce41461060e578063eb3a495614610621578063ed9476c41461063457610253565b80637c990aab1161010a5780637c990aab1461057f5780637dc0d1d0146105925780638b37ede6146105aa5780638da5cb5b146105bd578063b3f00674146105d557610253565b8063715018a61461051457806378b926361461051c57806379ba5097146105315780637adbf973146105595780637c6204121461056c57610253565b806340aa607a116101d457806358d4df0c1161019857806358d4df0c146104ab5780635c975abb146104be5780635cffe9de146104db578063613255ab146104ee57806362e7a3c71461050157610253565b806340aa607a14610378578063485cc9551461044d5780634f4d3fb51461046057806354fd4d501461047357806358c0f7291461049857610253565b806324c1173b1161021b57806324c1173b146102e057806325efc91d1461030b5780632674ad861461031e57806332c8041d146103315780633ff87c8c1461035857610253565b80630d8d97321461025857806316c38b3c1461026d57806318ad9dcd146102805780631cabc527146102a95780631e43a7a1146102d7575b600080fd5b61026b6102663660046145a3565b6106ce565b005b61026b61027b3660046146b3565b6106ed565b61029361028e366004614390565b6107d5565b6040516102a09190614a28565b60405180910390f35b6102c96102b7366004614390565b60096020526000908152604090205481565b6040519081526020016102a0565b6102c960075481565b6102f36102ee366004614812565b610a85565b6040516001600160a01b0390911681526020016102a0565b6004546102f3906001600160a01b031681565b6006546102f3906001600160a01b031681565b6102c97f439148f0bbc682ca079e46d6e2c2f0c1e3b820f1a291b069d8882abf8cf18dd981565b6102c9610366366004614390565b600c6020526000908152604090205481565b6103f9610386366004614498565b600a60209081526000948552604080862082529385528385208152918452828420909152825290208054600182015460028301546003840154600485015460059095015460ff85169565ffffffffffff610100870416956001600160a01b03600160381b90910481169581169416929188565b60408051981515895265ffffffffffff90971660208901526001600160a01b039586169688019690965292841660608701529216608085015260a084019190915260c083015260e0820152610100016102a0565b61026b61045b3660046143ac565b610aaf565b61026b61046e36600461454b565b610c16565b60408051808201825260038152620312e360ec1b602082015290516102a09190614ae3565b61026b6104a6366004614643565b610f92565b61026b6104b9366004614812565b61101b565b6003546104cb9060ff1681565b60405190151581526020016102a0565b6104cb6104e9366004614703565b61108d565b6102c96104fc366004614390565b6113ff565b61026b61050f36600461454b565b61147f565b61026b6117de565b610524611860565b6040516102a091906149db565b6105396118c2565b604080516001600160a01b039384168152929091166020830152016102a0565b61026b610567366004614390565b611a41565b61026b61057a36600461454b565b611b28565b61026b61058d366004614390565b611ebc565b6003546102f39061010090046001600160a01b031681565b61026b6105b83660046143e4565b611f9b565b6102f36000546201000090046001600160a01b031690565b6005546102f3906001600160a01b031681565b61026b6105f63660046145a3565b6125c2565b61026b6106093660046144e6565b6125d9565b6102c961061c366004614618565b61265f565b61026b61062f3660046145a3565b6126a5565b61064761064236600461454b565b6126bc565b604080519283526020830191909152016102a0565b61026b61066a366004614390565b6128c2565b61026b61067d36600461454b565b6129a3565b61026b610690366004614390565b612ded565b61026b6106a3366004614618565b612edb565b61026b6106b6366004614390565b613040565b61026b6106c936600461454b565b613130565b6106d88582613579565b6106e58686868686611b28565b505050505050565b6107056000546201000090046001600160a01b031690565b6001600160a01b0316336001600160a01b0316148061072e57506004546001600160a01b031633145b61077f5760405162461bcd60e51b815260206004820152601b60248201527f42756d7065723a206e6f74206f776e65722f726573706f6e646572000000000060448201526064015b60405180910390fd5b6003546040805160ff9092161515825282151560208301527fba70ee08ab8a912e256c078d25892dd48d55ad05a53b266211c7adfc258a94fc910160405180910390a16003805460ff1916911515919091179055565b6001600160a01b0381166000908152600b60209081526040808320805482518185028101850190935280835260609493849084015b828210156108a957600084815260209081902060408051610100808201835260068702909301805460ff81161515835293840465ffffffffffff1682860152600160381b9093046001600160a01b03908116928201929092526001808401548316606083015260028401549092166080820152600383015460a0820152600483015460c082015260059092015460e0830152908352909201910161080a565b5050505090506000815167ffffffffffffffff8111156108d957634e487b7160e01b600052604160045260246000fd5b60405190808252806020026020018201604052801561094857816020015b604080516101008101825260008082526020808301829052928201819052606082018190526080820181905260a0820181905260c0820181905260e082015282526000199092019101816108f75790505b50905060005b8251811015610a7b57600083828151811061097957634e487b7160e01b600052603260045260246000fd5b6020908102919091018101516001600160a01b038089166000908152600a84526040808220818501518416835285528082208486015165ffffffffffff908116845290865281832060a08087015185529087529282902082516101008082018552825460ff81161515835290810490931697810197909752600160381b90910484169186019190915260018101548316606086015260028101549092166080850152600382015490840152600481015460c08401526005015460e08301528451909250849084908110610a5c57634e487b7160e01b600052603260045260246000fd5b6020026020010181905250508080610a7390614e49565b91505061094e565b509150505b919050565b60088181548110610a9557600080fd5b6000918252602090912001546001600160a01b0316905081565b600054610100900460ff1680610ac8575060005460ff16155b610ae45760405162461bcd60e51b815260040161077690614ba7565b600054610100900460ff16158015610b06576000805461ffff19166101011790555b6001600160a01b038316610b5c5760405162461bcd60e51b815260206004820152601f60248201527f42756d7065723a205f624552433230496d706c2063616e6e6f742062652030006044820152606401610776565b6001600160a01b038216610bb25760405162461bcd60e51b815260206004820181905260248201527f42756d7065723a205f66656552656365697665722063616e6e6f7420626520306044820152606401610776565b600680546001600160a01b038086166001600160a01b0319928316179092556005805492851692909116919091179055660305120c0f2000600755610bf5613646565b610bff6001600255565b8015610c11576000805461ff00191690555b505050565b60035460ff1615610c395760405162461bcd60e51b815260040161077690614b7f565b600280541415610c5b5760405162461bcd60e51b815260040161077690614c61565b60028080556001600160a01b038087166000908152600a602090815260408083208985168452825280832065ffffffffffff808a16855290835281842088855283529281902081516101008082018452825460ff81161515835290810490951693810193909352600160381b909304841690820152600182015483166060820152928101549091166080830152600381015460a08301819052600482015460c084015260059091015460e0830152610d255760405162461bcd60e51b815260040161077690614bf5565b806020015165ffffffffffff164211610d745760405162461bcd60e51b815260206004820152601160248201527042756d7065723a206e6f7420726561647960781b6044820152606401610776565b606081015160405163050d122f60e41b8152336004820152602481018490526001600160a01b03909116906350d122f090604401602060405180830381600087803b158015610dc257600080fd5b505af1158015610dd6573d6000803e3d6000fd5b505050506040513d601f19601f82011682018060405250810190610dfa91906146cf565b506000859050600082608001516001600160a01b03166318160ddd6040518163ffffffff1660e01b815260040160206040518083038186803b158015610e3f57600080fd5b505afa158015610e53573d6000803e3d6000fd5b505050506040513d601f19601f82011682018060405250810190610e7791906146eb565b905080610e9457610e8f82858560c00151600061370c565b610f27565b6000610eaa8460e001518a8a8760a0015161378c565b9050600081610eb98482614e06565b610ec39088614de7565b610ecd9190614cb0565b9050610ee084828760c00151600061370c565b6000610ef6878c88606001518960a001516138c9565b9050600083610f058684614de7565b610f0f9190614cb0565b9050610f228c828960c00151600161370c565b505050505b6040805165ffffffffffff88168152602081018790529081018590526001600160a01b0380891691908a169033907f38cf63ee33cea8cbe5b0fd69e370ef396f8c2e721bef4a4202a6aaacbb6b86ba906060015b60405180910390a450506001600255505050505050565b60005b81811015610c11576000838383818110610fbf57634e487b7160e01b600052603260045260246000fd5b9050602002016020810190610fd49190614390565b6001600160a01b038082166000908152600c6020526040812080549190556005549293509161100691849116836139e7565b5050808061101390614e49565b915050610f95565b6000546001600160a01b036201000090910416331461104c5760405162461bcd60e51b815260040161077690614c2c565b60075460408051918252602082018390527f969bf99940278564158e4ebc790361fc43dce3a22898bb69685a8a3ef692639d910160405180910390a1600755565b60035460009060ff16156110b35760405162461bcd60e51b815260040161077690614b7f565b6002805414156110d55760405162461bcd60e51b815260040161077690614c61565b600280556001600160a01b03851660009081526009602052604090205461113e5760405162461bcd60e51b815260206004820152601960248201527f42756d7065723a20746f6b656e206e6f7420616c6c6f776564000000000000006044820152606401610776565b6040516370a0823160e01b815230600482015285906000906001600160a01b038316906370a082319060240160206040518083038186803b15801561118257600080fd5b505afa158015611196573d6000803e3d6000fd5b505050506040513d601f19601f820116820180604052508101906111ba91906146eb565b90506111d06001600160a01b0383168988613a9e565b60006111dc888861265f565b90507f439148f0bbc682ca079e46d6e2c2f0c1e3b820f1a291b069d8882abf8cf18dd9896001600160a01b03166323e30c8b338b8b868c8c6040518763ffffffff1660e01b815260040161123596959493929190614982565b602060405180830381600087803b15801561124f57600080fd5b505af1158015611263573d6000803e3d6000fd5b505050506040513d601f19601f8201168201806040525081019061128791906146eb565b146112d45760405162461bcd60e51b815260206004820152601960248201527f49455243333135363a2043616c6c6261636b206661696c6564000000000000006044820152606401610776565b6040516370a0823160e01b815230600482015260009083906001600160a01b038616906370a082319060240160206040518083038186803b15801561131857600080fd5b505afa15801561132c573d6000803e3d6000fd5b505050506040513d601f19601f8201168201806040525081019061135091906146eb565b61135a9190614e06565b9050818110156113ac5760405162461bcd60e51b815260206004820152601760248201527f42756d7065723a206e6f7420656e6f75676820666565730000000000000000006044820152606401610776565b6001600160a01b0389166000908152600c60205260409020546113d0908290614c98565b6001600160a01b038a166000908152600c60205260409020555060019350505050600160025595945050505050565b6040516370a0823160e01b81523060048201526000906001600160a01b038316906370a082319060240160206040518083038186803b15801561144157600080fd5b505afa158015611455573d6000803e3d6000fd5b505050506040513d601f19601f8201168201806040525081019061147991906146eb565b92915050565b60035460ff16156114a25760405162461bcd60e51b815260040161077690614b7f565b6002805414156114c45760405162461bcd60e51b815260040161077690614c61565b60028080556001600160a01b038087166000908152600a602090815260408083208985168452825280832065ffffffffffff808a16855290835281842088855283529281902081516101008082018452825460ff81161515835290810490951693810193909352600160381b909304841690820152600182015483166060820152928101549091166080830152600381015460a08301819052600482015460c084015260059091015460e083015261158e5760405162461bcd60e51b815260040161077690614bf5565b806020015165ffffffffffff164211156115ea5760405162461bcd60e51b815260206004820152601e60248201527f42756d7065723a20657870697265642c20636f6c20666f7266656974656400006044820152606401610776565b608081015160405163050d122f60e41b8152336004820152602481018490526001600160a01b03909116906350d122f090604401602060405180830381600087803b15801561163857600080fd5b505af115801561164c573d6000803e3d6000fd5b505050506040513d601f19601f8201168201806040525081019061167091906146cf565b50606081015160405163050d122f60e41b8152336004820152602481018490526001600160a01b03909116906350d122f090604401602060405180830381600087803b1580156116bf57600080fd5b505af11580156116d3573d6000803e3d6000fd5b505050506040513d601f19601f820116820180604052508101906116f791906146cf565b50600061170e838884606001518560a001516138c9565b9050808260e001516117209190614e06565b6001600160a01b038089166000908152600a60209081526040808320938b16835292815282822065ffffffffffff8a16835281528282208883529052206005015560c08201516117759088908390600161370c565b6040805165ffffffffffff87168152602081018690529081018490526001600160a01b03808816919089169033907f5949b91c49ef1f9e84fa6e8d35ca00a4b055e9796b98a6cb3b4c549800be26d29060600160405180910390a4505060016002555050505050565b6000546001600160a01b036201000090910416331461180f5760405162461bcd60e51b815260040161077690614c2c565b60008054604051620100009091046001600160a01b0316907f8be0079c531659141344cd1fd0a4f28419497f9722a3daafe3b4186f6b6457e0908390a36000805462010000600160b01b0319169055565b606060088054806020026020016040519081016040528092919081815260200182805480156118b857602002820191906000526020600020905b81546001600160a01b0316815260019091019060200180831161189a575b5050505050905090565b60008054819033906201000090046001600160a01b03168114156119385760405162461bcd60e51b815260206004820152602760248201527f4f776e61626c653a2063616c6c65722073686f756c64206e6f74206265206f6c604482015266321037bbb732b960c91b6064820152608401610776565b6001546001600160a01b038281169116146119ab5760405162461bcd60e51b815260206004820152602d60248201527f4f776e61626c653a2063616c6c65722073686f756c64206265206e6577206f7760448201526c6e65722063616e64696461746560981b6064820152608401610776565b6119c36000546201000090046001600160a01b031690565b60008054600180546001600160a01b038082166201000090810262010000600160b01b03198616178087556001600160a01b0319909316948190048216949094179092556040519290048116965092945085928516917f8be0079c531659141344cd1fd0a4f28419497f9722a3daafe3b4186f6b6457e091a3509091565b6000546001600160a01b0362010000909104163314611a725760405162461bcd60e51b815260040161077690614c2c565b6001600160a01b038116611a985760405162461bcd60e51b815260040161077690614b48565b600354604080516060808252600690820152656f7261636c6560d01b60808201526101009092046001600160a01b039081166020840152831682820152517f7878dffb4ada647885186a00ea129964d140835f125808ba48b1f3974b5f81899181900360a00190a1600380546001600160a01b0390921661010002610100600160a81b0319909216919091179055565b60035460ff1615611b4b5760405162461bcd60e51b815260040161077690614b7f565b600280541415611b6d5760405162461bcd60e51b815260040161077690614c61565b60028080556001600160a01b038087166000908152600a602090815260408083208985168452825280832065ffffffffffff808a16855290835281842088855283529281902081516101008082018452825460ff81161515835290810490951693810193909352600160381b909304841690820152600182015483166060820152928101549091166080830152600381015460a0830152600481015460c08301526005015460e0820152611c218682613b01565b60608101516040516340c10f1960e01b8152336004820152602481018490526001600160a01b03909116906340c10f1990604401602060405180830381600087803b158015611c6f57600080fd5b505af1158015611c83573d6000803e3d6000fd5b505050506040513d601f19601f82011682018060405250810190611ca791906146cf565b50670de0b6b3a76400008160c0015183611cc19190614de7565b611ccb9190614cb0565b6001600160a01b0386166000908152600c6020526040902054611cee9190614c98565b6001600160a01b0386166000818152600c60205260408082209390935591516370a0823160e01b8152306004820152879291906370a082319060240160206040518083038186803b158015611d4257600080fd5b505afa158015611d56573d6000803e3d6000fd5b505050506040513d601f19601f82011682018060405250810190611d7a91906146eb565b9050611d916001600160a01b038316333087613d8a565b6040516370a0823160e01b8152306004820152849082906001600160a01b038516906370a082319060240160206040518083038186803b158015611dd457600080fd5b505afa158015611de8573d6000803e3d6000fd5b505050506040513d601f19601f82011682018060405250810190611e0c91906146eb565b611e169190614e06565b1015611e645760405162461bcd60e51b815260206004820152601e60248201527f42756d7065723a207472616e7366657220706169726564206661696c656400006044820152606401610776565b6040805165ffffffffffff88168152602081018790529081018590526001600160a01b0380891691908a169033907ff89b24401994a7cf1f9d01a3a8a4b3b1aed04b235aee921f4c57a71c55cd273890606001610f7b565b6000546001600160a01b0362010000909104163314611eed5760405162461bcd60e51b815260040161077690614c2c565b6001600160a01b038116611f135760405162461bcd60e51b815260040161077690614b48565b600454604080516060808252600990820152683932b9b837b73232b960b91b60808201526001600160a01b03928316602082015291831682820152517f7878dffb4ada647885186a00ea129964d140835f125808ba48b1f3974b5f81899181900360a00190a1600480546001600160a01b0319166001600160a01b0392909216919091179055565b6000546001600160a01b0362010000909104163314611fcc5760405162461bcd60e51b815260040161077690614c2c565b6001600160a01b03808a166000908152600a60209081526040808320938c16835292815282822065ffffffffffff8b168352815282822087835290522060030154156120505760405162461bcd60e51b815260206004820152601360248201527242756d7065723a20706169722065786973747360681b6044820152606401610776565b600084116120a05760405162461bcd60e51b815260206004820152601760248201527f42756d7065723a205f6d696e74526174696f203c3d20300000000000000000006044820152606401610776565b67016345785d8a000081106120f75760405162461bcd60e51b815260206004820152601e60248201527f42756d7065723a206665652072617465206d757374206265203c2031302500006044820152606401610776565b428765ffffffffffff161161214e5760405162461bcd60e51b815260206004820152601a60248201527f42756d7065723a2065787069727920696e2074686520706173740000000000006044820152606401610776565b6001600160a01b0389166000908152600960205260409020546121ac5760405162461bcd60e51b8152602060048201526016602482015275109d5b5c195c8e8818dbdb081b9bdd081b1a5cdd195960521b6044820152606401610776565b670de0b6b3a7640000600960008a6001600160a01b03166001600160a01b031681526020019081526020016000208190555060006040518061010001604052806001151581526020018965ffffffffffff1681526020018a6001600160a01b031681526020016122458c8c8c65ffffffffffff168c8c8b8b6040518060400160405280600381526020016242435f60e81b815250613dc2565b6001600160a01b031681526020016122868c8c8c65ffffffffffff168c8c8b8b6040518060400160405280600381526020016242525f60e81b815250613dc2565b6001600160a01b031681526020018681526020018381526020016000815250905080600a60008c6001600160a01b03166001600160a01b0316815260200190815260200160002060008b6001600160a01b03166001600160a01b0316815260200190815260200160002060008a65ffffffffffff1665ffffffffffff168152602001908152602001600020600087815260200190815260200160002060008201518160000160006101000a81548160ff02191690831515021790555060208201518160000160016101000a81548165ffffffffffff021916908365ffffffffffff16021790555060408201518160000160076101000a8154816001600160a01b0302191690836001600160a01b0316021790555060608201518160010160006101000a8154816001600160a01b0302191690836001600160a01b0316021790555060808201518160020160006101000a8154816001600160a01b0302191690836001600160a01b0316021790555060a0820151816003015560c0820151816004015560e08201518160050155905050600b60008b6001600160a01b03166001600160a01b0316815260200190815260200160002081908060018154018082558091505060019003906000526020600020906006020160009091909190915060008201518160000160006101000a81548160ff02191690831515021790555060208201518160000160016101000a81548165ffffffffffff021916908365ffffffffffff16021790555060408201518160000160076101000a8154816001600160a01b0302191690836001600160a01b0316021790555060608201518160010160006101000a8154816001600160a01b0302191690836001600160a01b0316021790555060808201518160020160006101000a8154816001600160a01b0302191690836001600160a01b0316021790555060a0820151816003015560c0820151816004015560e082015181600501555050886001600160a01b03168a6001600160a01b03167ff6f07254a3bcdf82a360535d1ae9b5af621d0b8f15987a488c089934299a058b8a886040516125ae92919065ffffffffffff929092168252602082015260400190565b60405180910390a350505050505050505050565b6125cc8582613579565b6106e586868686866129a3565b6000546001600160a01b036201000090910416331461260a5760405162461bcd60e51b815260040161077690614c2c565b6001600160a01b039485166000908152600a6020908152604080832096909716825294855285812065ffffffffffff949094168152928452848320918352925291909120805460ff1916911515919091179055565b6001600160a01b0382166000908152600960205260408120541561147957670de0b6b3a7640000600754836126949190614de7565b61269e9190614cb0565b9392505050565b6126af8682613579565b6106e58686868686613130565b6001600160a01b038086166000908152600a602090815260408083208885168452825280832065ffffffffffff8089168552908352818420878552835281842082516101008082018552825460ff81161515835290810490931694810194909452600160381b90910485169183019190915260018101548416606083015260028101549093166080820152600383015460a08201819052600484015460c083015260059093015460e0820152909182919015806127845750806020015165ffffffffffff1642105b1561278f57506128b8565b600081608001516001600160a01b03166318160ddd6040518163ffffffff1660e01b815260040160206040518083038186803b1580156127ce57600080fd5b505afa1580156127e2573d6000803e3d6000fd5b505050506040513d601f19601f8201168201806040525081019061280691906146eb565b905080612815578492506128b5565b600061282b8360e001518b8b8660a0015161378c565b905080670de0b6b3a76400008460c00151670de0b6b3a764000061284f9190614e06565b6128598585614e06565b612863908a614de7565b61286d9190614de7565b6128779190614cb0565b6128819190614cb0565b93506000612899878c86606001518760a001516138c9565b9050816128a68483614de7565b6128b09190614cb0565b955050505b50505b9550959350505050565b6000546001600160a01b03620100009091041633146128f35760405162461bcd60e51b815260040161077690614c2c565b6001600160a01b0381166129195760405162461bcd60e51b815260040161077690614b48565b600554604080516060808252600b908201526a3332b2a932b1b2b4bb32b960a91b60808201526001600160a01b03928316602082015291831682820152517f7878dffb4ada647885186a00ea129964d140835f125808ba48b1f3974b5f81899181900360a00190a1600580546001600160a01b0319166001600160a01b0392909216919091179055565b60035460ff16156129c65760405162461bcd60e51b815260040161077690614b7f565b6002805414156129e85760405162461bcd60e51b815260040161077690614c61565b60028080556001600160a01b038087166000908152600a602090815260408083208985168452825280832065ffffffffffff808a16855290835281842088855283529281902081516101008082018452825460ff81161515835290810490951693810193909352600160381b909304841690820152600182015483166060820152928101549091166080830152600381015460a08301819052600482015460c084015260059091015460e0830152612ab25760405162461bcd60e51b815260040161077690614bf5565b806020015165ffffffffffff16421115612b0e5760405162461bcd60e51b815260206004820152601e60248201527f42756d7065723a20657870697265642c20636f6c20666f7266656974656400006044820152606401610776565b608081015160405163050d122f60e41b8152336004820152602481018490526001600160a01b03909116906350d122f090604401602060405180830381600087803b158015612b5c57600080fd5b505af1158015612b70573d6000803e3d6000fd5b505050506040513d601f19601f82011682018060405250810190612b9491906146cf565b506040516370a0823160e01b815230600482015285906000906001600160a01b038316906370a082319060240160206040518083038186803b158015612bd957600080fd5b505afa158015612bed573d6000803e3d6000fd5b505050506040513d601f19601f82011682018060405250810190612c1191906146eb565b9050612c286001600160a01b038316333087613d8a565b6040516370a0823160e01b8152306004820152849082906001600160a01b038516906370a082319060240160206040518083038186803b158015612c6b57600080fd5b505afa158015612c7f573d6000803e3d6000fd5b505050506040513d601f19601f82011682018060405250810190612ca391906146eb565b612cad9190614e06565b1015612cfb5760405162461bcd60e51b815260206004820152601e60248201527f42756d7065723a207472616e7366657220706169726564206661696c656400006044820152606401610776565b670de0b6b3a76400008360c0015185612d149190614de7565b612d1e9190614cb0565b6001600160a01b0388166000908152600c6020526040902054612d419190614c98565b6001600160a01b0388166000908152600c6020526040812091909155608084015160a0850151612d759187918c91906138c9565b9050612d828933836139e7565b6040805165ffffffffffff89168152602081018890529081018690526001600160a01b03808a1691908b169033907f8dc37729261d32adc9274a73cd5c1309f534924b9999461d0c4e1e36c1f279979060600160405180910390a45050600160025550505050505050565b6000546001600160a01b0362010000909104163314612e1e5760405162461bcd60e51b815260040161077690614c2c565b6001600160a01b038116612e835760405162461bcd60e51b815260206004820152602660248201527f4f776e61626c653a206e6577206f776e657220697320746865207a65726f206160448201526564647265737360d01b6064820152608401610776565b600180546001600160a01b0319166001600160a01b038381169182179092556000805460405192936201000090910416917f0abbb2700a8df1fb8a66e9839d11499461a78e5568b9c5cd283283c134ebb2b99190a350565b6000546001600160a01b0362010000909104163314612f0c5760405162461bcd60e51b815260040161077690614c2c565b6706f05b59d3b200008111612f635760405162461bcd60e51b815260206004820152601a60248201527f42756d7065723a206d696e20636f6c526174696f203c203530250000000000006044820152606401610776565b6001600160a01b0382166000818152600960209081526040918290205482519384529083015281018290527f3644d2a390eea00a34467e13ab98e7f12fef446495d773df2d880d49cda51f909060600160405180910390a16001600160a01b03821660009081526009602052604090205461302457600880546001810182556000919091527ff3f7a9fe364faab93b216da50a3214154f22a0a2b415b23a84c8169e8b636ee30180546001600160a01b0319166001600160a01b0384161790555b6001600160a01b03909116600090815260096020526040902055565b6000546001600160a01b03620100009091041633146130715760405162461bcd60e51b815260040161077690614c2c565b6001600160a01b0381166130c75760405162461bcd60e51b815260206004820152601c60248201527f42756d7065723a205f6e6577496d706c2063616e6e6f742062652030000000006044820152606401610776565b600654604080516001600160a01b03928316815291831660208301527fa22effefa6cbd6ea25a7f9cc68aa131cfa3e169d4599bbfe436acb7b35816d2a910160405180910390a1600680546001600160a01b0319166001600160a01b0392909216919091179055565b60035460ff16156131535760405162461bcd60e51b815260040161077690614b7f565b6002805414156131755760405162461bcd60e51b815260040161077690614c61565b60028080556001600160a01b038087166000908152600a602090815260408083208985168452825280832065ffffffffffff808a16855290835281842088855283529281902081516101008082018452825460ff81161515835290810490951693810193909352600160381b909304841690820152600182015483166060820152928101549091166080830152600381015460a0830152600481015460c08301526005015460e08201526132298682613b01565b6040516370a0823160e01b815230600482015286906000906001600160a01b038316906370a082319060240160206040518083038186803b15801561326d57600080fd5b505afa158015613281573d6000803e3d6000fd5b505050506040513d601f19601f820116820180604052508101906132a591906146eb565b90506132bc6001600160a01b038316333087613d8a565b6040516370a0823160e01b815230600482015260009082906001600160a01b038516906370a082319060240160206040518083038186803b15801561330057600080fd5b505afa158015613314573d6000803e3d6000fd5b505050506040513d601f19601f8201168201806040525081019061333891906146eb565b6133429190614e06565b9050600081116133945760405162461bcd60e51b815260206004820152601760248201527f42756d7065723a207472616e73666572206661696c65640000000000000000006044820152606401610776565b808460e001516133a49190614c98565b6001600160a01b03808b166000908152600a60209081526040808320938d16835292815282822065ffffffffffff8c16835281528282208a835290529081206005019190915560a08501516133fe9083908c908c9061378c565b60608601516040516340c10f1960e01b8152336004820152602481018390529192506001600160a01b0316906340c10f1990604401602060405180830381600087803b15801561344d57600080fd5b505af1158015613461573d6000803e3d6000fd5b505050506040513d601f19601f8201168201806040525081019061348591906146cf565b5060808501516040516340c10f1960e01b8152336004820152602481018390526001600160a01b03909116906340c10f1990604401602060405180830381600087803b1580156134d457600080fd5b505af11580156134e8573d6000803e3d6000fd5b505050506040513d601f19601f8201168201806040525081019061350c91906146cf565b506040805165ffffffffffff8a168152602081018990529081018390526001600160a01b03808b1691908c169033907fc9d09ee26933aa24a0e71b15839b0df8f48a32870a7a3d54bacece2372ec9b6e9060600160405180910390a4505060016002555050505050505050565b6001600160a01b03821663d505accf6135956020840184614390565b6135a56040850160208601614390565b604085013560608601356135bf60a088016080890161482a565b6040516001600160e01b031960e088901b1681526001600160a01b0395861660048201529490931660248501526044840191909152606483015260ff16608482015260a084013560a482015260c084013560c482015260e401600060405180830381600087803b15801561363257600080fd5b505af11580156106e5573d6000803e3d6000fd5b600054610100900460ff168061365f575060005460ff16155b61367b5760405162461bcd60e51b815260040161077690614ba7565b600054610100900460ff1615801561369d576000805461ffff19166101011790555b6000805462010000600160b01b03191633620100008102919091178255600180546001600160a01b0319169055604051909182917f8be0079c531659141344cd1fd0a4f28419497f9722a3daafe3b4186f6b6457e0908290a3508015613709576000805461ff00191690555b50565b6000670de0b6b3a76400006137218486614de7565b61372b9190614cb0565b9050613741853361373c8488614e06565b6139e7565b8115613785576001600160a01b0385166000908152600c602052604090205461376b908290614c98565b6001600160a01b0386166000908152600c60205260409020555b5050505050565b600080846001600160a01b031663313ce5676040518163ffffffff1660e01b815260040160206040518083038186803b1580156137c857600080fd5b505afa1580156137dc573d6000803e3d6000fd5b505050506040513d601f19601f820116820180604052508101906138009190614846565b90506000846001600160a01b031663313ce5676040518163ffffffff1660e01b815260040160206040518083038186803b15801561383d57600080fd5b505afa158015613851573d6000803e3d6000fd5b505050506040513d601f19601f820116820180604052508101906138759190614846565b9050670de0b6b3a764000061388b83600a614d16565b61389683600a614d16565b6138a0878b614de7565b6138aa9190614de7565b6138b49190614cb0565b6138be9190614cb0565b979650505050505050565b600080846001600160a01b031663313ce5676040518163ffffffff1660e01b815260040160206040518083038186803b15801561390557600080fd5b505afa158015613919573d6000803e3d6000fd5b505050506040513d601f19601f8201168201806040525081019061393d9190614846565b90506000846001600160a01b031663313ce5676040518163ffffffff1660e01b815260040160206040518083038186803b15801561397a57600080fd5b505afa15801561398e573d6000803e3d6000fd5b505050506040513d601f19601f820116820180604052508101906139b29190614846565b90506139bf81600a614d16565b846139cb84600a614d16565b6139d5908a614de7565b6138aa90670de0b6b3a7640000614de7565b6040516370a0823160e01b81523060048201526000906001600160a01b038516906370a082319060240160206040518083038186803b158015613a2957600080fd5b505afa158015613a3d573d6000803e3d6000fd5b505050506040513d601f19601f82011682018060405250810190613a6191906146eb565b905081811015613a8457613a7f6001600160a01b0385168483613a9e565b613a98565b613a986001600160a01b0385168484613a9e565b50505050565b6040516001600160a01b038316602482015260448101829052610c1190849063a9059cbb60e01b906064015b60408051601f198184030181529190526020810180516001600160e01b03166001600160e01b031990931692909217909152614059565b60a0810151613b225760405162461bcd60e51b815260040161077690614bf5565b8051613b685760405162461bcd60e51b815260206004820152601560248201527442756d7065723a207061697220696e61637469766560581b6044820152606401610776565b42816020015165ffffffffffff1611613bba5760405162461bcd60e51b8152602060048201526014602482015273109d5b5c195c8e881c185a5c88195e1c1a5c995960621b6044820152606401610776565b60035461010090046001600160a01b031615613d8657600354604051635708447d60e01b81526001600160a01b03848116600483015260009261010090041690635708447d9060240160206040518083038186803b158015613c1b57600080fd5b505afa158015613c2f573d6000803e3d6000fd5b505050506040513d601f19601f82011682018060405250810190613c5391906146eb565b90508015610c11576003546040838101519051635708447d60e01b81526001600160a01b039182166004820152600092610100900490911690635708447d9060240160206040518083038186803b158015613cad57600080fd5b505afa158015613cc1573d6000803e3d6000fd5b505050506040513d601f19601f82011682018060405250810190613ce591906146eb565b90508015613a985760a08301516001600160a01b0385166000908152600960205260409020548291613d1691614de7565b613d209190614de7565b613d39836ec097ce7bc90715b34b9f1000000000614de7565b11613a985760405162461bcd60e51b815260206004820181905260248201527f42756d7065723a20636f6c6c61746572616c20707269636520746f6f206c6f776044820152606401610776565b5050565b6040516001600160a01b0380851660248301528316604482015260648101829052613a989085906323b872dd60e01b90608401613aca565b600080886001600160a01b031663313ce5676040518163ffffffff1660e01b815260040160206040518083038186803b158015613dfe57600080fd5b505afa158015613e12573d6000803e3d6000fd5b505050506040513d601f19601f82011682018060405250810190613e369190614846565b905060ff8116613e44575060125b6000838b6001600160a01b03166395d89b416040518163ffffffff1660e01b815260040160006040518083038186803b158015613e8057600080fd5b505afa158015613e94573d6000803e3d6000fd5b505050506040513d6000823e601f3d908101601f19168201604052613ebc9190810190614774565b87878d6001600160a01b03166395d89b416040518163ffffffff1660e01b815260040160006040518083038186803b158015613ef757600080fd5b505afa158015613f0b573d6000803e3d6000fd5b505050506040513d6000823e601f3d908101601f19168201604052613f339190810190614774565b8c8c604051602001613f4b9796959493929190614909565b604051602081830303815290604052905060008b8b8b898989604051602001613f799695949392919061488e565b60408051601f198184030181529190528051602090910120600654909150613faa906001600160a01b03168261412b565b604051630b127b6360e11b81529094506001600160a01b03851690631624f6c690613fdb9085908790600401614af6565b600060405180830381600087803b158015613ff557600080fd5b505af1158015614009573d6000803e3d6000fd5b50506040516001600160a01b03871681527ff9bfa5d113ced1d9f872ebc450e408e0517628167d97b540cb96d83fd0673ddd9250602001905060405180910390a150505098975050505050505050565b60006140ae826040518060400160405280602081526020017f5361666545524332303a206c6f772d6c6576656c2063616c6c206661696c6564815250856001600160a01b03166141cb9092919063ffffffff16565b805190915015610c1157808060200190518101906140cc91906146cf565b610c115760405162461bcd60e51b815260206004820152602a60248201527f5361666545524332303a204552433230206f7065726174696f6e20646964206e6044820152691bdd081cdd58d8d9595960b21b6064820152608401610776565b6000604051733d602d80600a3d3981f3363d3d373d3d3d363d7360601b81528360601b60148201526e5af43d82803e903d91602b57fd5bf360881b6028820152826037826000f59150506001600160a01b0381166114795760405162461bcd60e51b815260206004820152601760248201527f455243313136373a2063726561746532206661696c65640000000000000000006044820152606401610776565b60606141da84846000856141e2565b949350505050565b6060824710156142435760405162461bcd60e51b815260206004820152602660248201527f416464726573733a20696e73756666696369656e742062616c616e636520666f6044820152651c8818d85b1b60d21b6064820152608401610776565b843b6142915760405162461bcd60e51b815260206004820152601d60248201527f416464726573733a2063616c6c20746f206e6f6e2d636f6e74726163740000006044820152606401610776565b600080866001600160a01b031685876040516142ad91906148ed565b60006040518083038185875af1925050503d80600081146142ea576040519150601f19603f3d011682016040523d82523d6000602084013e6142ef565b606091505b50915091506138be8282866060831561430957508161269e565b8251156143195782518084602001fd5b8160405162461bcd60e51b81526004016107769190614ae3565b60008083601f840112614344578182fd5b50813567ffffffffffffffff81111561435b578182fd5b60208301915083602082850101111561437357600080fd5b9250929050565b803565ffffffffffff81168114610a8057600080fd5b6000602082840312156143a1578081fd5b813561269e81614e90565b600080604083850312156143be578081fd5b82356143c981614e90565b915060208301356143d981614e90565b809150509250929050565b600080600080600080600080600060e08a8c031215614401578485fd5b893561440c81614e90565b985060208a013561441c81614e90565b975061442a60408b0161437a565b965060608a013567ffffffffffffffff80821115614446578687fd5b6144528d838e01614333565b909850965060808c0135955060a08c0135915080821115614471578485fd5b5061447e8c828d01614333565b9a9d999c50979a9699959894979660c00135949350505050565b600080600080608085870312156144ad578384fd5b84356144b881614e90565b935060208501356144c881614e90565b92506144d66040860161437a565b9396929550929360600135925050565b600080600080600060a086880312156144fd578081fd5b853561450881614e90565b9450602086013561451881614e90565b93506145266040870161437a565b925060608601359150608086013561453d81614ea5565b809150509295509295909350565b600080600080600060a08688031215614562578081fd5b853561456d81614e90565b9450602086013561457d81614e90565b935061458b6040870161437a565b94979396509394606081013594506080013592915050565b6000806000806000808688036101808112156145bd578485fd5b87356145c881614e90565b965060208801356145d881614e90565b95506145e66040890161437a565b9450606088013593506080880135925060e0609f1982011215614607578182fd5b5060a0870190509295509295509295565b6000806040838503121561462a578182fd5b823561463581614e90565b946020939093013593505050565b60008060208385031215614655578182fd5b823567ffffffffffffffff8082111561466c578384fd5b818501915085601f83011261467f578384fd5b81358181111561468d578485fd5b8660208260051b85010111156146a1578485fd5b60209290920196919550909350505050565b6000602082840312156146c4578081fd5b813561269e81614ea5565b6000602082840312156146e0578081fd5b815161269e81614ea5565b6000602082840312156146fc578081fd5b5051919050565b60008060008060006080868803121561471a578283fd5b853561472581614e90565b9450602086013561473581614e90565b935060408601359250606086013567ffffffffffffffff811115614757578182fd5b61476388828901614333565b969995985093965092949392505050565b600060208284031215614785578081fd5b815167ffffffffffffffff8082111561479c578283fd5b818401915084601f8301126147af578283fd5b8151818111156147c1576147c1614e7a565b604051601f8201601f19908116603f011681019083821181831017156147e9576147e9614e7a565b81604052828152876020848701011115614801578586fd5b6138be836020830160208801614e1d565b600060208284031215614823578081fd5b5035919050565b60006020828403121561483b578081fd5b813561269e81614eb3565b600060208284031215614857578081fd5b815161269e81614eb3565b6000815180845261487a816020860160208601614e1d565b601f01601f19169290920160200192915050565b60006bffffffffffffffffffffffff19808960601b168352808860601b16601484015250856028830152838560488401378382016048810182815284516148d9818360208901614e1d565b919091016048019998505050505050505050565b600082516148ff818460208701614e1d565b9190910192915050565b6000885161491b818460208d01614e1d565b88519083019061492f818360208d01614e1d565b605f60f81b910181815290878960018401376001918801918201819052865161495f816002850160208b01614e1d565b600292019182015283856003830137909201600301918252509695505050505050565b6001600160a01b03878116825286166020820152604081018590526060810184905260a06080820181905281018290526000828460c084013781830160c090810191909152601f909201601f1916010195945050505050565b6020808252825182820181905260009190848201906040850190845b81811015614a1c5783516001600160a01b0316835292840192918401916001016149f7565b50909695505050505050565b602080825282518282018190526000919060409081850190868401855b82811015614ad65781518051151585528681015165ffffffffffff1687860152858101516001600160a01b031686860152606080820151614a90828801826001600160a01b03169052565b50506080818101516001600160a01b03169086015260a0808201519086015260c0808201519086015260e090810151908501526101009093019290850190600101614a45565b5091979650505050505050565b60006020825261269e6020830184614862565b6000606082526016606083015275213ab6b832b910283937ba37b1b7b610312a37b5b2b760511b608083015260a06020830152614b3660a0830185614862565b905060ff831660408301529392505050565b6020808252601b908201527f42756d7065723a20616464726573732063616e6e6f7420626520300000000000604082015260600190565b6020808252600e908201526d109d5b5c195c8e881c185d5cd95960921b604082015260600190565b6020808252602e908201527f496e697469616c697a61626c653a20636f6e747261637420697320616c72656160408201526d191e481a5b9a5d1a585b1a5e995960921b606082015260800190565b6020808252601b908201527f42756d7065723a207061697220646f6573206e6f742065786973740000000000604082015260600190565b6020808252818101527f4f776e61626c653a2063616c6c6572206973206e6f7420746865206f776e6572604082015260600190565b6020808252601f908201527f5265656e7472616e637947756172643a207265656e7472616e742063616c6c00604082015260600190565b60008219821115614cab57614cab614e64565b500190565b600082614ccb57634e487b7160e01b81526012600452602481fd5b500490565b80825b6001808611614ce25750614d0d565b818704821115614cf457614cf4614e64565b80861615614d0157918102915b9490941c938002614cd3565b94509492505050565b600061269e60001960ff851684600082614d325750600161269e565b81614d3f5750600061269e565b8160018114614d555760028114614d5f57614d8c565b600191505061269e565b60ff841115614d7057614d70614e64565b6001841b915084821115614d8657614d86614e64565b5061269e565b5060208310610133831016604e8410600b8410161715614dbf575081810a83811115614dba57614dba614e64565b61269e565b614dcc8484846001614cd0565b808604821115614dde57614dde614e64565b02949350505050565b6000816000190483118215151615614e0157614e01614e64565b500290565b600082821015614e1857614e18614e64565b500390565b60005b83811015614e38578181015183820152602001614e20565b83811115613a985750506000910152565b6000600019821415614e5d57614e5d614e64565b5060010190565b634e487b7160e01b600052601160045260246000fd5b634e487b7160e01b600052604160045260246000fd5b6001600160a01b038116811461370957600080fd5b801515811461370957600080fd5b60ff8116811461370957600080fdfea26469706673582212204ad50cdd40c7f091f34e3d8eaefeff6e5467c8c4f2404009f677db2f4decd12464736f6c63430008030033",
  "immutableReferences": {},
  "source": "// SPDX-License-Identifier: MIT\n\npragma solidity ^0.8.0;\n\nimport \"@openzeppelin/contracts/proxy/Clones.sol\";\nimport \"@openzeppelin/contracts/proxy/utils/Initializable.sol\";\nimport \"@openzeppelin/contracts/utils/Create2.sol\";\nimport \"./ERC20/IERC20.sol\";\nimport \"./ERC20/IERC20Permit.sol\";\nimport \"./ERC20/IBERC20.sol\";\nimport \"./ERC20/SafeERC20.sol\";\nimport \"./interfaces/IERC3156FlashBorrower.sol\";\nimport \"./interfaces/IERC3156FlashLender.sol\";\nimport \"./interfaces/IBTokenProxy.sol\";\nimport \"./interfaces/IBumperCore.sol\";\nimport \"./interfaces/IOracle.sol\";\nimport \"./utils/Ownable.sol\";\nimport \"./utils/ReentrancyGuard.sol\";\n\n/**\n * @title BumperCore contract\n * @author crypto-pumpkin\n * Bumper Pair: collateral, paired token, expiry, mintRatio\n *  - ! Paired Token cannot be a deflationary token !\n *  - bTokens have same decimals of each paired token\n *  - all Ratios are 1e18\n *  - bTokens have same decimals as Paired Token\n *  - Collateral can be deflationary token, but not rebasing token\n */\ncontract BumperCore is Initializable, Ownable, ReentrancyGuard, IBumperCore, IERC3156FlashLender {\n  using SafeERC20 for IERC20;\n\n  // following ERC3156 https://eips.ethereum.org/EIPS/eip-3156\n  bytes32 public constant FLASHLOAN_CALLBACK_SUCCESS = keccak256(\"ERC3156FlashBorrower.onFlashLoan\");\n\n  bool public override paused;\n  IOracle public override oracle;\n  // like admin who can pause the project\n  address public override responder;\n  address public override feeReceiver;\n  address public override bERC20Impl;\n  uint256 public override flashLoanRate;\n\n  address[] public override collaterals;\n  /// @notice collateral => minimum collateralization ratio, paired token default to 1e18\n  /// unit 100% <==> 1e18\n  mapping(address => uint256) public override minColRatioMap;\n  /// @notice collateral => pairedToken => expiry => mintRatio => Pair\n  mapping(address => mapping(address => mapping(uint48 => mapping(uint256 => Pair)))) public override pairs;\n  mapping(address => Pair[]) private pairList;\n  mapping(address => uint256) public override feesMap;\n\n  modifier onlyNotPaused() {\n    require(!paused, \"Bumper: paused\");\n    _;\n  }\n\n  function initialize(address _bERC20Impl, address _feeReceiver) external initializer {\n    require(_bERC20Impl != address(0), \"Bumper: _bERC20Impl cannot be 0\");\n    require(_feeReceiver != address(0), \"Bumper: _feeReceiver cannot be 0\");\n    bERC20Impl = _bERC20Impl;\n    feeReceiver = _feeReceiver;\n    flashLoanRate = 0.00085 ether;\n    initializeOwner();\n    initializeReentrancyGuard();\n  }\n\n  /// @notice market make deposit, deposit paired Token to received bcTokens, considered as an immediately repaid loan\n  function mmDeposit(\n    address _col,\n    address _paired,\n    uint48 _expiry,\n    uint256 _mintRatio,\n    uint256 _bcTokenAmt\n  ) public override onlyNotPaused nonReentrant {\n    Pair memory pair = pairs[_col][_paired][_expiry][_mintRatio];\n    _validateDepositInputs(_col, pair);\n\n    pair.bcToken.mint(msg.sender, _bcTokenAmt);\n    feesMap[_paired] = feesMap[_paired] + _bcTokenAmt * pair.feeRate / 1e18;\n\n    // // record loan ammount to colTotal as it is equivalent to be an immediately repaid loan\n    // uint256 colAmount = _getColAmtFromBTokenAmt(_bcTokenAmt, _col, address(pair.bcToken), pair.mintRatio);\n    // pairs[_col][_paired][_expiry][_mintRatio].colTotal = pair.colTotal + colAmount;\n\n    // receive paired tokens from sender, deflationary token is not allowed\n    IERC20 pairedToken = IERC20(_paired);\n    uint256 pairedBalBefore =  pairedToken.balanceOf(address(this));\n    pairedToken.safeTransferFrom(msg.sender, address(this), _bcTokenAmt);\n    require(pairedToken.balanceOf(address(this)) - pairedBalBefore >= _bcTokenAmt, \"Bumper: transfer paired failed\");\n    emit MarketMakeDeposit(msg.sender, _col, _paired, _expiry, _mintRatio, _bcTokenAmt);\n  }\n\n  function mmDepositWithPermit(\n    address _col,\n    address _paired,\n    uint48 _expiry,\n    uint256 _mintRatio,\n    uint256 _bcTokenAmt,\n    Permit calldata _pairedPermit\n  ) external override {\n    _permit(_paired, _pairedPermit);\n    mmDeposit(_col, _paired, _expiry, _mintRatio, _bcTokenAmt);\n  }\n\n  /// @notice deposit collateral to a Bumper Pair, sender receives bcTokens and brTokens\n  function deposit(\n    address _col,\n    address _paired,\n    uint48 _expiry,\n    uint256 _mintRatio,\n    uint256 _colAmt\n  ) public override onlyNotPaused nonReentrant {\n    Pair memory pair = pairs[_col][_paired][_expiry][_mintRatio];\n    _validateDepositInputs(_col, pair);\n\n    // receive collateral\n    IERC20 collateral = IERC20(_col);\n    uint256 colBalBefore =  collateral.balanceOf(address(this));\n    collateral.safeTransferFrom(msg.sender, address(this), _colAmt);\n    uint256 received = collateral.balanceOf(address(this)) - colBalBefore;\n    require(received > 0, \"Bumper: transfer failed\");\n    pairs[_col][_paired][_expiry][_mintRatio].colTotal = pair.colTotal + received;\n\n    // mint bTokens for reveiced collateral\n    uint256 mintAmount = _getBTokenAmtFromColAmt(received, _col, _paired, pair.mintRatio);\n    pair.bcToken.mint(msg.sender, mintAmount);\n    pair.brToken.mint(msg.sender, mintAmount);\n    emit Deposit(msg.sender, _col, _paired, _expiry, _mintRatio, received);\n  }\n\n  function depositWithPermit(\n    address _col,\n    address _paired,\n    uint48 _expiry,\n    uint256 _mintRatio,\n    uint256 _colAmt,\n    Permit calldata _colPermit\n  ) external override {\n    _permit(_col, _colPermit);\n    deposit(_col, _paired, _expiry, _mintRatio, _colAmt);\n  }\n\n  /// @notice redeem with brTokens and bcTokens before expiry only, sender receives collateral, fees charged on collateral\n  function redeem(\n    address _col,\n    address _paired,\n    uint48 _expiry,\n    uint256 _mintRatio,\n    uint256 _bTokenAmt\n  ) external override onlyNotPaused nonReentrant {\n    Pair memory pair = pairs[_col][_paired][_expiry][_mintRatio];\n    require(pair.mintRatio != 0, \"Bumper: pair does not exist\");\n    require(block.timestamp <= pair.expiry, \"Bumper: expired, col forfeited\");\n    pair.brToken.burnByBumper(msg.sender, _bTokenAmt);\n    pair.bcToken.burnByBumper(msg.sender, _bTokenAmt);\n\n    // send collateral to sender\n    uint256 colAmountToPay = _getColAmtFromBTokenAmt(_bTokenAmt, _col, address(pair.bcToken), pair.mintRatio);\n    // once redeemed, it won't be considered as a loan for the pair anymore\n    pairs[_col][_paired][_expiry][_mintRatio].colTotal = pair.colTotal - colAmountToPay;\n    // accrue fees on payment\n    _sendAndAccuFees(IERC20(_col), colAmountToPay, pair.feeRate, true /* accrue */);\n    emit Redeem(msg.sender, _col, _paired, _expiry, _mintRatio, _bTokenAmt);\n  }\n\n  /// @notice repay with brTokens and paired token amount, sender receives collateral, no fees charged on collateral\n  function repay(\n    address _col,\n    address _paired,\n    uint48 _expiry,\n    uint256 _mintRatio,\n    uint256 _brTokenAmt\n  ) public override onlyNotPaused nonReentrant {\n    Pair memory pair = pairs[_col][_paired][_expiry][_mintRatio];\n    require(pair.mintRatio != 0, \"Bumper: pair does not exist\");\n    require(block.timestamp <= pair.expiry, \"Bumper: expired, col forfeited\");\n    pair.brToken.burnByBumper(msg.sender, _brTokenAmt);\n\n    // receive paired tokens from sender, deflationary token is not allowed\n    IERC20 pairedToken = IERC20(_paired);\n    uint256 pairedBalBefore =  pairedToken.balanceOf(address(this));\n    pairedToken.safeTransferFrom(msg.sender, address(this), _brTokenAmt);\n    require(pairedToken.balanceOf(address(this)) - pairedBalBefore >= _brTokenAmt, \"Bumper: transfer paired failed\");\n    feesMap[_paired] = feesMap[_paired] + _brTokenAmt * pair.feeRate / 1e18;\n\n    // send collateral back to sender\n    uint256 colAmountToPay = _getColAmtFromBTokenAmt(_brTokenAmt, _col, address(pair.brToken), pair.mintRatio);\n    _safeTransfer(IERC20(_col), msg.sender, colAmountToPay);\n    emit Repay(msg.sender, _col, _paired, _expiry, _mintRatio, _brTokenAmt);\n  }\n\n  function repayWithPermit(\n    address _col,\n    address _paired,\n    uint48 _expiry,\n    uint256 _mintRatio,\n    uint256 _brTokenAmt,\n    Permit calldata _pairedPermit\n  ) external override {\n    _permit(_paired, _pairedPermit);\n    repay(_col, _paired, _expiry, _mintRatio, _brTokenAmt);\n  }\n\n  /// @notice sender collect paired tokens by returning same amount of bcTokens to Bumper\n  function collect(\n    address _col,\n    address _paired,\n    uint48 _expiry,\n    uint256 _mintRatio,\n    uint256 _bcTokenAmt\n  ) external override onlyNotPaused nonReentrant {\n    Pair memory pair = pairs[_col][_paired][_expiry][_mintRatio];\n    require(pair.mintRatio != 0, \"Bumper: pair does not exist\");\n    require(block.timestamp > pair.expiry, \"Bumper: not ready\");\n    pair.bcToken.burnByBumper(msg.sender, _bcTokenAmt);\n\n    IERC20 pairedToken = IERC20(_paired);\n    uint256 brTokenAmtDefaulted = pair.brToken.totalSupply();\n    if (brTokenAmtDefaulted == 0) { // no default, send paired Token to sender\n      // no fees accrued as it is accrued on Borrower payment\n      _sendAndAccuFees(pairedToken, _bcTokenAmt, pair.feeRate, false /* accrue */);\n    } else {\n      // total amount of brTokens ever minted (converted from total collateral received, redeemed collateral not counted)\n      uint256 brTokenEverMinted = _getBTokenAmtFromColAmt(pair.colTotal, _col, _paired, pair.mintRatio);\n      // paired token amount to pay = bcToken amount * (1 - default ratio)\n      uint256 pairedTokenAmtToCollect = _bcTokenAmt * (brTokenEverMinted - brTokenAmtDefaulted) / brTokenEverMinted;\n      // no fees accrued as it is accrued on Borrower payment\n      _sendAndAccuFees(pairedToken, pairedTokenAmtToCollect, pair.feeRate, false /* accrue */);\n\n      // default collateral amount to pay = converted collateral amount (from bcTokenAmt) * default ratio\n      uint256 colAmount = _getColAmtFromBTokenAmt(_bcTokenAmt, _col, address(pair.bcToken), pair.mintRatio);\n      uint256 colAmountToCollect = colAmount * brTokenAmtDefaulted / brTokenEverMinted;\n      // accrue fees on defaulted collateral since it was never accrued\n      _sendAndAccuFees(IERC20(_col), colAmountToCollect, pair.feeRate, true /* accrue */);\n    }\n    emit Collect(msg.sender, _col, _paired,_expiry,  _mintRatio, _bcTokenAmt);\n  }\n\n  /// @notice anyone can call if they pay, no reason to prevent that. This will enable future xBumper or other fee related features\n  function collectFees(IERC20[] calldata _tokens) external override {\n    for (uint256 i = 0; i < _tokens.length; i++) {\n      IERC20 token = _tokens[i];\n      uint256 fee = feesMap[address(token)];\n      feesMap[address(token)] = 0;\n      _safeTransfer(token, feeReceiver, fee);\n    }\n  }\n\n  /**\n   * @notice add a new Bumper Pair\n   *  - Paired Token cannot be a deflationary token\n   *  - minColRatio is not respected if collateral is alreay added\n   *  - all Ratios are 1e18\n   */\n  function addPair(\n    address _col,\n    address _paired,\n    uint48 _expiry,\n    string calldata _expiryStr,\n    uint256 _mintRatio,\n    string calldata _mintRatioStr,\n    uint256 _feeRate\n  ) external override onlyOwner {\n    require(pairs[_col][_paired][_expiry][_mintRatio].mintRatio == 0, \"Bumper: pair exists\");\n    require(_mintRatio > 0, \"Bumper: _mintRatio <= 0\");\n    require(_feeRate < 0.1 ether, \"Bumper: fee rate must be < 10%\");\n    require(_expiry > block.timestamp, \"Bumper: expiry in the past\");\n    require(minColRatioMap[_col] > 0, \"Bumper: col not listed\");\n    minColRatioMap[_paired] = 1e18; // default paired token to 100% collateralization ratio as most of them are stablecoins, can be updated later.\n\n    Pair memory pair = Pair({\n      active: true,\n      feeRate: _feeRate,\n      mintRatio: _mintRatio,\n      expiry: _expiry,\n      pairedToken: _paired,\n      bcToken: IBERC20(_createBToken(_col, _paired, _expiry, _expiryStr, _mintRatioStr, \"BC_\")),\n      brToken: IBERC20(_createBToken(_col, _paired, _expiry, _expiryStr, _mintRatioStr, \"BR_\")),\n      colTotal: 0\n    });\n    pairs[_col][_paired][_expiry][_mintRatio] = pair;\n    pairList[_col].push(pair);\n    emit PairAdded(_col, _paired, _expiry, _mintRatio);\n  }\n\n  /**\n   * @notice allow flash loan borrow allowed tokens up to all core contracts' holdings\n   * _receiver will received the requested amount, and need to payback the loan amount + fees\n   * _receiver must implement IERC3156FlashBorrower\n   */\n  function flashLoan(\n    IERC3156FlashBorrower _receiver,\n    address _token,\n    uint256 _amount,\n    bytes calldata _data\n  ) public override onlyNotPaused nonReentrant returns (bool) {\n    require(minColRatioMap[_token] > 0, \"Bumper: token not allowed\");\n    IERC20 token = IERC20(_token);\n    uint256 tokenBalBefore = token.balanceOf(address(this));\n    token.safeTransfer(address(_receiver), _amount);\n    uint256 fees = flashFee(_token, _amount);\n    require(\n      _receiver.onFlashLoan(msg.sender, _token, _amount, fees, _data) == FLASHLOAN_CALLBACK_SUCCESS,\n      \"IERC3156: Callback failed\"\n    );\n    // receive loans and fees\n    // token.safeTransferFrom(address(_receiver), address(this), _amount + fees);\n    uint256 receivedFees = token.balanceOf(address(this)) - tokenBalBefore;\n    require(receivedFees >= fees, \"Bumper: not enough fees\");\n    feesMap[_token] = feesMap[_token] + receivedFees;\n    return true;\n  }\n\n  /// @notice flashloan rate can be anything\n  function setFlashLoanRate(uint256 _newRate) external override onlyOwner {\n    emit FlashLoanRateUpdated(flashLoanRate, _newRate);\n    flashLoanRate = _newRate;\n  }\n\n  /// @notice add new or update existing collateral\n  function updateCollateral(address _col, uint256 _minColRatio) external override onlyOwner {\n    require(_minColRatio > 0.5 ether, \"Bumper: min colRatio < 50%\");\n    emit CollateralUpdated(_col, minColRatioMap[_col], _minColRatio);\n    if (minColRatioMap[_col] == 0) {\n      collaterals.push(_col);\n    }\n    minColRatioMap[_col] = _minColRatio;\n  }\n\n  function setPairActive(\n    address _col,\n    address _paired,\n    uint48 _expiry,\n    uint256 _mintRatio,\n    bool _active\n  ) external override onlyOwner {\n    pairs[_col][_paired][_expiry][_mintRatio].active = _active;\n  }\n\n  function setFeeReceiver(address _address) external override onlyOwner {\n    require(_address != address(0), \"Bumper: address cannot be 0\");\n    emit AddressUpdated('feeReceiver', feeReceiver, _address);\n    feeReceiver = _address;\n  }\n\n  /// @dev update this will only affect pools deployed after\n  function setBERC20Impl(address _newImpl) external override onlyOwner {\n    require(_newImpl != address(0), \"Bumper: _newImpl cannot be 0\");\n    emit BERC20ImplUpdated(bERC20Impl, _newImpl);\n    bERC20Impl = _newImpl;\n  }\n\n  function setPaused(bool _paused) external override {\n    require(msg.sender == owner() || msg.sender == responder, \"Bumper: not owner/responder\");\n    emit PausedStatusUpdated(paused, _paused);\n    paused = _paused;\n  }\n\n  function setResponder(address _address) external override onlyOwner {\n    require(_address != address(0), \"Bumper: address cannot be 0\");\n    emit AddressUpdated('responder', responder, _address);\n    responder = _address;\n  }\n\n  function setOracle(address _address) external override onlyOwner {\n    require(_address != address(0), \"Bumper: address cannot be 0\");\n    emit AddressUpdated('oracle', address(oracle), _address);\n    oracle = IOracle(_address);\n  }\n\n  function getCollaterals() external view override returns (address[] memory) {\n    return collaterals;\n  }\n\n  function getPairList(address _col) external view override returns (Pair[] memory) {\n    Pair[] memory colPairList = pairList[_col];\n    Pair[] memory _pairs = new Pair[](colPairList.length);\n    for (uint256 i = 0; i < colPairList.length; i++) {\n      Pair memory pair = colPairList[i];\n      _pairs[i] = pairs[_col][pair.pairedToken][pair.expiry][pair.mintRatio];\n    }\n    return _pairs;\n  }\n\n  /// @notice amount that is eligible to collect\n  function viewCollectible(\n    address _col,\n    address _paired,\n    uint48 _expiry,\n    uint256 _mintRatio,\n    uint256 _bcTokenAmt\n  ) external view override returns (uint256 colAmtToCollect, uint256 pairedAmtToCollect) {\n    Pair memory pair = pairs[_col][_paired][_expiry][_mintRatio];\n    if (pair.mintRatio == 0 || block.timestamp < pair.expiry) return (colAmtToCollect, pairedAmtToCollect);\n\n    uint256 brTokenAmtDefaulted = pair.brToken.totalSupply();\n    if (brTokenAmtDefaulted == 0) { // no default, transfer paired Token\n      pairedAmtToCollect =  _bcTokenAmt;\n    } else {\n      // total amount of brTokens ever minted (converted from total collateral received, redeemed collateral not counted)\n      uint256 brTokenEverMinted = _getBTokenAmtFromColAmt(pair.colTotal, _col, _paired, pair.mintRatio);\n      // paired token amount to pay = bcToken amount * (1 - default ratio)\n      pairedAmtToCollect = _bcTokenAmt * (brTokenEverMinted - brTokenAmtDefaulted) * (1e18 - pair.feeRate) / 1e18 / brTokenEverMinted;\n\n      // default collateral amount to pay = converted collateral amount (from bcTokenAmt) * default ratio\n      uint256 colAmount = _getColAmtFromBTokenAmt(_bcTokenAmt, _col, address(pair.bcToken), pair.mintRatio);\n      colAmtToCollect = colAmount * brTokenAmtDefaulted / brTokenEverMinted;\n    }\n  }\n\n  function maxFlashLoan(address _token) external view override returns (uint256) {\n    return IERC20(_token).balanceOf(address(this));\n  }\n\n  /// @notice returns the amount of fees charges by for the loan amount. 0 means no fees charged, may not have the token\n  function flashFee(address _token, uint256 _amount) public view override returns (uint256 _fees) {\n    if (minColRatioMap[_token] > 0) {\n      _fees = _amount * flashLoanRate / 1e18;\n    }\n  }\n\n  /// @notice version of current Bumper Core hardcoded\n  function version() external pure override returns (string memory) {\n    return '1.0';\n  }\n\n  function _safeTransfer(IERC20 _token, address _account, uint256 _amount) private {\n    uint256 bal = _token.balanceOf(address(this));\n    if (bal < _amount) {\n      _token.safeTransfer(_account, bal);\n    } else {\n      _token.safeTransfer(_account, _amount);\n    }\n  }\n\n  function _sendAndAccuFees(IERC20 _token, uint256 _amount, uint256 _feeRate, bool _accrue) private {\n    uint256 fees = _amount * _feeRate / 1e18;\n    _safeTransfer(_token, msg.sender, _amount - fees);\n    if (_accrue) {\n      feesMap[address(_token)] = feesMap[address(_token)] + fees;\n    }\n  }\n\n  function _createBToken(\n    address _col,\n    address _paired,\n    uint256 _expiry,\n    string calldata _expiryStr,\n    string calldata _mintRatioStr,\n    string memory _prefix\n  ) private returns (address proxyAddr) {\n    uint8 decimals = uint8(IERC20(_paired).decimals());\n    if (decimals == 0) {\n      decimals = 18;\n    }\n    string memory symbol = string(abi.encodePacked(\n      _prefix,\n      IERC20(_col).symbol(), \"_\",\n      _mintRatioStr, \"_\",\n      IERC20(_paired).symbol(), \"_\",\n      _expiryStr\n    ));\n\n    bytes32 salt = keccak256(abi.encodePacked(_col, _paired, _expiry, _mintRatioStr, _prefix));\n    proxyAddr = Clones.cloneDeterministic(bERC20Impl, salt);\n    IBTokenProxy(proxyAddr).initialize(\"Bumper Protocol bToken\", symbol, decimals);\n    emit BTokenCreated(proxyAddr);\n  }\n\n  function _getBTokenAmtFromColAmt(uint256 _colAmt, address _col, address _paired, uint256 _mintRatio) private view returns (uint256) {\n    uint8 colDecimals = IERC20(_col).decimals();\n    // pairedDecimals is the same as bToken decimals\n    uint8 pairedDecimals = IERC20(_paired).decimals();\n    return _colAmt * _mintRatio * (10 ** pairedDecimals) / (10 ** colDecimals) / 1e18;\n  }\n\n  function _getColAmtFromBTokenAmt(uint256 _bTokenAmt, address _col, address _bToken, uint256 _mintRatio) private view returns (uint256) {\n    uint8 colDecimals = IERC20(_col).decimals();\n    // pairedDecimals == bToken decimals\n    uint8 bTokenDecimals = IERC20(_bToken).decimals();\n    return _bTokenAmt * (10 ** colDecimals) * 1e18 / _mintRatio / (10 ** bTokenDecimals);\n  }\n\n  function _permit(address _token, Permit calldata permit) private {\n    IERC20Permit(_token).permit(\n      permit.owner,\n      permit.spender,\n      permit.amount,\n      permit.deadline,\n      permit.v,\n      permit.r,\n      permit.s\n    );\n  }\n\n  function _validateDepositInputs(address _col, Pair memory _pair) private view {\n    require(_pair.mintRatio != 0, \"Bumper: pair does not exist\");\n    require(_pair.active, \"Bumper: pair inactive\");\n    require(_pair.expiry > block.timestamp, \"Bumper: pair expired\");\n\n    // Oracle price is not required, the consequence is low since it will just allow users to deposit collateral (which can be collected thro repay before expiry. If default, early repayments will be diluted\n    if (address(oracle) != address(0)) {\n      uint256 colPrice = oracle.getPriceUSD(_col);\n      if (colPrice != 0) {\n        uint256 pairedPrice = oracle.getPriceUSD(_pair.pairedToken);\n        if (pairedPrice != 0) {\n          // colPrice / mintRatio (1e18) / pairedPrice > min collateralization ratio (1e18), if yes, revert deposit\n          require(colPrice * 1e36 > minColRatioMap[_col] * _pair.mintRatio * pairedPrice, \"Bumper: collateral price too low\");\n        }\n      }\n    }\n  }\n}",
  "sourcePath": "/Users/cs/Project/bumper/bumper/contracts/BumperCore.sol",
  "compiler": {
    "name": "solc",
    "version": "0.8.3+commit.8d00100c.Emscripten.clang"
  },
  "schemaVersion": "3.3.4",
  "updatedAt": "2021-04-17T03:39:31.353Z",
  "devdoc": {
    "author": "crypto-pumpkin Bumper Pair: collateral, paired token, expiry, mintRatio  - ! Paired Token cannot be a deflationary token !  - bTokens have same decimals of each paired token  - all Ratios are 1e18  - bTokens have same decimals as Paired Token  - Collateral can be deflationary token, but not rebasing token",
    "kind": "dev",
    "methods": {
      "acceptOwnership()": {
        "details": "Transfers ownership of the contract to a new account (`newOwner`). Can only be called by the owner candidate."
      },
      "owner()": {
        "details": "Returns the address of the current owner."
      },
      "renounceOwnership()": {
        "details": "Leaves the contract without owner. It will not be possible to call `onlyOwner` functions anymore. Can only be called by the current owner. NOTE: Renouncing ownership will leave the contract without an owner, thereby removing any functionality that is only available to the owner."
      },
      "setBERC20Impl(address)": {
        "details": "update this will only affect pools deployed after"
      },
      "transferOwnership(address)": {
        "details": "Transfers ownership of the contract to a new account (`newOwner`). Can only be called by the current owner."
      }
    },
    "title": "BumperCore contract",
    "version": 1
  },
  "userdoc": {
    "kind": "user",
    "methods": {
      "addPair(address,address,uint48,string,uint256,string,uint256)": {
        "notice": "add a new Bumper Pair  - Paired Token cannot be a deflationary token  - minColRatio is not respected if collateral is alreay added  - all Ratios are 1e18"
      },
      "collect(address,address,uint48,uint256,uint256)": {
        "notice": "sender collect paired tokens by returning same amount of bcTokens to Bumper"
      },
      "collectFees(address[])": {
        "notice": "anyone can call if they pay, no reason to prevent that. This will enable future xBumper or other fee related features"
      },
      "deposit(address,address,uint48,uint256,uint256)": {
        "notice": "deposit collateral to a Bumper Pair, sender receives bcTokens and brTokens"
      },
      "flashFee(address,uint256)": {
        "notice": "returns the amount of fees charges by for the loan amount. 0 means no fees charged, may not have the token"
      },
      "flashLoan(address,address,uint256,bytes)": {
        "notice": "allow flash loan borrow allowed tokens up to all core contracts' holdings _receiver will received the requested amount, and need to payback the loan amount + fees _receiver must implement IERC3156FlashBorrower"
      },
      "minColRatioMap(address)": {
        "notice": "collateral => minimum collateralization ratio, paired token default to 1e18 unit 100% <==> 1e18"
      },
      "mmDeposit(address,address,uint48,uint256,uint256)": {
        "notice": "market make deposit, deposit paired Token to received bcTokens, considered as an immediately repaid loan"
      },
      "pairs(address,address,uint48,uint256)": {
        "notice": "collateral => pairedToken => expiry => mintRatio => Pair"
      },
      "redeem(address,address,uint48,uint256,uint256)": {
        "notice": "redeem with brTokens and bcTokens before expiry only, sender receives collateral, fees charged on collateral"
      },
      "repay(address,address,uint48,uint256,uint256)": {
        "notice": "repay with brTokens and paired token amount, sender receives collateral, no fees charged on collateral"
      },
      "setFlashLoanRate(uint256)": {
        "notice": "flashloan rate can be anything"
      },
      "updateCollateral(address,uint256)": {
        "notice": "add new or update existing collateral"
      },
      "version()": {
        "notice": "version of current Bumper Core hardcoded"
      },
      "viewCollectible(address,address,uint48,uint256,uint256)": {
        "notice": "amount that is eligible to collect"
      }
    },
    "version": 1
  },
  "db": {
    "callBytecode": {
      "id": "0x58cb5260b1a8f400f9ab005fd01a0048c2686cd43357c2275ed425a52928057d"
    },
    "createBytecode": {
      "id": "0x85b20cad408b0964613d4d4f135aeb7b2fb4bee8a21fe1be5753d49f80fbd576"
    },
    "contract": {
      "id": "0x6b7a8ae468ccf0dbb56f7928128487d57066fcae8dd014a35c1a97cb56cf1cc1"
    }
  }
}